:020000040800F2
:10000000B0040020C10100084F0E0008E70D0008F1
:100010004D0E0008CD020008891000080000000005
:10002000000000000000000000000000530E000867
:10003000CF02000800000000510E0008550E000815
:10004000DB010008DB010008DB010008DB01000820
:10005000DB010008DB010008DB010008DB01000810
:10006000DB010008DB010008DB010008DB01000800
:10007000DB010008DB010008DB010008DB010008F0
:10008000DB010008DB010008DB010008DB010008E0
:10009000DB010008DB010008DB010008DB010008D0
:1000A000DB010008DB010008DB010008DB010008C0
:1000B000DB010008DB010008DB010008DB010008B0
:1000C000DB010008DB010008DB010008DB010008A0
:1000D000DB010008DB010008DB010008DB01000890
:1000E000DB010008DB010008DB010008DB01000880
:1000F000DB010008DB010008DB010008DB01000870
:10010000DB010008DB010008DB010008DB0100085F
:10011000DB010008DB010008DB010008DB0100084F
:10012000DB010008DB010008DB010008DB0100083F
:10013000DB010008DB010008DB010008DB0100082F
:10014000DB010008DB010008DB010008DB0100081F
:10015000DB010008DB010008DB010008DB0100080F
:10016000DB010008DB010008DB010008DB010008FF
:10017000DB010008DB010008DB01000800000000D3
:10018000DB010008DB010008DB010008DB010008DF
:10019000DB010008DB010008DB010008DB010008CF
:1001A000DB010008DB010008DB010008DFF80CD0F0
:1001B00000F07AF80048004779150008B0040020E4
:1001C0000648804706480047FEE7FEE7FEE7FEE7F1
:1001D000FEE7FEE7FEE7FEE7FEE7FEE7F50E0008B6
:1001E000AD0100082DE9F05F0546002092469B46D0
:1001F00088460646814640241BE02846414647463D
:10020000224600F041F853465A46C01A914110D395
:1002100011461846224600F028F82D1A67EB01080F
:100220004F4622460120002100F01FF817EB00097D
:100230004E41201EA4F10104DFDC484631462A4627
:100240004346BDE8F09FD2B201E000F8012B491E01
:10025000FBD270470022F6E710B513460A46044663
:100260001946FFF7F0FF204610BD202A04DB203A94
:1002700000FA02F1002070479140C2F1200320FAF9
:1002800003F3194390407047202A04DB203A21FAF7
:1002900002F00021704721FA02F3D040C2F120029F
:1002A0009140084319467047064C074D06E0E06848
:1002B00040F0010394E8070098471034AC42F6D3AD
:1002C000FFF778FF8C160008AC160008FEE77047B1
:1002D0002DE9F84FDFF8F8A1002201240AF1040B00
:1002E00003254FF00F090BF1040E00BF0B6804FA51
:1002F00002F63340B34270D10F7907F00307012FA4
:1003000001D0022F16D187684FEA420805FA08FC8F
:1003100027EA0C07D1F80CC00CFA08FC4CEA070CD1
:10032000C0F808C04768B7430E79C6F30016964078
:100330003E4346600E79F643B6070AD0C7684FEAD7
:10034000420C05FA0CF6B7438E6806FA0CF63E43EB
:10035000C6600E7906F00306022E10D1D60800EB17
:100360008608D8F8206057074FEAD76C09FA0CF7CF
:10037000BE430F6907FA0CF73743C8F820700668C8
:100380004FEA420C05FA0CF7BE430F7907F003075A
:1003900007FA0CF7374307604E6816F4403F1CD04D
:1003A0004C4E376847F480473760366822F00307C1
:1003B00006F480460096484E07EB060CDCF8086809
:1003C00097073F0F09FA07F826EA0806DFF80C81BD
:1003D000404503D14FF0000841E072E0DFF80081B2
:1003E000404502D14FF0010839E0DFF8F880404580
:1003F00002D14FF0020832E0DFF8EC80404502D134
:100400004FF003082BE0DFF8E480404502D14FF0C5
:10041000040824E0DFF8D880404502D14FF00508F9
:100420001DE0DFF8D080404502D14FF0060816E00D
:10043000DFF8C480404502D14FF007080FE0DFF835
:10044000BC80404502D14FF0080808E0DFF8B080DA
:10045000404502D14FF0090801E04FF00A0808FAC0
:1004600007F848EA0608CCF80888DAF8006057462A
:10047000D1F804C09E435FEACC3C00D51E433E60E9
:10048000DBF800605F46D1F804C09E435FEA8C3C15
:1004900000D51E433E60DEF800607746D1F804C008
:1004A0009E435FEACC2C00D51E433E60084F0C37BC
:1004B0003E68D1F804C09E435FEA8C2C00D51E43F1
:1004C0003E60521C102AFFF411AFBDE8F88F000007
:1004D000003C01404438024000300140000002402E
:1004E0000004024000080240000C024000100240DC
:1004F0000014024000180240001C0240002002408C
:10050000002402400AB1816170470904FBE7000042
:10051000014880687047000004000020024881689C
:100520000278114481607047040000200B4810B528
:10053000016841F400710160016841F4806101606B
:10054000016841F480710160032000F061F80F2020
:1005500000F006F800F024F8002010BD003C024036
:1005600070B50D4D04464FF47A712878B1FBF0F068
:100570000A490968B1FBF0F000F095FB48B9102C6E
:1005800007D200222146501E00F022F800206C60A5
:1005900070BD012070BD000004000020000000209C
:1005A0000A4808B5016841F480410160006800F420
:1005B000804000900548001F016841F080510160B3
:1005C000006800F08050009008BD000044380240F0
:1005D000F0B40E4B1B680C46C3F30223C3F10705AE
:1005E000042D00D90425191D072901D2002300E09C
:1005F000DB1E012606FA05F1491E214099409E4066
:10060000761E16403143F0BC00F050BD0CED00E00A
:10061000064900F0070208684FF6FF03184040EA59
:100620000220034A10430860704700000CED00E010
:100630000000FA052DE9F8431748016841F08051A0
:1006400001600068154F00F08050012600903E6464
:10065000FFF75EFF05464FF47A78114C05E000BFC6
:10066000FFF756FF401B40450DD86068C003F7D523
:100670007E64FFF74DFF0546464607E0FFF748FF5B
:10068000401BB04202D90320BDE8F88360688003B4
:10069000F4D50020F8E700004038024000000E4288
:1006A000007000402DE9F0470E46050065D0DFF8E8
:1006B0001481D8F80000F7B200F00F00B04207D262
:1006C00088F80070D8F8000000F00F00B04254D154
:1006D00028683D4C810712D5400703D5206840F4B7
:1006E000E05020602878000703D5206840F460407F
:1006F00020602068A96820F0F00008432060287876
:10070000C0072DD0304968680839012812D0022866
:1007100013D0032811D00968890700292DDA216830
:1007200021F0030101432160FFF7F2FE814641F20F
:10073000883A0EE009688903EFE709688901ECE768
:10074000FFF7E6FEA0EB0901514502D90320BDE801
:10075000F0872068696800F00C00B0EB810FEFD1E2
:10076000D8F80010404601F00F01B14207D90770D8
:10077000006800F00F00B04201D00120E7E72878C0
:10078000400705D52068E96820F4E0500843206060
:100790002878000706D52068296920F4604040EADF
:1007A000C100206000F038F82168084AC1F3031145
:1007B000515CC8400649086006480068FFF7D0FE53
:1007C0000020C4E7003C02400838024074160008CC
:1007D000000000200800002004480549006809685E
:1007E000044AC1F38221515CC840704700000020D8
:1007F0000838024084160008044805490068096862
:10080000044AC1F34231515CC840704700000020E7
:100810000838024084160008154810B5006810F02A
:100820000C02144813D01449042A0FD0082A0ED100
:100830000F4C241F2268236802F03F025B0207D599
:100840002068C0F38810A0FB010106E0084610BD37
:100850002168C1F38811A1FB00010023FFF7C2FC4E
:100860002168C1F30141491C4900B0FBF1F010BD02
:10087000083802400024F40040787D012DE9F84F4B
:1008800004006ED02078DFF84C93C007A9F104056E
:100890004AD009F104000168C1F38101012908D09F
:1008A0000068C0F3810002280AD1D9F80000400294
:1008B00006D52868800337D560680028E1D033E08A
:1008C0006068B0F5803F10D0B0F5A02F286810D038
:1008D00020F480302860286820F480202860606838
:1008E000A8B1FFF715FE06460DE0286840F48030F9
:1008F000F4E740F480202860F7E700BFFFF708FE28
:10090000801B642873D828688003F7D50CE0FFF7B4
:10091000FFFD064605E000BFFFF7FAFD801B6428D7
:10092000F0D828688003F7D42078DFF8AC828007FD
:100930004FF0000A3ED5A748001D016811F00C0FCA
:1009400008D00068C0F3810002280BD1D9F800005C
:10095000400207D42868800716D5E068012800D136
:1009600012E033E1E068B8B10120C8F80000FFF7F9
:10097000CFFD064605E000BFFFF7CAFD801B022839
:10098000C0D828688007F7D52868216920F0F800CA
:1009900040EAC10028600DE0C8F800A0FFF7B8FDEC
:1009A000064604E0FFF7B4FD801B02281FD8286824
:1009B0008007F7D42078000722D5864F87486169E1
:1009C000703771B101210160FFF7A2FD064604E016
:1009D000FFF79EFD801B022809D838688007F7D5ED
:1009E0000EE0C0F800A0FFF793FD064605E082E0A8
:1009F000FFF78EFD801B02287DD838688007F7D46A
:100A00002078400768D5DFF8CCB100270BF13C0B0C
:100A1000DBF80000C0000BD4DBF8001041F080517F
:100A2000CBF80010DBF80000012700F080500090A8
:100A30006B4E3068C00510D4306840F48070306070
:100A4000FFF766FD009005E0FFF762FD0099401A90
:100A5000022850D83068C005F6D55E4EA0686C36C6
:100A600001280FD00528306810D020F00100306038
:100A7000306820F004003060A068B8B1FFF748FD8E
:100A800000900FE0306840F00100F4E740F004000F
:100A90003060F7E7FFF73CFD0099411A41F28830DA
:100AA000814266D830688007F4D50EE0FFF730FD4C
:100AB000009007E0FFF72CFD0099411A41F28830C1
:100AC000814256D830688007F4D42FB1DBF800108B
:100AD00021F08051CBF80010A069C8B33D49091D31
:100AE0000968C1F3810102294AD00228504607D083
:100AF000C8F8600000E03CE0FFF70AFD04463BE078
:100B00004746C8F86000FFF703FD064605E000BF52
:100B1000FFF7FEFC801B02282BD828688001F7D441
:100B2000D4E907010843A16A2E4A490802EB0141B2
:100B3000626A41EA8211084394F82C1040EA01618C
:100B4000C9F8001001203866FFF7E2FC044606E011
:100B50003EE000BFFFF7DCFC001B022809D8286834
:100B60008001F7D534E000BFFFF7D2FC001B02285C
:100B700002D90320BDE8F88F28688001F4D427E06B
:100B80000128F7D0D9F80000E26900F48001914211
:100B90001CD1226A00F03F01914217D147F6C07183
:100BA000626A0140B1EB821F10D1A26A4FF0FF339D
:100BB00000F4403103EB5202B1EB024F06D194F83E
:100BC0002C1000F07060B0EB016F01D00120D1E774
:100BD0000020CFE70438024000004742800E474221
:100BE000007000400000FFFF70B5040009D0606A8B
:100BF000002540B125616561A56294F8510040B1BE
:100C00000CE0012070BD6068B0F5827FF4D0E56132
:100C1000F2E784F85050204600F044F8022084F8AF
:100C200051002068016821F040010160A0882189FD
:100C300000F4827001F404410843A18901F40061C9
:100C40000843217C01F002010843217D01F00101EC
:100C50000843218B01F400710843217F01F0380122
:100C6000084394F8201001F080010843218D01F41D
:100C70000051084321680860A069042101EA10407E
:100C800094F8241001F0100108432168486020689E
:100C9000C16921F40061C1616565012084F85100DA
:100CA000002070BD704710B5401EB0F1807F01D3A9
:100CB000012010BD4FF0E02460610F21601700F0AB
:100CC000F5F90020A06107202061002010BD70B55B
:100CD000040004D094F83D00002510B106E0012086
:100CE00070BD84F83C50204600F022F8242084F89F
:100CF0003D002068C16821F40051C160204600F029
:100D000001F92068016921F490410161206841697D
:100D100021F02A0141612068C16841F40051C1609D
:100D20002564202084F83D0084F83E00002070BD3A
:100D3000704700002DE9F843044690F83D001F4637
:100D400016460D4620284CD1C5B1BEB194F83C00E2
:100D5000012846D0012084F83C004FF00008C4F878
:100D60004080212084F83D00FFF7D2FBA684814615
:100D7000E684A068B0F5805F03D004E00120BDE800
:100D8000F883206928B12E465FF0000584F83C8086
:100D90000EE00026FAE78021204600F039F9A0B9DC
:100DA000AEB116F8010B21684860E08C401EE0846B
:100DB000E08C4B464FF0000200970028EBD14FF03B
:100DC0004001204600F024F930B10320D7E735F880
:100DD000020BC0F30800E6E7202084F83D00002065
:100DE000CDE70220CBE7FEE710B5164886B0002419
:100DF000016841F0800101600068142100F080006A
:100E000005906846FFF726FA4FF4E0500090012065
:100E1000CDE9010403940C4C69462046FFF758FACB
:100E2000012291022046FFF76DFB0122D1022046EC
:100E3000FFF768FB012211032046FFF763FB06B0B2
:100E400010BD000030380240001C0240FEE7FEE703
:100E500070477047FFF762BB70B592B030216846AB
:100E6000FFF7F8F914210CA8FFF7F4F91F48002543
:100E7000016841F080510160006800F080501190DD
:100E80001B48016841F4404101600068022400F4FD
:100E90004040119001200090000401908001CDE9B4
:100EA00006400F260896D820CDE9090404200B90AF
:100EB0006846FFF7E3FC08B172B6FEE7FFF7BAFB3E
:100EC00008B172B6FEE74FF4A050CDE90E504FF4D2
:100ED0008050CDE90C64109005210CA8FFF7E2FBCF
:100EE000002801D072B6FEE712B070BD4038024053
:100EF000007000400248016841F4700101607047D1
:100F000088ED00E070B5044600680169E26821F4EC
:100F10004051114301612169A068E2690843616998
:100F2000114308432168CA6849F20C639A4302439B
:100F3000CA6020684169A26921F44071114341618E
:100F400031492068884202D03049884202D1FFF7F7
:100F500053FC01E0FFF740FCE269002319216425FE
:100F60003226B2F5004F626828D0A0FB0101930F32
:100F70009200FFF737F90146B0FBF5F06FF0180269
:100F8000504301EB800006EB0010B0FBF5F000F0E1
:100F9000F002B1FBF5F002EB0012B1FBF5F06FF0DF
:100FA0001803584301EB800006EB0010B0FBF5F08E
:100FB00000F00F0021681044886070BDA0FB0101A3
:100FC00092185B41FFF70EF90146B0FBF5F0020104
:100FD000B1FBF5F06FF01803584301EB800006EB0E
:100FE000C000B0FBF5F000F0F80002EB4002B1FBEE
:100FF000F5F0584301EB800006EBC000B0FBF5F0C4
:1010000000F00700D6E70000001001400014014086
:101010002DE9F041984617460E460446069D27E006
:10102000681C25D02DB1FFF773FAA0EB0800A84289
:101030001ED920680C3050E8001F21F4D07140E820
:101040000012002AF5D12068143050E8001F21F06A
:10105000010140E80012002AF5D1202084F83D006B
:1010600084F83E00002084F83C000320BDE8F081B5
:101070002068006836EA000004D00020B842CFD0D3
:101080000020F3E70120F9E7FEE700000FB4054B6D
:1010900010B503A9044A029800F028F810BC5DF8C6
:1010A00014FB0000AD130008100000200907090E12
:1010B000002804DB00F1E02080F80014704700F005
:1010C0000F0000F1E02080F8141D704702E008C80E
:1010D000121F08C1002AFAD170477047002001E0B2
:1010E00001C1121F002AFBD1704700002DE9FF4FFC
:1010F0008DB09B460F460446002606E025280BD0FF
:101100005A460F999047641C761C20780028F5D128
:1011100011B03046BDE8F08F0025A846012298495D
:1011200000E0054314F8013F203B02FA03F00842B7
:10113000F7D120782E2817D114F8010F45F00405B7
:101140002A280ED06FF02F022078A0F13001092953
:101150000AD808EB880102EB410100EB0108641C8E
:10116000F2E757F8048B641C20786C280DD004DC5F
:101170004C2812D06A2811D104E074280DD07A28A6
:101180000CD10AE045F4001507E0617845F48015BC
:10119000814202D1641C05F58015641C2278692AFD
:1011A00045D008DC002AB3D0582A69D0632A10D071
:1011B000642A08D13BE0702A67D0732A13D0752ABD
:1011C0005CD0782A5CD010465A460F999047761C1E
:1011D000D3E017F8040B8DF8000000208DF8010013
:1011E000E946012003E057F8049B4FF0FF30690700
:1011F0004FF0000501D40AE06D1C45450DDA85422B
:10120000FADB19F805100029F6D106E06D1C8542BD
:10121000FCDB19F805100029F8D12E4404E019F878
:10122000010B5A460F9990476D1EF8D2A5E00A208F
:101230000021CDE90801C5F3025002280DD001CFED
:10124000C117031E71F100030DDA4FF0000CD0EB53
:101250000C006CEB01012D2308E0FF1D27F00707B0
:10126000F7E80201EDE72B0504D52B238DF8283094
:1012700001233BE0EB0739D02023F7E70A2000E009
:1012800010200021CDE9080107E01020002145F0E1
:101290000405CDE908014FF00808C5F30250022803
:1012A0000FD001CF00214FF0000A2B071FD5702A65
:1012B0000DD0DDE908C38CF0100C5CEA030C0CD0F7
:1012C00015E0FF1D27F00707F7E80201EBE74022D2
:1012D0008DF828204FF0010A0BE050EA010306D0F8
:1012E00030238DF828308DF8292002239A46582A79
:1012F00004D024A20DF120090B9209E026A2F9E7FF
:10130000DDE90823FEF76EFF0B9B9B5C09F8013DAE
:1013100050EA0102F4D1ADEB0900203008906807D3
:1013200001D44FF001080899884502DDA8EB0100BF
:1013300000E000208046002506E00AA85A46405DED
:101340000F9990476D1C761C5545F6DB04E0302064
:101350005A460F999047761CB8F10001A8F1010890
:10136000F5DC05E019F8010B5A460F999047761CF9
:101370000899481E08900029F4DC641CC5E60000AA
:10138000092801003031323334353637383961625B
:10139000636465660000000030313233343536371F
:1013A00038394142434445460000000038B5044600
:1013B00000904FF47A73012269460248FFF7BAFCA5
:1013C000204638BD1400002010B50F4886B0002418
:1013D000016841F0010101600068142100F0010082
:1013E00005906846FEF736FF4FF4C060009002207B
:1013F000CDE90104032003900720049069460348C7
:10140000FEF766FF06B010BD303802400000024013
:1014100038B50E480024016841F0100101600068F1
:1014200000F010000090FFF7CFFF0A480849016064
:101430004FF4E131C0E901140C21C460C0E904415A
:101440008461C461BDE83840FFF741BC44380240C4
:10145000001001401400002030B51B4887B0002464
:10146000016841F0200101600068142100F02000B3
:1014700005906846FEF7EEFE402000900120CDE981
:101480000104124D0224694628460394FEF720FF0A
:10149000012240212846FFF735F88020CDE90004DD
:1014A0000520049069462846FEF712FFE0010090EF
:1014B00069462846FEF70CFF200200906946284640
:1014C000FEF706FF07B030BD30380240001402407E
:1014D00038B5FFF7C1FF154900200A6842F48012B1
:1014E0000A600968134C01F48011009110492160D1
:1014F0004FF48271C4E901100221C4E90301012102
:1015000061614902C4E9061020626062A06207209E
:10151000E0622046FFF768FB2068016841F0400167
:101520000160BDE8384000F059B80000443802407E
:10153000005001405800002030B50E4C4FF47A7234
:101540001146236802E0491E89B209D39D68ED4324
:10155000AD07F8D4D860206804E0521E92B201D2E0
:10156000002030BD8168C943C907F6D1C068C0B248
:1015700030BD000058000020FEF7D8FFFFF76CFCDC
:10158000FFF732FCFFF744FFFFF7A2FF04A0FFF7CD
:101590007DFD00F04BF801460BA0FFF777FDFEE75D
:1015A0005065726970686572616C20696E697469F2
:1015B000616C697A6174696F6E20636F6D706C65C0
:1015C0007465210A00000000666C6173685F49441D
:1015D000203D20307825780A0000000070B5124CBC
:1015E000002240212046FEF78DFF1520FFF7A4FFC3
:1015F000FF20FFF7A1FF0546012240212046FEF70C
:1016000081FFE8070ED1002240212046FEF77AFF35
:10161000B720FFF791FF2046BDE87040012240212E
:10162000FEF770BF70BD0000001402402DE9F041CC
:101630000F4E002240213046FEF764FF9F20FFF747
:101640007BFFFF20FFF778FF0546FF20FFF774FFC1
:101650000446FF20FFF770FF074601224021304675
:10166000FEF750FF280440EA04203843BDE8F0812B
:10167000001402400000000000000000010203040A
:10168000060708090000000001020304AC16000868
:101690000000002014000000CC100008C016000854
:1016A000140000209C040000DC1000080024F4005A
:1016B0000100000010000000000000000000000019
:04000005080001AD41
:00000001FF
