:020000040800F2
:10000000D0040020C101000869170008EF1600089D
:10001000651700081D030008071B0008000000000A
:100020000000000000000000000000006F17000842
:1000300021030008000000006D1700087117000878
:10004000DB010008DB010008DB010008DB01000820
:10005000DB010008DB010008DB010008DB01000810
:10006000DB010008DB010008DB010008DB01000800
:10007000DB010008DB010008DB010008DB010008F0
:10008000DB010008DB010008DB010008DB010008E0
:10009000DB010008DB010008DB010008DB010008D0
:1000A000DB010008DB010008DB010008DB010008C0
:1000B000DB010008DB010008DB010008DB010008B0
:1000C000DB010008DB010008DB010008DB010008A0
:1000D000DB010008DB010008DB010008DB01000890
:1000E000DB010008DB010008DB010008DB01000880
:1000F000DB010008DB010008DB010008DB01000870
:10010000DB010008DB010008DB010008DB0100085F
:10011000DB010008DB010008DB010008DB0100084F
:10012000DB010008DB010008DB010008DB0100083F
:10013000DB010008DB010008DB010008DB0100082F
:10014000DB010008DB010008DB010008DB0100081F
:10015000DB010008DB010008DB010008DB0100080F
:10016000DB010008DB010008DB010008DB010008FF
:10017000DB010008DB010008DB01000800000000D3
:10018000DB010008DB010008DB010008DB010008DF
:10019000DB010008DB010008DB010008DB010008CF
:1001A000DB010008DB010008DB010008DFF80CD0F0
:1001B00000F0A2F80048004715210008D0040020F4
:1001C0000648804706480047FEE7FEE7FEE7FEE7F1
:1001D000FEE7FEE7FEE7FEE7FEE7FEE7351800086C
:1001E000AD0100082DE9F05F0546002092469B46D0
:1001F00088460646814640241BE02846414647463D
:10020000224600F069F853465A46C01A914110D36D
:1002100011461846224600F050F82D1A67EB0108E7
:100220004F4622460120002100F047F817EB000955
:100230004E41201EA4F10104DFDC484631462A4627
:100240004346BDE8F09F40EA01039B0703D009E065
:1002500008C9121F08C0042AFAD203E011F8013BB2
:1002600000F8013B521EF9D27047D2B201E000F80B
:10027000012B491EFBD270470022F6E710B513464A
:100280000A4604461946FFF7F0FF204610BD30B578
:100290000B46014600202022012409E021FA02F544
:1002A0009D4205D303FA02F5491B04FA02F52844DE
:1002B000151EA2F10102F1DC30BD202A04DB203A38
:1002C00000FA02F1002070479140C2F1200320FAA9
:1002D00003F3194390407047202A04DB203A21FAA7
:1002E00002F00021704721FA02F3D040C2F120024F
:1002F0009140084319467047064C074D06E0E068F8
:1003000040F0010394E8070098471034AC42F6D35C
:10031000FFF750FF5C2100087C21000800BFFEE7CA
:10032000704772B600BFFEE710B5002201B909E0C0
:10033000012901D10A0205E0022901D10A0201E0E6
:100340004FF440720B2800D9001D0E4B1B6823F49C
:1003500040730C4C236023461B68134323602346E1
:100360001B6823F0F803236023461B68022444EA39
:10037000C0042343034C236023461B6843F48033AB
:10038000236010BD103C02401C48006800F400705F
:10039000B0B11A48006820F400701849086000BF26
:1003A0000846006840F4006008600846006820F4D1
:1003B0000060086000BF0846006840F400700860F4
:1003C0000E48006800F48060B0B10C48006820F46A
:1003D00080600A49086000BF0846006840F4805009
:1003E00008600846006820F48050086000BF084696
:1003F000006840F48060086070470000003C0240E4
:10040000134A126822F44072114B1A60032906D174
:100410001A461268DB131A430D4B1A600EE00129CD
:1004200006D10B4A126842F00402094B1A6005E03B
:10043000074A126842F40042054B1A60044A1268E7
:100440004FF4803343EA00231A43014B1A6070478C
:10045000103C0240074A126822F44072054B1A60B1
:100460001A4612681A601A46126842F001021A60AF
:1004700001707047103C024010B50D49096821F425
:1004800040710B4C21602146096841F440712160A4
:100490002146096841F001012160026000BF00BFF0
:1004A00000BFBFF36F8F00BF00BF00BF436010BD30
:1004B000103C0240084A126822F44072064B1A604F
:1004C0001A46126842F480721A601A46126842F0A4
:1004D00001021A6001807047103C0240084A12680D
:1004E00022F44072064B1A601A46126842F40072F7
:1004F0001A601A46126842F001021A6001607047E1
:10050000103C02402A48006800F0100040B1294821
:10051000C06940F010002749C861102024490860D4
:100520002348006800F0200040B12248C06940F034
:1005300008002049C86120201D4908601C48006847
:1005400000F0400040B11B48C06940F00400194968
:10055000C8614020164908601548006800F0800016
:1005600040B11448C06940F002001249C8618020BF
:100570000F4908600E48006800F4807048B10D48CB
:10058000C06940F001000B49C8614FF48070084910
:1005900008600748006800F0020040B10548C069E3
:1005A00040F020000349C8610220014908607047FB
:1005B0000C3C0240AC00002070B504460025002031
:1005C0001449C86100F0FEF9054609E0601C38B125
:1005D00024B100F0F7F9401BA04201D9032070BDFF
:1005E0000D48006800F480300028EFD10A48006808
:1005F00000F0010010B101200749086006480068BA
:1006000000F4F97018B1FFF77DFF0120E7E7002043
:10061000E5E70000AC0000200C3C02402DE9F04171
:1006200004460E460127002500BF2648007E01280B
:1006300002D10220BDE8F08101202249087600BFE6
:100640004CF25030FFF7B8FF0746002F32D1401E62
:1006500030602068012810D1207C6168FFF7D0FE4F
:100660004CF25030FFF7A8FF07461748006848F2E1
:1006700004018843144908601AE0A56812E0217C4F
:100680002846FFF751FE4CF25030FFF795FF074622
:100690000D48006820F0FA000B4908600FB1356082
:1006A00005E06D1CD4E902100844A842E7D800BF59
:1006B000FFF76AFE00BF00200249087600BF3846F7
:1006C000B8E70000AC000020103C0240034800687E
:1006D00040F000400149086000207047103C024093
:1006E0002DE9F04106460F4614461D464FF001081D
:1006F00000BF1F48007E012802D10220BDE8F08122
:1007000001201B49087600BF4CF25030FFF754FF20
:100710008046B8F1000F23D126B9E1B23846FFF781
:1007200099FE12E0012E04D1A1B23846FFF7C2FEB5
:100730000BE0022E04D121463846FFF7CFFE04E03D
:1007400022462B463846FFF797FE4CF25030FFF713
:1007500033FF80460748006820F001000549086023
:1007600000BF00200249087600BF4046C6E70000EF
:10077000AC000020103C024000200949096801F04B
:10078000004159B10749064A0C3A11600649116007
:100790000349096801F0004101B1012070470000E0
:1007A000103C024023016745AB89EFCDF8B5024606
:1007B0000B460025002400200021DFE0012606FA78
:1007C00001F51E6806EA0504AC4274D11E7906F0F4
:1007D0000306012E04D01E7906F00306022E13D163
:1007E00090684F000326BE40B0434F00DE68BE4015
:1007F00030439060506801268E40B0431E79C6F3A6
:1008000000168E40304350601E7906F00306032E1A
:1008100009D0D0684F000326BE40B0434F009E6809
:10082000BE403043D0601E7906F00306022E13D17D
:10083000CF0802F1200656F827004E07F70E0F26C4
:10084000BE40B0434F07FF0E1E69BE403043CF0885
:1008500002F1200646F8270010684F000326BE402C
:10086000B0431E7906F003064F00BE4030431060CF
:100870005E6806F44036002E7FD000BF002600964A
:10088000404E366846F480463E4F3E603E463668EF
:1008900006F48046009600BF00BF3B4E8F0856F816
:1008A00027008E07370F0F26BE40B043374EB242A7
:1008B00002D100262EE060E0354EB24201D1012681
:1008C00028E0344EB24201D1022623E0324EB24239
:1008D00001D103261EE0314EB24201D1042619E0B7
:1008E0002F4EB24201D1052614E02E4EB24201D164
:1008F00006260FE02C4EB24201D107260AE02B4E0D
:10090000B24201D1082605E0294EB24201D10926A2
:1009100000E00A268F073F0FBE4030431A4E8F0873
:1009200046F82700234E3068A0435E6806F4803600
:1009300006B120431F4E3060361D3068A0435E680C
:1009400006F4003606B120431A4E361D3060361DBF
:100950003068A0435E6806F4801606B12043154E49
:1009600008363060361D3068A0435E6806F4001615
:1009700006B120430F4E0C363060491C1029FFF49D
:100980001DAFF8BD44380240083801400000024065
:100990000004024000080240000C02400010024027
:1009A0000014024000180240001C024000200240D7
:1009B00000240240003C01400AB1816101E00B04C7
:1009C0008361704701480068704700000400002000
:1009D000024692F83D0020281ED1242082F83D00D6
:1009E0001068006820F00100136818601068406A01
:1009F00020F01000136858621068406A08431368BA
:100A000058621068006840F00100136818602020E8
:100A100082F83D00002070470220FCE710B5024636
:100A20000B46002192F83D0020281DD1242082F899
:100A30003D001068006820F0010014682060106814
:100A4000406A81B221F00F0141EA030081B21068CF
:100A500041621068006840F00100146820602020A6
:100A600082F83D00002010BD0220FCE770B504466E
:100A70000CB9012070BD94F83D0028B9002084F81D
:100A80003C00204600F0DAF8242084F83D0020687D
:100A9000006820F00100216808602068006840F4C8
:100AA0000040216808602068006820F40040216848
:100AB000086000F099FA05465C496068884206D8EB
:100AC0005B48854201D2012007E0002005E059483B
:100AD000854201D2012000E00020012800D1C9E7B1
:100AE0005548B5FBF0F62068406820F03F003043E1
:100AF000216848604D496068884201D8701C07E051
:100B00004FF4967070434FF47A71B0FBF1F0401CD3
:100B10002168096A21F03F010843216808624349BE
:100B20006068884214D8681E61684900B0FBF1F023
:100B3000401CC0F30B00042801D204203DE0681ED5
:100B400061684900B0FBF1F0401CC0F30B0034E0D9
:100B5000A06838B9681E616801EB4101B0FBF1F093
:100B6000401C0AE0681E616801EBC10202EB011142
:100B7000B0FBF1F0401C40F48040C0F30B0008B91A
:100B800001201AE0A06848B9681E616801EB4101C4
:100B9000B0FBF1F0401CC0F30B000CE0681E616874
:100BA00001EBC10202EB0111B0FBF1F0401CC0F3FC
:100BB0000B0040F4804040F400402168C9694CF6C5
:100BC000FF72914308432168C861D4E907010843D3
:100BD0002168096821F0C001084321680860D4E950
:100BE000031008432168896848F2FF3291430843A3
:100BF00021688860D4E9050108432168C96821F0AB
:100C0000FF0108432168C8602068006840F00100C7
:100C10002168086000202064202084F83D00002026
:100C2000206384F83E0000BF24E70000A086010096
:100C300080841E0000093D0040420F007047000004
:100C4000034800680349097808440149086070476F
:100C5000040000200C00002010B50D48006840F48E
:100C600000700B4908600846006840F48060086026
:100C70000846006840F480700860032000F092F895
:100C80000F2000F007F800F02BF8002010BD000046
:100C9000003C024070B504460E4800784FF47A716B
:100CA000B1FBF0F00C490968B1FBF0F5284600F003
:100CB00061FC08B1012070BD102C07D20022214632
:100CC000501E00F031F80548046001E00120F2E711
:100CD0000020F0E70C0000200000002008000020A9
:100CE00008B500BF002000900E48006840F4804026
:100CF0000C4908600846006800F48040009000BF7E
:100D000000BF00BF00200090081F006840F0805026
:100D1000091F08600846006800F08050009000BF7E
:100D200000BF08BD443802402DE9F05F80460D4603
:100D30001646002700F0FAFE074639462A46334693
:100D400001F00700C0F1070ABAF1040F02D94FF011
:100D5000040A01E0C0F1070AD14600F1040ABAF121
:100D6000070F02D24FF0000A01E0A0F1030AD446B7
:100D70004FF0010A0AFA09FAAAF1010A0AEA020A7C
:100D80000AFA0CFA4FF0010B0BFA0CFBABF1010B5A
:100D90000BEA030B4AEA0B042146404600F0CEFE64
:100DA000BDE8F09F00BF00F00702064B19684FF640
:100DB000FF031940044B0B4343EA0221014B196026
:100DC00000BF70470CED00E00000FA0538B50024C4
:100DD00000BF002000901D48006840F080501B4973
:100DE00008600846006800F08050009000BF00BF17
:100DF000012017490864FFF7E5FD044607E0FFF707
:100E0000E1FD001BB0F57A7F01D9032038BD114800
:100E1000406800F48030B0F5803FF0D101200C49EB
:100E20004864FFF7CFFD044607E0FFF7CBFD001B4A
:100E3000B0F57A7F01D90320E8E70648406800F45E
:100E40000030B0F5003FF0D10020DFE7403802402D
:100E500000000E420070004070B504460D460CB90B
:100E6000012070BD5848006800F00F00A84209D268
:100E700055490D700846006800F00F00A84201D0E7
:100E80000120EEE7207800F0020002281DD1207832
:100E900000F00400042805D14C48006840F4E050FC
:100EA0004A490860207800F00800082805D1474822
:100EB000006840F46040454908604448006820F0FC
:100EC000F000A168084341490860207800F0010063
:100ED000A8B36068012807D13C4808380068C0F30F
:100EE0004040B8B90120BCE76068022802D06068C1
:100EF000032807D1354808380068C0F3406048B976
:100F00000120AEE7314808380068C0F3400008B956
:100F10000120A6E72D48006820F00300616808431F
:100F20002A490860FFF74EFD064609E0FFF74AFD33
:100F3000801B41F28831884202D9032091E707E003
:100F40002248006800F00C006168B0EB810FEDD121
:100F50001D48006800F00F00A84209D91A490D7019
:100F60000846006800F00F00A84201D0012078E791
:100F7000207800F00400042807D11448006820F409
:100F8000E050E168084311490860207800F008004B
:100F9000082808D10D48006820F46040216940EA23
:100FA000C1000A49086000F03FF808490968C1F328
:100FB0000311074A515CC8400649086006480068AA
:100FC000FFF768FE00204CE7003C02400838024072
:100FD00030210008000000200800002001480068BF
:100FE000704700000000002000B5FFF7F7FF04493C
:100FF0000968C1F38221034A515CC84000BD00006A
:10100000083802404021000800B5FFF7E7FF044917
:101010000968C1F34231034A515CC84000BD000079
:1010200008380240402100082DE9F047002400253F
:101030000026A1462548006800F00C0020B10428D5
:1010400005D008283AD105E0DFF8849039E0DFF8D0
:10105000849036E01D48001F006800F03F041B48E4
:10106000001F006800F4800078B11A481749091F72
:101070000968C1F38811A0FB0170014622460023D4
:101080003846FFF7AFF805460EE011480F49091F33
:101090000968C1F38811A0FB0170014622460023B4
:1010A0003846FFF79FF805460848001F0068C0F360
:1010B0000140401C4600B5FBF6F902E0DFF8109055
:1010C00000BF00BF4846BDE8F08700000838024076
:1010D0000024F40040787D01F8B504460CB90120E5
:1010E000F8BD207800F00100002874D0F9480068AD
:1010F00000F00C0004280DD0F648006800F00C0049
:10110000082813D1F348001F006800F48000B0F5F0
:10111000800F0BD1EF4808380068C0F3404000282A
:1011200059D06068002856D10120D9E700BF606817
:10113000B0F5803F08D1E7480838006840F48030B7
:10114000E449083908601EE06068B0F5A02F0DD1B1
:10115000E0480838006840F48020DE49083908601B
:101160000846006840F4803008600CE0D948083830
:10117000006820F48030D7490839086008460068C4
:1011800020F48020086000BF606890B1FFF71AFC6F
:10119000054606E0FFF716FC401B642801D9032032
:1011A0009EE7CC4808380068C0F340400028F1D0E2
:1011B00011E0FFF707FC054606E0FFF703FC401BC4
:1011C000642801D903208BE7C24808380068C0F3BF
:1011D00040400028F1D1207800F0020002285FD1C1
:1011E000BC48006800F00C0058B1BA48006800F034
:1011F0000C0008281CD1B748001F006800F48000CC
:10120000B0B9B44808380068C0F3400020B1E068C5
:10121000012801D0012063E7AE480838006820F0BB
:10122000F800216940EAC100AA490839086037E09E
:10123000E06800B30120A8490860FFF7C3FB05463A
:1012400006E0FFF7BFFB401B022801D9032047E758
:10125000A04808380068C0F340000028F1D09D483D
:101260000838006820F0F800216940EAC100994977
:101270000839086014E0002097490860FFF7A2FBD6
:10128000054606E0FFF79EFB401B022801D903201C
:1012900026E7904808380068C0F340000028F1D1E4
:1012A000207800F0080008282CD16069A8B101203E
:1012B0008A490860FFF786FB054606E0FFF782FBD8
:1012C000401B022801D903200AE782486C300068DD
:1012D000C0F340000028F1D014E000207F490860EE
:1012E000FFF770FB054606E0FFF76CFB401B02288A
:1012F00001D90320F4E677486C300068C0F3400061
:101300000028F1D1207800F00400042870D10027D3
:1013100070483830006800F0805090B900BF00205D
:1013200000906C483830006840F08050694938318E
:1013300008600846006800F08050009000BF00BFC1
:1013400001276748006800F48070B0B964480068FD
:1013500040F4807062490860FFF734FB054606E000
:10136000FFF730FB401B022801D90320B8E65C4898
:10137000006800F480700028F2D000BFA068012847
:1013800008D154486830006840F001005149683184
:1013900008601DE0A06805280DD14E48683000683F
:1013A00040F004004B49683108600846006840F08E
:1013B000010008600CE047486830006820F0010038
:1013C0004449683108600846006820F0040008605D
:1013D00000BFA068A8B1FFF7F5FA054609E0FFF7DE
:1013E000F1FA401B41F28831884202D9032077E6A6
:1013F00026E0384868300068C0F340000028EED08E
:1014000013E0FFF7DFFA054608E0FFF7DBFA401BC1
:1014100041F28831884201D9032061E62D486830C5
:101420000068C0F340000028EFD1012F07D1294800
:101430003830006820F0805026493831086000BFFD
:10144000A069002845D02348006800F00C00082857
:101450005DD0A069022845D100201F490866FFF72A
:10146000B1FA054606E0FFF7ADFA401B022801D9A4
:10147000032035E6174808380068C0F340600028AC
:10148000F1D1D4E907010843616A40EA81110122E0
:10149000A06AC2EB500041EA00412C20005D41EA05
:1014A00000600C49091F086001200B490866FFF71E
:1014B00089FA054606E0FFF785FA401B022801D9A4
:1014C00003200DE6034808380068C0F34060002898
:1014D000F1D049E00838024000004742800E474200
:1014E00000700040002021490866FFF76BFA0546AE
:1014F00006E0FFF767FA401B022801D90320EFE559
:101500001B480068C0F340600028F2D12CE0A069BD
:10151000012800D1E4E51648001D0668A0690128ED
:1015200020D006F48001E06981421BD106F03F0122
:10153000206A814216D147F6C0703040616AB0EB34
:10154000811F0FD106F440310122A06AC2EB500086
:10155000B1EB004F06D106F070612C20005DB1EBBD
:10156000006F01D00120BBE50020B9E50000474233
:101570000038024070B504462546681EB0F1807FF1
:1015800001D301200FE0681E4FF0E02148610F21D8
:101590004FF0FF3000F0D2FA00204FF0E0218861D8
:1015A00007200861002070BD10B504460CB9012069
:1015B00010BDA06900B100E000BF94F83D0028B95B
:1015C000002084F83C00204600F027F8242084F80E
:1015D0003D002068C06820F400502168C8602046A3
:1015E00000F032F92068006920F490402168086119
:1015F0002068406920F02A00216848612068C0689E
:1016000040F400502168C86000202064202084F845
:101610003D0084F83E000020CAE770472DE9F84FEE
:1016200004460E46174699464FF0000A94F83D00CE
:1016300020285AD106B117B90120BDE8F88F00BFA4
:1016400094F83C00012801D10220F6E7012084F83B
:101650003C0000BF00202064212084F83D00FFF7FB
:10166000B1F98246A784E784A068B0F5805F04D111
:10167000206910B90025B04602E035464FF0000859
:1016800000BF002084F83C0000BF1BE0534600224E
:1016900080212046CDF8009000F0ECF908B103203D
:1016A000CBE745B9B8F80000C0F3080021684860EE
:1016B00008F1020803E02878216848606D1CE08C7E
:1016C000401EE084E08C0028E0D1534600224021F7
:1016D0002046CDF8009000F0CDF908B10320ACE72A
:1016E000202084F83D000020A7E70220A5E700BFE6
:1016F000FEE7000000B587B000BF0020019017484A
:10170000006840F08000154908600846006800F055
:101710008000019000BF00BF142102A8FEF7ACFDBD
:101720004FF4E050029001200390002004900590B7
:1017300002A90B48FFF73AF8012291020848FFF787
:101740003BF90122D1020648FFF736F901221103C5
:101750000348FFF731F907B000BD00003038024000
:10176000001C024000BFFEE700BFFEE77047704765
:1017700010B5FFF765FA10BD00B593B0302107A88A
:10178000FEF77AFD142102A8FEF776FD00BF0020C7
:1017900001902648006840F08050244908600846BF
:1017A000006800F08050019000BF00BF00BF002023
:1017B00001901F48006840F440401D4908600846F9
:1017C000006800F44040019000BF00BF0120079076
:1017D0000004089002200D9041050E910F210F91F9
:1017E000D8211091022111910421129107A8FFF72D
:1017F00073FC08B1FEF795FDFFF7E8FA08B1FEF7B4
:1018000090FD0F20029002200390002004904FF4DE
:10181000A05005904FF480500690052102A8FFF7D4
:101820001BFB08B1FEF77DFD13B000BD4038024040
:10183000007000400348006840F4700001490860EF
:101840007047000088ED00E02DE9F84F044620685D
:10185000006920F44050E16808432168086121696B
:10186000A068084361690843E16908430090206863
:10187000C06849F20C618843009908432168C86038
:101880002068406920F44070A169084321684861DC
:1018900076492068884203D075492068884203D180
:1018A000FFF7B2FB814602E0FFF79EFB8146E0694D
:1018B000B0F5004F6CD102206168A0FB01500346D7
:1018C0001920A9FB007001462A463846FEF78AFC1B
:1018D0006421B0FBF1F04FEA001A02206168A0FB1E
:1018E00001510B461920A9FB00712A463846FEF724
:1018F00079FC834602206168A0FB01500346192051
:10190000A9FB00712A463846FEF76CFC6421B0FB47
:10191000F1F000EBC00101EB0010ABEB80003221D5
:1019200001EBC0006421B0FBF1F000F0F8000AEB1D
:10193000400A02206168A0FB015003461920A9FB60
:10194000007001462A463846FEF74CFC83460220CA
:101950006168A0FB015003461920A9FB00712A46CB
:101960003846FEF73FFC6421B0FBF1F000EBC0010C
:1019700001EB0010ABEB8000322101EBC0006421D1
:10198000B0FBF1F000F007005044216888606AE085
:1019900004206168A0FB015003461920A9FB0070D8
:1019A00001462A463846FEF71DFC8246042061683F
:1019B000A0FB015003461920A9FB007001462A46EE
:1019C0003846FEF70FFC6421B0FBF1F000EBC001DC
:1019D00001EB0010AAEB8000322101EB0010642122
:1019E000B0FBF1F000F0F00A04206168A0FB017088
:1019F00003461920A9FB00513A462846FEF7F2FBA0
:101A00006421B0FBF1F00AEB001A04206168A0FB2E
:101A100001510B461920A9FB00712A463846FEF7F2
:101A2000E1FB834604206168A0FB015003461920B6
:101A3000A9FB007001462A463846FEF7D3FB642115
:101A4000B0FBF1F000EBC00101EB0010ABEB80004C
:101A5000322101EB00106421B0FBF1F000F00F0027
:101A6000504421688860BDE8F88F000000100140F4
:101A7000001401402DE9F04104460D4617469846F2
:101A8000069E34E0701C88B32EB1FEF79BFFA0EBDE
:101A90000800B0422BD900BF00BF21680C3151E8CB
:101AA000001F21F4D07021680C3141E80002002AA7
:101AB000F3D100BF00BF00BF2168143151E8001FFF
:101AC00021F001002168143141E80002002AF3D11D
:101AD00000BF202084F83D0084F83E0000BF0020B5
:101AE00084F83C0000BF0320BDE8F081FFE72068D8
:101AF00000682840A84201D1012000E00020B8423F
:101B0000C0D00020F0E700BFFEE700000FB4054B97
:101B100010B503A9044A029800F034F810BC5DF82F
:101B200014FB00003D1D0008100000200248006862
:101B3000C0F30220704700000CED00E010B5002853
:101B400004DB0A07130E054A135406E00A07140EB5
:101B5000034A00F00F031B1FD45410BD00E400E043
:101B600018ED00E002E008C8121F08C1002AFAD1EF
:101B700070477047002001E001C1121F002AFBD10D
:101B8000704700002DE9FF4F8BB09A460F4605467F
:101B9000002606E025280BD052460D9990476D1C73
:101BA000761C28780028F5D10FB03046BDE8F08FBC
:101BB0000024A0460122604900E0044315F8013FDB
:101BC000203B02FA03F00842F7D128782E2817D1DB
:101BD00015F8010F44F004042A280ED06FF02F02EC
:101BE0002878A0F1300109290AD808EB880102EB16
:101BF000410100EB01086D1CF2E757F8048B6D1CE6
:101C0000287869283ED006DC0028CDD063280BD088
:101C1000642804D136E0732810D075284BD0524682
:101C20000D999047761C85E017F8040B8DF800009D
:101C300000208DF80100E946012003E057F8049BDD
:101C40004FF0FF3061074FF0000401D40AE0641C3C
:101C500044450DDA8442FADB19F804100029F6D164
:101C600006E0641C8442FCDB19F804100029F8D15A
:101C7000264404E019F8010B52460D999047641E62
:101C8000F8D257E001CF4FF00A0B002802DA4042A9
:101C90002D2102E0210504D52B218DF824100121EE
:101CA00003E0E10705D02021F7E70DF120090891B5
:101CB0000CE00021F9E701CF4FF00A0BF9E7594694
:101CC000FEF7E5FA01F1300209F8012D0028F6D1FE
:101CD000ADEB090000F1200B600701D44FF00108C3
:101CE000D84502DDA8EB0B0000E000208046002470
:101CF00006E009A85246005D0D999047641C761CC9
:101D000008988442F5DB04E0302052460D99904754
:101D1000761CB8F10001A8F10108F5DC05E019F81E
:101D2000010B52460D999047761CBBF10001ABF1B7
:101D3000010BF4DC6D1C34E70928010038B50446BA
:101D40000D4600944FF47A73012269460248FFF76A
:101D500065FC204638BD00001400002000B587B0A7
:101D600000BF002001901148006840F001000F49B9
:101D700008600846006800F00100019000BF00BF45
:101D8000142102A8FEF778FA4FF4C06002900220F6
:101D9000039000200490032005900720069002A9DC
:101DA0000348FEF703FD07B000BD000030380240D5
:101DB0000000024008B500BF0020009010480068F5
:101DC00040F010000E4908600846006800F010005E
:101DD000009000BF00BFFFF7C1FF0A480A49086032
:101DE0004FF4E1304860002107488160C160016123
:101DF0000C21416100218161C161FFF7D5FB08BD64
:101E000044380240001001401400002001461C48E4
:101E1000814201D2002070471A48814201D201203C
:101E2000F9E71948814201D20220F4E717488142BC
:101E300001D20320EFE71648814201D20420EAE7ED
:101E40001448814201D20520E5E71348814201D2BE
:101E50000620E0E71148814201D20720DBE7104865
:101E6000814201D20820D6E70E48814201D20920E2
:101E7000D1E70D48814201D20A20CCE70B20CAE706
:101E8000004000080080000800C0000800000108B1
:101E9000000002080000040800000608000008080E
:101EA00000000A0800000C0800000E0800B587B00A
:101EB000142102A8FEF7E0F900BF002001901948A4
:101EC000006840F00200174908600846006800F00A
:101ED0000200019000BF00BF00BF00200190084633
:101EE000006840F0020008600846006800F0020048
:101EF000019000BF00BF1220039000200490032037
:101F00000590042006904020029002A90648FEF7A2
:101F10004DFC8020029002A90348FEF747FC07B061
:101F200000BD0000303802400004024008B500BF88
:101F3000002000901648006840F400101449086022
:101F40000846006800F40010009000BF00BFFFF7D3
:101F5000ADFF1048104908601048486000210E4845
:101F600081604FF48041016100214161C1610162E2
:101F70000A21C16000218161FEF778FD0021064839
:101F8000FEF726FD00210448FEF748FD08BD0000CD
:101F9000403802400054004058000020A086010054
:101FA00070B586B006460C46002500200590FEF769
:101FB000E3FB00200090022004903046FFF726FF4C
:101FC00002902046FFF722FF02463046FFF71EFF31
:101FD000101A401C039005A96846FEF71FFB054632
:101FE00015B108A0FFF792FD41F28830FEF7E4FA40
:101FF000054615B108A0FFF789FDFEF767FB06B09F
:1020000070BD0000666C6173682065726173652045
:102010006572726F720A0000666C61736820776186
:102020006974666F726572617365206572726F7232
:102030000A0000002DE9F04704460D4616464FF011
:102040000008274607EB4609B4F1006F02D304F0FD
:10205000030008B1BDE8F087FEF78EFB10E0B5F88D
:1020600000C06246002321460120FEF739FB80466E
:10207000B8F1000F02D005A0FFF748FDA41CAD1C6D
:102080004C45ECD3FEF722FB00BFE3E7666C6173BF
:10209000682070726F6772616D206572726F720A6C
:1020A0000000000030B58BB01422124906A8FEF7DC
:1020B000CAF8114D11492846FFF772FF0A2206A9F6
:1020C0002846FFF7B7FF00240CE0288801A921F873
:1020D0001400AD1C01A830F81420214608A0FFF719
:1020E00015FD641C0A2CF0DB09A0FFF70FFD0BB0F7
:1020F00030BD000048210008000004080000060868
:1021000052627566665B25645D3D202564000000B3
:102110000A000000FEF7A0FDFFF72EFBFFF7EAFA2A
:10212000FFF748FEFFF702FFFFF7BCFF00BFFEE727
:102130000000000000000000010203040607080977
:1021400000000000010203043702A6021503570431
:10215000AE08050D5C11B3150A1A611E7C2100083A
:102160000000002014000000641B000890210008FB
:1021700014000020BC040000741B00080024F400BC
:10218000000000001000000001000000000000003E
:04000005080001AD41
:00000001FF
