:020000040800F2
:1000000028050020C1010008791E0008FD1800081D
:10001000751E0008CD02000817220008000000002D
:100020000000000000000000000000007F1E00082B
:10003000D1020008000000007D1E0008811E00089B
:10004000DB010008DB010008DB010008DB01000820
:10005000DB010008DB010008DB010008DB01000810
:10006000DB010008DB010008DB010008DB01000800
:10007000DB010008DB010008DB010008DB010008F0
:10008000DB010008DB010008DB010008DB010008E0
:10009000DB010008DB010008DB010008DB010008D0
:1000A000DB010008DB010008DB010008DB010008C0
:1000B000DB010008DB010008DB010008DB010008B0
:1000C000DB010008DB010008DB010008DB010008A0
:1000D000DB010008DB010008DB010008DB01000890
:1000E000DB010008DB010008DB010008DB01000880
:1000F000DB010008DB010008DB010008DB01000870
:10010000DB010008DB010008DB010008DB0100085F
:10011000DB010008DB010008DB010008DB0100084F
:10012000DB010008DB010008DB010008DB0100083F
:10013000DB010008DB010008DB010008DB0100082F
:10014000DB010008DB010008DB010008DB0100081F
:10015000DB010008DB010008DB010008DB0100080F
:10016000DB010008DB010008DB010008DB010008FF
:10017000DB010008DB010008DB01000800000000D3
:10018000DB010008DB010008DB010008DB010008DF
:10019000DB010008DB010008DB010008DB010008CF
:1001A000DB010008DB010008DB010008DFF80CD0F0
:1001B00000F07AF800480047F929000828050020D7
:1001C0000648804706480047FEE7FEE7FEE7FEE7F1
:1001D000FEE7FEE7FEE7FEE7FEE7FEE7451F000855
:1001E000AD0100082DE9F05F0546002092469B46D0
:1001F00088460646814640241BE02846414647463D
:10020000224600F041F853465A46C01A914110D395
:1002100011461846224600F028F82D1A67EB01080F
:100220004F4622460120002100F01FF817EB00097D
:100230004E41201EA4F10104DFDC484631462A4627
:100240004346BDE8F09FD2B201E000F8012B491E01
:10025000FBD270470022F6E710B513460A46044663
:100260001946FFF7F0FF204610BD202A04DB203A94
:1002700000FA02F1002070479140C2F1200320FAF9
:1002800003F3194390407047202A04DB203A21FAF7
:1002900002F00021704721FA02F3D040C2F120029F
:1002A0009140084319467047064C074D06E0E06848
:1002B00040F0010394E8070098471034AC42F6D3AD
:1002C000FFF778FF582B0008782B000800BFFEE7E7
:1002D000704772B600BFFEE7F8B502460B46002530
:1002E000002400200021DFE0012606FA01F51E6847
:1002F00006EA0504AC4274D11E7906F00306012E0D
:1003000004D01E7906F00306022E13D190684F0028
:100310000326BE40B0434F00DE68BE4030439060CD
:10032000506801268E40B0431E79C6F300168E40F9
:10033000304350601E7906F00306032E09D0D068C2
:100340004F000326BE40B0434F009E68BE4030437E
:10035000D0601E7906F00306022E13D1CF0802F1F9
:10036000200656F827004E07F70E0F26BE40B04372
:100370004F07FF0E1E69BE403043CF0802F1200632
:1003800046F8270010684F000326BE40B0431E7990
:1003900006F003064F00BE40304310605E6806F46E
:1003A0004036002E7FD000BF00260096404E3668B3
:1003B00046F480463E4F3E603E46366806F4804630
:1003C000009600BF00BF3B4E8F0856F827008E07EF
:1003D000370F0F26BE40B043374EB24202D100263F
:1003E0002EE060E0354EB24201D1012628E0344EC5
:1003F000B24201D1022623E0324EB24201D103269D
:100400001EE0314EB24201D1042619E02F4EB24215
:1004100001D1052614E02E4EB24201D106260FE08E
:100420002C4EB24201D107260AE02B4EB24201D136
:10043000082605E0294EB24201D1092600E00A262D
:100440008F073F0FBE4030431A4E8F0846F82700F3
:10045000234E3068A0435E6806F4803606B1204320
:100460001F4E3060361D3068A0435E6806F40036CB
:1004700006B120431A4E361D3060361D3068A04349
:100480005E6806F4801606B12043154E08363060CB
:10049000361D3068A0435E6806F4001606B120439E
:1004A0000F4E0C363060491C1029FFF41DAFF8BD0B
:1004B0004438024008380140000002400004024075
:1004C00000080240000C02400010024000140240EC
:1004D00000180240001C024000200240002402409C
:1004E000003C01400AB1816101E00B048361704767
:1004F000014800687047000004000020024692F89E
:100500003D0020281ED1242082F83D00106800689C
:1005100020F00100136818601068406A20F0100095
:10052000136858621068406A08431368586210687C
:10053000006840F0010013681860202082F83D0038
:10054000002070470220FCE710B502460B46002150
:1005500092F83D0020281DD1242082F83D0010682B
:10056000006820F00100146820601068406A81B2C1
:1005700021F00F0141EA030081B210684162106866
:10058000006840F0010014682060202082F83D00DF
:10059000002010BD0220FCE7014691F83D007047A5
:1005A00070B504460CB9012070BD94F83D0028B91F
:1005B000002084F83C00204600F0E2FB242084F870
:1005C0003D002068006820F0010021680860206874
:1005D000006840F40040216808602068006820F44A
:1005E00000402168086000F0A1FD05465C49606894
:1005F000884206D85B48854201D2012007E00020EE
:1006000005E05948854201D2012000E00020012880
:1006100000D1C9E75548B5FBF0F62068406820F0E6
:100620003F003043216848604D496068884201D8E6
:10063000701C07E04FF4967070434FF47A71B0FB72
:10064000F1F0401C2168096A21F03F01084321684C
:10065000086243496068884214D8681E616849008E
:10066000B0FBF1F0401CC0F30B00042801D20420C1
:100670003DE0681E61684900B0FBF1F0401CC0F32A
:100680000B0034E0A06838B9681E616801EB4101D5
:10069000B0FBF1F0401C0AE0681E616801EBC1028A
:1006A00002EB0111B0FBF1F0401C40F48040C0F3BC
:1006B0000B0008B901201AE0A06848B9681E6168FB
:1006C00001EB4101B0FBF1F0401CC0F30B000CE06A
:1006D000681E616801EBC10202EB0111B0FBF1F091
:1006E000401CC0F30B0040F4804040F400402168FF
:1006F000C9694CF6FF72914308432168C861D4E987
:10070000070108432168096821F0C00108432168F6
:100710000860D4E9031008432168896848F2FF3271
:100720009143084321688860D4E9050108432168A2
:10073000C96821F0FF0108432168C860206800688B
:1007400040F001002168086000202064202084F827
:100750003D000020206384F83E0000BF24E7000035
:10076000A086010080841E0000093D0040420F0069
:100770002DE9F84F04460F4690461E46FFF7B8FE97
:1007800005464FF0010994F83D0020287ED1192339
:10079000012263492046009501F020FA10B10220A1
:1007A000BDE8F88F00BF94F83C00012801D1022079
:1007B000F6E7012084F83C0000BF2068006800F0E4
:1007C000010028B92068006840F001002168086035
:1007D0002068006820F4006021680860242084F804
:1007E0003D00002020644F48E06200BF20680068A0
:1007F00040F4807021680860334600224FF00111F8
:100800002046009501F0EAF958B12068006800F42C
:100810008070B0F5807F02D14FF400702064032017
:10082000BEE707F0FE0021680861FFF761FE05469C
:1008300020684069C0F3400A20684069C0F3802BFB
:1008400010E0FFF755FE401BB04200D816B9A020BB
:1008500084F83D0020684069C0F3400A2068406980
:10086000C0F3802B94F83D00A02805D0BAF1000F0A
:1008700002D1BBF1000FE4D0202084F83D002068B5
:100880004069C0F3400028B3206800E045E00068FC
:1008900040F400702168086000BF002000902068CC
:1008A0004069009020688069009000BF00BF192354
:1008B00001221B492046009501F090F908B1012062
:1008C0006EE7202084F83D0000BF002084F83C0043
:1008D00000BF65E72068006840F400702168086088
:1008E0006FF4806021684861192301220C49204679
:1008F000009501F073F908B1012051E709F10109F0
:10090000C145FFF473AF202084F83D0000BF0020F4
:1009100084F83C0000BF012042E7022040E70000CD
:10092000020010000000FFFF2DE9FC5F04460F46A7
:1009300090469946DDE90CAB0E9EFFF7D9FD0546C2
:1009400094F83D00202870D119230122B049204697
:10095000009501F043F910B10220BDE8FC9F00BFF3
:1009600094F83C00012801D10220F6E7012084F828
:100970003C0000BF2068006800F0010028B9206832
:10098000006840F00100216808602068006820F4D9
:10099000006021680860222084F83D00402084F82F
:1009A0003E0000202064C4F824A0A4F82AB0608D82
:1009B00020859848E0624B46424639462046CDE9BC
:1009C000006500F0BDFF08B10120C6E7208D88B9A1
:1009D00000BF002001902068406901902068806974
:1009E000019000BF00BF2068006840F400702168DB
:1009F000086040E0208D012818D12068006820F4AC
:100A000080602168086000BF002001902068406974
:100A1000019020688069019000BF00BF20680068D5
:100A200040F400702168086025E0EFE0208D022886
:100A300016D12068006820F4806021680860206872
:100A4000006840F400602168086000BF0020019049
:100A500020684069019020688069019000BF0AE029
:100A600000BF0020019020684069019020688069E3
:100A7000019000BF00BFBAE0208D03287ED8208DF2
:100A8000012815D12A463146204601F04CF908B11B
:100A9000012062E720680069616A0870606A401C92
:100AA0006062208D401E2085608D401E60859EE026
:100AB000208D02282AD1334600225749204600952E
:100AC00001F08CF808B1012047E72068006840F485
:100AD00000702168086020680069616A0870606AB7
:100AE000401C6062208D401E2085608D401E608508
:100AF00020680069616A0870606A401C6062208D2D
:100B0000401E2085608D401E608570E033460022C7
:100B100041492046009501F061F808B101201CE729
:100B20002068006820F480602168086020680069FF
:100B3000616A0870606A401C6062208D401E2085DA
:100B4000608D401E60853346002233492046009563
:100B500001F044F808B10120FFE62068006840F485
:100B600000702168086020680069616A0870606A26
:100B7000401C6062208D401E208500E010E0608DEA
:100B8000401E608520680069616A0870606A401CC8
:100B90006062208D401E2085608D401E608526E0AD
:100BA0002A463146204601F0BEF808B10120D4E6BD
:100BB00020680069616A0870606A401C6062208D6C
:100BC000401E2085608D401E608520684069C0F30E
:100BD000800060B120680069616A0870606A401C2A
:100BE0006062208D401E2085608D401E6085208DB6
:100BF00000287FF441AF202084F83D00002084F8D5
:100C00003E0000BF84F83C0000BFA6E60220A4E638
:100C1000020010000000FFFF040001002DE9FC5F4E
:100C200004460F4690469946DDE90CAB0E9EFFF751
:100C30005FFC054694F83D0020287DD11923012250
:100C40004D492046009500F0C9FF10B10220BDE8D3
:100C5000FC9F00BF94F83C00012801D10220F6E778
:100C6000012084F83C0000BF2068006800F001000B
:100C700028B92068006840F00100216808602068F9
:100C8000006820F4006021680860212084F83D009D
:100C9000402084F83E0000202064C4F824A0A4F87A
:100CA0002AB0608D20853548E0624B464246394681
:100CB0002046CDE9006500F0F3FE08B10120C6E74B
:100CC00031E02A463146204601F06DF850B1206CE3
:100CD000042805D12068006840F40070216808608D
:100CE0000120B4E7606A007821680861606A401CEE
:100CF0006062208D401E2085608D401E60852068CA
:100D00004069C0F3800070B1208D60B1606A0078E6
:100D100021680861606A401C6062208D401E208549
:100D2000608D401E6085208D0028CAD12A4631463C
:100D3000204600F025FF00E01CE050B1206C0428A4
:100D400005D12068006840F4007021680860012027
:100D50007DE72068006840F400702168086020206A
:100D600084F83D00002084F83E0000BF84F83C0079
:100D700000BF6CE702206AE7020010000000FFFFDE
:100D80007047000003480068034909780844014996
:100D900008607047040000200C00002010B50D48CA
:100DA000006840F400700B4908600846006840F491
:100DB000806008600846006840F480700860032086
:100DC00000F092F80F2000F007F800F02BF8002058
:100DD00010BD0000003C024070B504460E4800788B
:100DE0004FF47A71B1FBF0F00C490968B1FBF0F5F2
:100DF000284600F0C6FC08B1012070BD102C07D2B7
:100E000000222146501E00F031F80548046001E040
:100E10000120F2E70020F0E70C0000200000002095
:100E20000800002008B500BF002000900E480068B0
:100E300040F480400C4908600846006800F4804097
:100E4000009000BF00BF00BF00200090081F006896
:100E500040F08050091F08600846006800F080508C
:100E6000009000BF00BF08BD443802402DE9F05F8C
:100E700080460D461646002701F0E0F90746394640
:100E80002A46334601F00700C0F1070ABAF1040F01
:100E900002D94FF0040A01E0C0F1070AD14600F17F
:100EA000040ABAF1070F02D24FF0000A01E0A0F1E4
:100EB000030AD4464FF0010A0AFA09FAAAF1010A14
:100EC0000AEA020A0AFA0CFA4FF0010B0BFA0CFBC1
:100ED000ABF1010B0BEA030B4AEA0B042146404637
:100EE00001F0B4F9BDE8F09F00BF00F00702064B27
:100EF00019684FF6FF031940044B0B4343EA0221E4
:100F0000014B196000BF70470CED00E00000FA05CE
:100F100038B5002400BF002000901D48006840F054
:100F200080501B4908600846006800F0805000901F
:100F300000BF00BF012017490864FFF7D9FA044633
:100F400007E0FFF7D5FA001BB0F57A7F01D903203F
:100F500038BD1148406800F48030B0F5803FF0D1D2
:100F600001200C494864FFF7C3FA044607E0FFF785
:100F7000BFFA001BB0F57A7F01D90320E8E70648E5
:100F8000406800F40030B0F5003FF0D10020DFE70A
:100F90004038024000000E420070004070B5044628
:100FA0000D460CB9012070BD5848006800F00F00D4
:100FB000A84209D255490D700846006800F00F009C
:100FC000A84201D00120EEE7207800F002000228BC
:100FD0001DD1207800F00400042805D14C48006899
:100FE00040F4E0504A490860207800F008000828E2
:100FF00005D14748006840F46040454908604448CE
:10100000006820F0F000A16808434149086020789A
:1010100000F00100A8B36068012807D13C480838F7
:101020000068C0F34040B8B90120BCE760680228FE
:1010300002D06068032807D1354808380068C0F33B
:10104000406048B90120AEE7314808380068C0F375
:10105000400008B90120A6E72D48006820F00300F1
:10106000616808432A490860FFF742FA064609E02A
:10107000FFF73EFA801B41F28831884202D90320F3
:1010800091E707E02248006800F00C006168B0EBCF
:10109000810FEDD11D48006800F00F00A84209D96A
:1010A0001A490D700846006800F00F00A84201D0F0
:1010B000012078E7207800F00400042807D11448C4
:1010C000006820F4E050E168084311490860207886
:1010D00000F00800082808D10D48006820F460409E
:1010E000216940EAC1000A49086000F03FF8084958
:1010F0000968C1F30311074A515CC84006490860FA
:1011000006480068FFF768FE00204CE7003C0240FC
:1011100008380240402B0008000000200800002092
:1011200001480068704700000000002000B5FFF78C
:10113000F7FF04490968C1F38221034A515CC840A2
:1011400000BD000008380240502B000800B5FFF732
:10115000E7FF04490968C1F34231034A515CC840C2
:1011600000BD000008380240502B00082DE9F04770
:10117000002400250026A1462548006800F00C0048
:1011800020B1042805D008283AD105E0DFF8849082
:1011900039E0DFF8849036E01D48001F006800F059
:1011A0003F041B48001F006800F4800078B11A4813
:1011B0001749091F0968C1F38811A0FB0170014696
:1011C000224600233846FFF70DF805460EE0114889
:1011D0000F49091F0968C1F38811A0FB017001467E
:1011E000224600233846FEF7FDFF05460848001F4B
:1011F0000068C0F30140401C4600B5FBF6F902E070
:10120000DFF8109000BF00BF4846BDE8F08700003F
:10121000083802400024F40040787D01F8B5044607
:101220000CB90120F8BD207800F00100002874D02E
:10123000F948006800F00C0004280DD0F64800685A
:1012400000F00C00082813D1F348001F006800F4D8
:101250008000B0F5800F0BD1EF4808380068C0F36C
:101260004040002859D06068002856D10120D9E7B5
:1012700000BF6068B0F5803F08D1E74808380068D3
:1012800040F48030E449083908601EE06068B0F539
:10129000A02F0DD1E0480838006840F48020DE49D6
:1012A000083908600846006840F4803008600CE0A7
:1012B000D9480838006820F48030D74908390860D8
:1012C0000846006820F48020086000BF606890B184
:1012D000FFF70EF9054606E0FFF70AF9401B642800
:1012E00001D903209EE7CC4808380068C0F340408D
:1012F0000028F1D011E0FFF7FBF8054606E0FFF704
:10130000F7F8401B642801D903208BE7C24808384E
:101310000068C0F340400028F1D1207800F00200BE
:1013200002285FD1BC48006800F00C0058B1BA48F0
:10133000006800F00C0008281CD1B748001F0068A6
:1013400000F48000B0B9B44808380068C0F3400029
:1013500020B1E068012801D0012063E7AE480838D9
:10136000006820F0F800216940EAC100AA49083964
:10137000086037E0E06800B30120A8490860FFF783
:10138000B7F8054606E0FFF7B3F8401B022801D97D
:10139000032047E7A04808380068C0F34000002851
:1013A000F1D09D480838006820F0F800216940EA33
:1013B000C10099490839086014E000209749086085
:1013C000FFF796F8054606E0FFF792F8401B022863
:1013D00001D9032026E7904808380068C0F3400090
:1013E0000028F1D1207800F0080008282CD160698D
:1013F000A8B101208A490860FFF77AF8054606E09F
:10140000FFF776F8401B022801D903200AE782483B
:101410006C300068C0F340000028F1D014E00020D8
:101420007F490860FFF764F8054606E0FFF760F8BB
:10143000401B022801D90320F4E677486C3000688D
:10144000C0F340000028F1D1207800F00400042807
:1014500070D1002770483830006800F0805090B993
:1014600000BF002000906C483830006840F0805089
:101470006949383108600846006800F080500090E3
:1014800000BF00BF01276748006800F48070B0B952
:101490006448006840F4807062490860FFF728F8EB
:1014A000054606E0FFF724F8401B022801D9032077
:1014B000B8E65C48006800F480700028F2D000BFF5
:1014C000A068012808D154486830006840F0010045
:1014D0005149683108601DE0A06805280DD14E48CB
:1014E0006830006840F004004B49683108600846E5
:1014F000006840F0010008600CE047486830006870
:1015000020F001004449683108600846006820F076
:101510000400086000BFA068A8B1FEF7E9FF054617
:1015200009E0FEF7E5FF401B41F28831884202D90D
:10153000032077E626E0384868300068C0F34000B2
:101540000028EED013E0FEF7D3FF054608E0FEF7D3
:10155000CFFF401B41F28831884201D9032061E668
:101560002D4868300068C0F340000028EFD1012FFB
:1015700007D129483830006820F08050264938319A
:10158000086000BFA069002845D02348006800F02B
:101590000C0008285DD0A069022845D100201F4911
:1015A0000866FEF7A5FF054606E0FEF7A1FF401B13
:1015B000022801D9032035E6174808380068C0F32F
:1015C00040600028F1D1D4E907010843616A40EA8C
:1015D00081110122A06AC2EB500041EA00412C2097
:1015E000005D41EA00600C49091F086001200B49B9
:1015F0000866FEF77DFF054606E0FEF779FF401B13
:10160000022801D903200DE6034808380068C0F31A
:1016100040600028F1D049E008380240000047420D
:10162000800E474200700040002021490866FEF706
:101630005FFF054606E0FEF75BFF401B022801D96D
:101640000320EFE51B480068C0F340600028F2D19A
:101650002CE0A069012800D1E4E51648001D0668C9
:10166000A069012820D006F48001E06981421BD1E5
:1016700006F03F01206A814216D147F6C070304023
:10168000616AB0EB811F0FD106F440310122A06ADC
:10169000C2EB5000B1EB004F06D106F070612C2078
:1016A000005DB1EB006F01D00120BBE50020B9E582
:1016B000000047420038024010B504460CB9012032
:1016C00010BD606A38B96068B0F5827F00D105E06E
:1016D0000021E16102E00021216161610021A1623C
:1016E00094F8510028B9002084F85000204600F0FA
:1016F00047F8022084F851002068006820F040007C
:1017000021680860A08800F48270218901F40441F6
:101710000843A18901F400610843217C01F0020122
:101720000843217D01F001010843218B01F4007180
:101730000843217F01F0380108432021095D01F0B1
:1017400080010843218D01F400510843216808609D
:101750000421A06901EA104094F8241001F010015E
:101760000843216848602068C06920F4006021684F
:10177000C86100206065012084F8510000209FE7C7
:10178000704770B504462546681EB0F1807F01D3CE
:1017900001200FE0681E4FF0E02148610F214FF05B
:1017A000FF3000F053FD00204FF0E021886107205A
:1017B0000861002070BD10B504460CB9012010BDB1
:1017C000A06900B100E000BF94F83D0028B90020F6
:1017D00084F83C00204600F027F8242084F83D00DF
:1017E0002068C06820F400502168C860204600F0DE
:1017F000B3FB2068006920F49040216808612068EC
:10180000406920F02A00216848612068C06840F4DF
:1018100000502168C86000202064202084F83D002A
:1018200084F83E000020CAE770472DE9F84F0446CF
:101830000E46174699464FF0000A94F83D002028BE
:101840005AD106B117B90120BDE8F88F00BF94F84E
:101850003C00012801D10220F6E7012084F83C0079
:1018600000BF00202064212084F83D00FEF740FEE8
:101870008246A784E784A068B0F5805F04D1206920
:1018800010B90025B04602E035464FF0000800BF11
:10189000002084F83C0000BF1BE05346002280215A
:1018A0002046CDF8009000F06DFC08B10320CBE796
:1018B00045B9B8F80000C0F308002168486008F195
:1018C000020803E02878216848606D1CE08C401E07
:1018D000E084E08C0028E0D15346002240212046DD
:1018E000CDF8009000F04EFC08B10320ACE72020BA
:1018F00084F83D000020A7E70220A5E700BFFEE72F
:10190000014608684069C0F38020B0B16FF4806080
:101910000A68506100200863202081F83D00002003
:1019200081F83E00086C40F00400086400BF00200D
:1019300081F83C0000BF012070470020FCE7000058
:101940002DE9F84304460F4615469946DDE9088619
:101950002068006840F480602168086020680068A2
:1019600040F4807021680860434600224FF0011166
:101970002046009600F032F960B12068006800F45B
:101980008070B0F5807F02D14FF400702064032096
:10199000BDE8F88307F0FE0021680861334642463F
:1019A0003E49204600F05DF908B10120F0E700BF94
:1019B00000200090206840690090206880690090B5
:1019C00000BF00BF32464146204600F0ECF950B15E
:1019D000206C042805D12068006840F4007021685C
:1019E00008600120D4E7B9F1010F03D1E8B2216802
:1019F000086117E0C5F307202168086132464146B7
:101A0000204600F0D0F950B1206C042805D12068A0
:101A1000006840F40070216808600120B8E7E8B26F
:101A20002168086132464146204600F0BCF950B1B9
:101A3000206C042805D12068006840F400702168FB
:101A400008600120A4E72068006840F480702168E5
:101A50000860434600224FF001112046009600F036
:101A6000BDF858B12068006800F48070B0F5807F40
:101A700002D14FF400702064032089E7F8B240F0EF
:101A8000010021680861334642460449204600F0BF
:101A9000E8F808B101207BE7002079E702000100A7
:101AA0002DE9F8430446884615469946DDE908675E
:101AB0002068006840F48070216808603346002286
:101AC0004FF001112046009700F088F860B12068BF
:101AD000006800F48070B0F5807F02D14FF4007090
:101AE00020640320BDE8F88308F0FE002168086147
:101AF0003B4632462149204600F0B3F808B10120A8
:101B0000F0E700BF00200090206840690090206846
:101B10008069009000BF00BF3A463146204600F081
:101B200042F950B1206C042805D12068006840F4C7
:101B30000070216808600120D4E7B9F1010F03D1DA
:101B4000E8B22168086117E0C5F307202168086141
:101B50003A463146204600F026F950B1206C042860
:101B600005D12068006840F40070216808600120F9
:101B7000B8E7E8B2216808610020B3E7020001007D
:101B800070B504460D46164620E02046FFF7B8FE25
:101B900008B1012070BD681CC0B1FEF7A9FC801B14
:101BA000A84200D895B900202063202084F83D0089
:101BB000002084F83E00206C40F02000206400BF2C
:101BC000002084F83C0000BF0120E3E72068406962
:101BD000C0F380000028D8D00020DBE72DE9F041D9
:101BE00004460D4617461E46DDF818801CE0701CA2
:101BF000D0B1FEF77DFCA0EB0800B04200D89EB942
:101C000000202063202084F83D00002084F83E005E
:101C1000206C40F02000206400BF002084F83C00CD
:101C200000BF0120BDE8F081C5F3074001280AD1BB
:101C300020684069A9B20840A9B2884201D10120B8
:101C40000BE0002009E020688069A9B20840A9B231
:101C5000884201D1012000E00020B842C7D0002016
:101C6000E0E72DE9F04104460D4616461F463DE0EB
:101C700020684069C0F38020E8B12068006840F423
:101C80000070216808606FF480602168486100205E
:101C90002063202084F83D00002084F83E00206C62
:101CA00040F00400206400BF002084F83C0000BF26
:101CB0000120BDE8F081701CC0B1FEF719FCC01B0B
:101CC000B04200D896B900202063202084F83D005F
:101CD000002084F83E00206C40F02000206400BF0B
:101CE000002084F83C0000BF0120E2E7C5F3074074
:101CF00001280AD120684069A9B20840A9B28842E7
:101D000001D101200BE0002009E020688069A9B220
:101D10000840A9B2884201D1012000E0002000283B
:101D2000A6D00020C5E770B504460D46164632E041
:101D300020684069C0F30010A0B16FF01000216866
:101D4000486100202063202084F83D00002084F8B2
:101D50003E00206C206400BF002084F83C0000BFDF
:101D6000012070BDFEF7C4FB801BA84200D895B9C6
:101D700000202063202084F83D00002084F83E00ED
:101D8000206C40F02000206400BF002084F83C005C
:101D900000BF0120E5E720684069C0F380100028FB
:101DA000C6D00020DDE770B504460D46164620E09B
:101DB0002046FFF7A5FD08B1012070BD681CC0B129
:101DC000FEF796FB801BA84200D895B9002020633F
:101DD000202084F83D00002084F83E00206C40F074
:101DE0002000206400BF002084F83C0000BF0120D8
:101DF000E3E720684069C0F3C0100028D8D0002075
:101E0000DBE7000000B587B000BF00200190174855
:101E1000006840F08000154908600846006800F03E
:101E20008000019000BF00BF142102A8FEF712FA43
:101E30004FF4E050029001200390002004900590A0
:101E400002A90B48FEF748FA012291020848FEF762
:101E500049FB0122D1020648FEF744FB012211038F
:101E60000348FEF73FFB07B000BD000030380240DA
:101E7000001C024000BFFEE700BFFEE7704770474E
:101E800010B5FEF77FFF10BD00B593B0302107A855
:101E9000FEF7E0F9142102A8FEF7DCF900BF0020EC
:101EA00001902648006840F08050244908600846A8
:101EB000006800F08050019000BF00BF00BF00200C
:101EC00001901F48006840F440401D4908600846E2
:101ED000006800F44040019000BF00BF012007905F
:101EE0000004089002200D9041050E910F210F91E2
:101EF000D8211091022111910421129107A8FFF716
:101F00008DF908B1FEF7E5F9FFF702F808B1FEF721
:101F1000E0F90F20029002200390002004904FF47B
:101F2000A05005904FF480500690052102A8FFF7BD
:101F300035F808B1FEF7CDF913B000BD40380240C6
:101F4000007000400348006840F4700001490860D8
:101F50007047000088ED00E02DE9F84F0446206846
:101F6000006920F44050E168084321680861216954
:101F7000A068084361690843E1690843009020684C
:101F8000C06849F20C618843009908432168C86021
:101F90002068406920F44070A169084321684861C5
:101FA00076492068884203D075492068884203D169
:101FB000FFF7CCF8814602E0FFF7B8F88146E06908
:101FC000B0F5004F6CD102206168A0FB01500346C0
:101FD0001920A9FB007001462A463846FEF702F98F
:101FE0006421B0FBF1F04FEA001A02206168A0FB07
:101FF00001510B461920A9FB00712A463846FEF70D
:10200000F1F8834602206168A0FB015003461920C5
:10201000A9FB00712A463846FEF7E4F86421B0FBBC
:10202000F1F000EBC00101EB0010ABEB80003221BE
:1020300001EBC0006421B0FBF1F000F0F8000AEB06
:10204000400A02206168A0FB015003461920A9FB49
:10205000007001462A463846FEF7C4F8834602203F
:102060006168A0FB015003461920A9FB00712A46B4
:102070003846FEF7B7F86421B0FBF1F000EBC00181
:1020800001EB0010ABEB8000322101EBC0006421BA
:10209000B0FBF1F000F007005044216888606AE06E
:1020A00004206168A0FB015003461920A9FB0070C1
:1020B00001462A463846FEF795F8824604206168B4
:1020C000A0FB015003461920A9FB007001462A46D7
:1020D0003846FEF787F86421B0FBF1F000EBC00151
:1020E00001EB0010AAEB8000322101EB001064210B
:1020F000B0FBF1F000F0F00A04206168A0FB017071
:1021000003461920A9FB00513A462846FEF76AF813
:102110006421B0FBF1F00AEB001A04206168A0FB17
:1021200001510B461920A9FB00712A463846FEF7DB
:1021300059F8834604206168A0FB0150034619202A
:10214000A9FB007001462A463846FEF74BF8642189
:10215000B0FBF1F000EBC00101EB0010ABEB800035
:10216000322101EB00106421B0FBF1F000F00F0010
:10217000504421688860BDE8F88F000000100140DD
:10218000001401402DE9F04104460D4617469846DB
:10219000069E34E0701C88B32EB1FEF7A9F9A0EBBF
:1021A0000800B0422BD900BF00BF21680C3151E8B4
:1021B000001F21F4D07021680C3141E80002002A90
:1021C000F3D100BF00BF00BF2168143151E8001FE8
:1021D00021F001002168143141E80002002AF3D106
:1021E00000BF202084F83D0084F83E0000BF00209E
:1021F00084F83C0000BF0320BDE8F081FFE72068C1
:1022000000682840A84201D1012000E00020B84227
:10221000C0D00020F0E700BFFEE700000FB4054B80
:1022200010B503A9044A029800F034F810BC5DF818
:1022300014FB0000D9260008200000200248006896
:10224000C0F30220704700000CED00E010B500283C
:1022500004DB0A07130E054A135406E00A07140E9E
:10226000034A00F00F031B1FD45410BD00E400E02C
:1022700018ED00E002E008C8121F08C1002AFAD1D8
:1022800070477047002001E001C1121F002AFBD1F6
:10229000704700002DE9FF4F8DB09B460F46044666
:1022A000002606E025280BD05A460F999047641C5B
:1022B000761C20780028F5D111B03046BDE8F08FAB
:1022C0000025A8460122984900E0054314F8013F83
:1022D000203B02FA03F00842F7D120782E2817D1CC
:1022E00014F8010F45F004052A280ED06FF02F02D4
:1022F0002078A0F1300109290AD808EB880102EB07
:10230000410100EB0108641CF2E757F8048B641CE0
:1023100020786C280DD004DC4C2812D06A2811D10A
:1023200004E074280DD07A280CD10AE045F4001599
:1023300007E0617845F48015814202D1641C05F5FF
:102340008015641C2278692A45D008DC002AB3D0A5
:10235000582A69D0632A10D0642A08D13BE0702A39
:1023600067D0732A13D0752A5CD0782A5CD01046C7
:102370005A460F999047761CD3E017F8040B8DF856
:10238000000000208DF80100E946012003E057F825
:10239000049B4FF0FF3069074FF0000501D40AE0BD
:1023A0006D1C45450DDA8542FADB19F80510002948
:1023B000F6D106E06D1C8542FCDB19F805100029FA
:1023C000F8D12E4404E019F8010B5A460F999047B2
:1023D0006D1EF8D2A5E00A200021CDE90801C5F361
:1023E000025002280DD001CFC117031E71F1000366
:1023F0000DDA4FF0000CD0EB0C006CEB01012D233B
:1024000008E0FF1D27F00707F7E80201EDE72B05BD
:1024100004D52B238DF8283001233BE0EB0739D07E
:102420002023F7E70A2000E010200021CDE9080171
:1024300007E01020002145F00405CDE908014FF028
:102440000808C5F3025002280FD001CF00214FF039
:10245000000A2B071FD5702A0DD0DDE908C38CF0C8
:10246000100C5CEA030C0CD015E0FF1D27F00707E9
:10247000F7E80201EBE740228DF828204FF0010A2F
:102480000BE050EA010306D030238DF828308DF898
:10249000292002239A46582A04D024A20DF12009AB
:1024A0000B9209E026A2F9E7DDE90823FDF79AFE81
:1024B0000B9B9B5C09F8013D50EA0102F4D1ADEBA6
:1024C000090020300890680701D44FF001080899EE
:1024D000884502DDA8EB010000E0002080460025D1
:1024E00006E00AA85A46405D0F9990476D1C761C7D
:1024F0005545F6DB04E030205A460F999047761C8C
:10250000B8F10001A8F10108F5DC05E019F8010BAC
:102510005A460F999047761C0899481E0890002942
:10252000F4DC641CC5E600000928010030313233B8
:1025300034353637383961626364656600000000FF
:1025400030313233343536373839414243444546E9
:1025500000000000FEB504460D4616466420012327
:102560002A46A021CDE9004602900248FEF7DCF998
:10257000FEBD0000C00000202DE9F04707460D46D3
:1025800014464FF0000A0026B146B0462846E91727
:1025900005EB5171C910A5EBC10101F0FF0ACAF1A9
:1025A0000800C6B22046E11704EB5171C1F3C70819
:1025B000E11704EB5171C910A4EBC10101F0FF094F
:1025C000BAF1000F22D1B8F1000F05D122462946F9
:1025D000384600F059F854E008E008222946384609
:1025E00000F052F8083705F1080085B2B8F1000094
:1025F000A8F1010101F0FF08EFD1B9F1000F40D0BF
:102600004A462946384600F03FF83AE0B8F1000F54
:1026100005D14A462946384600F036F831E0A01B7D
:10262000C4B22046E11704EB51714FEAE108E1170B
:1026300004EB5171C910A4EBC10101F0FF093EB1D7
:1026400032462946384600F01FF83744A81985B2AB
:1026500008E008222946384600F016F8083705F148
:10266000080085B2B8F10000A8F1010101F0FF08EF
:10267000EFD1B9F1000F04D04A462946384600F0A0
:1026800003F8BDE8F0870000FEB504460D46164687
:10269000642001232A46A021CDE9004602900D487E
:1026A000FEF7BCFA00BF0B48FDF776FF2028FAD1F1
:1026B00000BF4FF496731A46A0210648FEF758F85B
:1026C0000328F6D000BF0348FDF766FF2028FAD1A3
:1026D000FEBD0000C000002038B504460D46009441
:1026E0004FF47A73012269460248FFF79EF82046AC
:1026F00038BD00002400002000B587B000BF0020D6
:1027000001901148006840F001000F490860084638
:10271000006800F00100019000BF00BF142102A872
:10272000FDF798FD4FF4C060029002200390002056
:102730000490032005900720069002A90348FDF7A6
:10274000CBFD07B000BD0000303802400000024061
:1027500008B500BF002000901048006840F010004D
:102760000E4908600846006800F01000009000BFA5
:1027700000BFFFF7C1FF0A480A4908604FF4E13083
:102780004860002107488160C16001610C214161FE
:1027900000218161C161FFF70EF808BD4438024095
:1027A000001001402400002000B587B0142102A8C9
:1027B000FDF750FD00BF002001901948006840F06F
:1027C0000200174908600846006800F00200019006
:1027D00000BF00BF00BF002001900846006840F025
:1027E000020008600846006800F00200019000BF87
:1027F00000BF1220039000200490032005900420C5
:1028000006904020029002A90648FDF765FD802051
:10281000029002A90348FDF75FFD07B000BD00006C
:10282000303802400004024008B500BF002000908C
:102830001648006840F40010144908600846006813
:1028400000F40010009000BF00BFFFF7ADFF10487C
:10285000104908601048486000210E4881604FF41C
:102860008041016100214161C16101620A21C160B1
:1028700000218161FDF794FE00210648FDF73EFE30
:1028800000210448FDF760FE08BD0000403802400A
:1028900000540040C0000020A086010000B587B0B1
:1028A00000BF002001901E48006840F020001C4935
:1028B00008600846006800F02000019000BF00BFDB
:1028C000142102A8FDF7C6FC4020029001200390CD
:1028D000002004900220059002A91248FDF7FCFC9C
:1028E000012240210F48FDF7FDFD802002900220CB
:1028F00003900520069002A90A48FDF7EDFC4FF46D
:102900008070029002A90748FDF7E6FC4FF40070C2
:10291000029002A90348FDF7DFFC07B000BD0000EC
:10292000303802400014024008B5FFF7B7FF00BF7F
:10293000002000901748006840F480101549086096
:102940000846006800F48010009000BF00BF1248E5
:10295000124908604FF48270486000210F4881607E
:10296000C1600221016101214161490281610021AF
:10297000C1610162416281620721C162FEF79CFE72
:1029800006480068006840F0400004490968086093
:1029900008BD00004438024000500140680000209B
:1029A000014642F2107205E0101EA2F101039AB234
:1029B00000D170470F4800688068C0F340000028CD
:1029C000F2D00C480068C16042F2107205E0101E9F
:1029D000A2F101039AB200D1EBE7064800688068D3
:1029E00000F001000028F2D002480068C068C0B2C0
:1029F000DFE70000680000200024FEF7CFF9FFF7B2
:102A000043FAFFF7FFF9FFF7A3FEFFF78DFFFFF78C
:102A10000BFF0DA0FFF702FC00F066F8044621460C
:102A200013A0FFF7FBFB112200211648FFF7A4FDBE
:102A3000112200211448FFF78DFD134913A0FFF761
:102A4000EDFB00BFFEE700005065726970686572BB
:102A5000616C20696E697469616C697A6174696F0F
:102A60006E20636F6D706C657465210A0000000054
:102A7000666C6173685F4944203D20307825780A90
:102A8000000000000D000020140100207265616448
:102A900064617461203D2025730A000010B5002296
:102AA00040211048FDF71EFD1520FFF779FFFF209C
:102AB000FFF776FF0446012240210A48FDF712FD88
:102AC00004F0010060B9002240210648FDF70AFD2C
:102AD000B720FFF765FF012240210248FDF702FD04
:102AE00010BD0000001402402DE9F0410024002533
:102AF00000260027FFF7D2FF002240210F48FDF7F4
:102B0000F1FC9F20FFF74CFFFF20FFF749FF054630
:102B1000FF20FFF745FF0646FF20FFF741FF07466E
:102B2000012240210548FDF7DDFC280440EA06208B
:102B300040EA07042046BDE8F0810000001402408E
:102B4000000000000000000001020304060708095D
:102B50000000000001020304782B000800000020A0
:102B600024000000742200089C2B00082400002090
:102B700004050000842200080024F4000000000086
:102B8000100000000168654A696168756920776511
:0C2B90006C636F6D650000000000000029
:04000005080001AD41
:00000001FF
