:020000040800F2
:10000000482C0020C1010008951C00081D1C000898
:10001000911C00084D030008872C00080000000018
:10002000000000000000000000000000ED280008B3
:100030005103000800000000991C0008EF28000888
:10004000DB010008DB010008DB010008DB01000820
:10005000DB010008DB010008DB010008DB01000810
:10006000DB010008DB010008DB010008DB01000800
:10007000DB010008DB010008DB010008DB010008F0
:10008000DB010008DB010008DB010008DB010008E0
:10009000DB010008DB010008DB010008DB010008D0
:1000A000DB010008DB010008DB010008DB010008C0
:1000B000DB010008DB010008DB010008DB010008B0
:1000C000DB010008DB010008DB010008DB010008A0
:1000D000DB010008DB010008DB010008DB01000890
:1000E000DB010008DB010008DB010008DB01000880
:1000F000DB010008DB010008DB010008DB01000870
:10010000DB010008DB010008DB010008DB0100085F
:10011000DB010008DB010008DB010008DB0100084F
:10012000DB010008DB010008DB010008DB0100083F
:10013000DB010008DB010008DB010008DB0100082F
:10014000DB010008DB010008DB010008DB0100081F
:10015000DB010008DB010008DB010008DB0100080F
:10016000DB010008DB010008DB010008DB010008FF
:10017000DB010008DB010008DB01000800000000D3
:10018000DB010008DB010008DB010008DB010008DF
:10019000DB010008DB010008DB010008DB010008CF
:1001A000DB010008DB010008DB010008DFF80CD0F0
:1001B00000F0BAF800480047C5540008482C002059
:1001C0000648804706480047FEE7FEE7FEE7FEE7F1
:1001D000FEE7FEE7FEE7FEE7FEE7FEE7B5290008DB
:1001E000AD0100082DE9F05F0546002092469B46D0
:1001F00088460646814640241BE02846414647463D
:10020000224600F080F853465A46C01A914110D356
:1002100011461846224600F067F82D1A67EB0108D0
:100220004F4622460120002100F05EF817EB00093E
:100230004E41201EA4F10104DFDC484631462A4627
:100240004346BDE8F09F40EA01039B0703D009E065
:1002500008C9121F08C0042AFAD203E011F8013BB2
:1002600000F8013B521EF9D27047D2B201E000F80B
:10027000012B491EFBD270470022F6E710B513464A
:100280000A4604461946FFF7F0FF204610BDCAB2E1
:10029000401E10F8011F8A4202D00029F9D1002027
:1002A000704730B504460020034600E05B1C9342D3
:1002B00003D2E05CCD5C401BF8D030BD30B50B46BE
:1002C000014600202022012409E021FA02F59D4286
:1002D00005D303FA02F5491B04FA02F52844151E5A
:1002E000A2F10102F1DC30BD202A04DB203A00FA41
:1002F00002F1002070479140C2F1200320FA03F37D
:10030000194390407047202A04DB203A21FA02F07A
:100310000021704721FA02F3D040C2F1200291403F
:100320000843194670470000064C074D06E0E06898
:1003300040F0010394E8070098471034AC42F6D32C
:10034000FFF738FFAC0E0308CC0E030800BFFEE732
:10035000704772B600BFFEE770B5044600F01CF9A6
:1003600006462546681C10B104480078054400BFC5
:1003700000F012F9801BA842FAD370BD0C000020D7
:10038000F8B502460B460025002400200021DFE0DE
:10039000012606FA01F51E6806EA0504AC4274D18E
:1003A0001E7906F00306012E04D01E7906F003061E
:1003B000022E13D190684F000326BE40B0434F0079
:1003C000DE68BE4030439060506801268E40B043E6
:1003D0001E79C6F300168E40304350601E7906F039
:1003E0000306032E09D0D0684F000326BE40B04359
:1003F0004F009E68BE403043D0601E7906F0030671
:10040000022E13D1CF0802F1200656F827004E071E
:10041000F70E0F26BE40B0434F07FF0E1E69BE40C9
:100420003043CF0802F1200646F8270010684F003D
:100430000326BE40B0431E7906F003064F00BE40BF
:10044000304310605E6806F44036002E7FD000BF57
:1004500000260096404E366846F480463E4F3E6089
:100460003E46366806F48046009600BF00BF3B4E0D
:100470008F0856F827008E07370F0F26BE40B0436F
:10048000374EB24202D100262EE060E0354EB24235
:1004900001D1012628E0344EB24201D1022623E0E8
:1004A000324EB24201D103261EE0314EB24201D19A
:1004B000042619E02F4EB24201D1052614E02E4E3B
:1004C000B24201D106260FE02C4EB24201D10726DE
:1004D0000AE02B4EB24201D1082605E0294EB24275
:1004E00001D1092600E00A268F073F0FBE403043A6
:1004F0001A4E8F0846F82700234E3068A0435E68E6
:1005000006F4803606B120431F4E3060361D306839
:10051000A0435E6806F4003606B120431A4E361D2D
:100520003060361D3068A0435E6806F4801606B160
:100530002043154E08363060361D3068A0435E6893
:1005400006F4001606B120430F4E0C363060491CED
:100550001029FFF41DAFF8BD4438024008380140AF
:10056000000002400004024000080240000C02406B
:10057000001002400014024000180240001C02401B
:100580000020024000240240003C01400AB1816189
:1005900001E00B0483617047014800687047000068
:1005A00004000020024692F83D0020281ED124209D
:1005B00082F83D001068006820F0010013681860A0
:1005C0001068406A20F01000136858621068406A92
:1005D0000843136858621068006840F0010013680F
:1005E0001860202082F83D00002070470220FCE7C0
:1005F00010B502460B46002192F83D0020281DD17F
:10060000242082F83D001068006820F00100146882
:1006100020601068406A81B221F00F0141EA0300B6
:1006200081B2106841621068006840F001001468EF
:100630002060202082F83D00002010BD0220FCE751
:1006400070B504460CB9012070BD94F83D0028B97E
:10065000002084F83C00204600F0DAF8242084F8DA
:100660003D002068006820F00100216808602068D3
:10067000006840F40040216808602068006820F4A9
:1006800000402168086000F099FA05465C496068FE
:10069000884206D85B48854201D2012007E000204D
:1006A00005E05948854201D2012000E000200128E0
:1006B00000D1C9E75548B5FBF0F62068406820F046
:1006C0003F003043216848604D496068884201D846
:1006D000701C07E04FF4967070434FF47A71B0FBD2
:1006E000F1F0401C2168096A21F03F0108432168AC
:1006F000086243496068884214D8681E61684900EE
:10070000B0FBF1F0401CC0F30B00042801D2042020
:100710003DE0681E61684900B0FBF1F0401CC0F389
:100720000B0034E0A06838B9681E616801EB410134
:10073000B0FBF1F0401C0AE0681E616801EBC102E9
:1007400002EB0111B0FBF1F0401C40F48040C0F31B
:100750000B0008B901201AE0A06848B9681E61685A
:1007600001EB4101B0FBF1F0401CC0F30B000CE0C9
:10077000681E616801EBC10202EB0111B0FBF1F0F0
:10078000401CC0F30B0040F4804040F4004021685E
:10079000C9694CF6FF72914308432168C861D4E9E6
:1007A000070108432168096821F0C0010843216856
:1007B0000860D4E9031008432168896848F2FF32D1
:1007C0009143084321688860D4E905010843216802
:1007D000C96821F0FF0108432168C86020680068EB
:1007E00040F001002168086000202064202084F887
:1007F0003D000020206384F83E0000BF24E7000095
:10080000A086010080841E0000093D0040420F00C8
:10081000704700000348006803490978084401490B
:1008200008607047040000200C00002010B50D483F
:10083000006840F400700B4908600846006840F406
:10084000806008600846006840F4807008600320FB
:1008500000F092F80F2000F007F800F02BF80020CD
:1008600010BD0000003C024070B504460E48007800
:100870004FF47A71B1FBF0F00C490968B1FBF0F567
:10088000284601F00EF908B1012070BD102C07D2E6
:1008900000222146501E00F031F80548046001E0B6
:1008A0000120F2E70020F0E70C000020000000200B
:1008B0000800002008B500BF002000900E48006826
:1008C00040F480400C4908600846006800F480400D
:1008D000009000BF00BF00BF00200090081F00680C
:1008E00040F08050091F08600846006800F0805002
:1008F000009000BF00BF08BD443802402DE9F05F02
:1009000080460D461646002702F0FAF9074639469A
:100910002A46334601F00700C0F1070ABAF1040F76
:1009200002D94FF0040A01E0C0F1070AD14600F1F4
:10093000040ABAF1070F02D24FF0000A01E0A0F159
:10094000030AD4464FF0010A0AFA09FAAAF1010A89
:100950000AEA020A0AFA0CFA4FF0010B0BFA0CFB36
:10096000ABF1010B0BEA030B4AEA0B0421464046AC
:1009700002F0CEF9BDE8F09F00BF00F00702064B81
:1009800019684FF6FF031940044B0B4343EA022159
:10099000014B196000BF70470CED00E00000FA0544
:1009A00038B5002400BF002000901D48006840F0CA
:1009B00080501B4908600846006800F08050009095
:1009C00000BF00BF012017490864FFF7E5FD04469A
:1009D00007E0FFF7E1FD001BB0F57A7F01D90320A6
:1009E00038BD1148406800F48030B0F5803FF0D148
:1009F00001200C494864FFF7CFFD044607E0FFF7EC
:100A0000CBFD001BB0F57A7F01D90320E8E706484B
:100A1000406800F40030B0F5003FF0D10020DFE77F
:100A20004038024000000E420070004070B504469D
:100A30000D460CB9012070BD5848006800F00F0049
:100A4000A84209D255490D700846006800F00F0011
:100A5000A84201D00120EEE7207800F00200022831
:100A60001DD1207800F00400042805D14C4800680E
:100A700040F4E0504A490860207800F00800082857
:100A800005D14748006840F4604045490860444843
:100A9000006820F0F000A168084341490860207810
:100AA00000F00100A8B36068012807D13C4808386D
:100AB0000068C0F34040B8B90120BCE76068022874
:100AC00002D06068032807D1354808380068C0F3B1
:100AD000406048B90120AEE7314808380068C0F3EB
:100AE000400008B90120A6E72D48006820F0030067
:100AF000616808432A490860FFF74EFD064609E091
:100B0000FFF74AFD801B41F28831884202D9032059
:100B100091E707E02248006800F00C006168B0EB44
:100B2000810FEDD11D48006800F00F00A84209D9DF
:100B30001A490D700846006800F00F00A84201D065
:100B4000012078E7207800F00400042807D1144839
:100B5000006820F4E050E1680843114908602078FB
:100B600000F00800082808D10D48006820F4604013
:100B7000216940EAC1000A49086000F03FF80849CD
:100B80000968C1F30311074A515CC840064908606F
:100B900006480068FFF768FE00204CE7003C024072
:100BA000083802409662000800000020080000207B
:100BB00001480068704700000000002000B5FFF702
:100BC000F7FF04490968C1F38221034A515CC84018
:100BD00000BD000008380240A662000800B5FFF71B
:100BE000E7FF04490968C1F34231034A515CC84038
:100BF00000BD000008380240A66200082DE9F04759
:100C0000002400250026A1462548006800F00C00BD
:100C100020B1042805D008283AD105E0DFF88490F7
:100C200039E0DFF8849036E01D48001F006800F0CE
:100C30003F041B48001F006800F4800078B11A4888
:100C40001749091F0968C1F38811A0FB017001460B
:100C5000224600233846FFF7C5FA05460EE0114844
:100C60000F49091F0968C1F38811A0FB01700146F3
:100C7000224600233846FFF7B5FA05460848001F0C
:100C80000068C0F30140401C4600B5FBF6F902E0E5
:100C9000DFF8109000BF00BF4846BDE8F0870000B5
:100CA000083802400024F40040787D01F8B504467D
:100CB0000CB90120F8BD207800F00100002874D0A4
:100CC000F948006800F00C0004280DD0F6480068D0
:100CD00000F00C00082813D1F348001F006800F44E
:100CE0008000B0F5800F0BD1EF4808380068C0F3E2
:100CF0004040002859D06068002856D10120D9E72B
:100D000000BF6068B0F5803F08D1E7480838006848
:100D100040F48030E449083908601EE06068B0F5AE
:100D2000A02F0DD1E0480838006840F48020DE494B
:100D3000083908600846006840F4803008600CE01C
:100D4000D9480838006820F48030D749083908604D
:100D50000846006820F48020086000BF606890B1F9
:100D6000FFF71AFC054606E0FFF716FC401B642857
:100D700001D903209EE7CC4808380068C0F3404002
:100D80000028F1D011E0FFF707FC054606E0FFF769
:100D900003FC401B642801D903208BE7C2480838B4
:100DA0000068C0F340400028F1D1207800F0020034
:100DB00002285FD1BC48006800F00C0058B1BA4866
:100DC000006800F00C0008281CD1B748001F00681C
:100DD00000F48000B0B9B44808380068C0F340009F
:100DE00020B1E068012801D0012063E7AE4808384F
:100DF000006820F0F800216940EAC100AA490839DA
:100E0000086037E0E06800B30120A8490860FFF7F8
:100E1000C3FB054606E0FFF7BFFB401B022801D9D4
:100E2000032047E7A04808380068C0F340000028C6
:100E3000F1D09D480838006820F0F800216940EAA8
:100E4000C10099490839086014E0002097490860FA
:100E5000FFF7A2FB054606E0FFF79EFB401B0228BA
:100E600001D9032026E7904808380068C0F3400005
:100E70000028F1D1207800F0080008282CD1606902
:100E8000A8B101208A490860FFF786FB054606E005
:100E9000FFF782FB401B022801D903200AE78248A2
:100EA0006C300068C0F340000028F1D014E000204E
:100EB0007F490860FFF770FB054606E0FFF76CFB13
:100EC000401B022801D90320F4E677486C30006803
:100ED000C0F340000028F1D1207800F0040004287D
:100EE00070D1002770483830006800F0805090B909
:100EF00000BF002000906C483830006840F08050FF
:100F00006949383108600846006800F08050009058
:100F100000BF00BF01276748006800F48070B0B9C7
:100F20006448006840F4807062490860FFF734FB51
:100F3000054606E0FFF730FB401B022801D90320DD
:100F4000B8E65C48006800F480700028F2D000BF6A
:100F5000A068012808D154486830006840F00100BA
:100F60005149683108601DE0A06805280DD14E4840
:100F70006830006840F004004B496831086008465A
:100F8000006840F0010008600CE0474868300068E5
:100F900020F001004449683108600846006820F0EC
:100FA0000400086000BFA068A8B1FFF7F5FA054685
:100FB00009E0FFF7F1FA401B41F28831884202D97B
:100FC000032077E626E0384868300068C0F3400028
:100FD0000028EED013E0FFF7DFFA054608E0FFF740
:100FE000DBFA401B41F28831884201D9032061E6D7
:100FF0002D4868300068C0F340000028EFD1012F71
:1010000007D129483830006820F08050264938310F
:10101000086000BFA069002845D02348006800F0A0
:101020000C0008285DD0A069022845D100201F4986
:101030000866FFF7B1FA054606E0FFF7ADFA401B78
:10104000022801D9032035E6174808380068C0F3A4
:1010500040600028F1D1D4E907010843616A40EA01
:1010600081110122A06AC2EB500041EA00412C200C
:10107000005D41EA00600C49091F086001200B492E
:101080000866FFF789FA054606E0FFF785FA401B78
:10109000022801D903200DE6034808380068C0F390
:1010A00040600028F1D049E0083802400000474283
:1010B000800E474200700040002021490866FFF77B
:1010C0006BFA054606E0FFF767FA401B022801D9D4
:1010D0000320EFE51B480068C0F340600028F2D110
:1010E0002CE0A069012800D1E4E51648001D06683F
:1010F000A069012820D006F48001E06981421BD15B
:1011000006F03F01206A814216D147F6C070304098
:10111000616AB0EB811F0FD106F440310122A06A51
:10112000C2EB5000B1EB004F06D106F070612C20ED
:10113000005DB1EB006F01D00120BBE50020B9E5F7
:101140000000474200380240F0B589B004460E4620
:101150000027032084F83400606C032820D0B6F503
:10116000805F04D1A06B40F08050A0631CE0B6F516
:10117000006F07D1204601F085FB0546A06B284390
:10118000A06311E03EB9204601F048FB0546A06B84
:101190002843A06308E0A06B40F00060A06303E078
:1011A000A06B40F08050A063A06B38B11748216855
:1011B0008863012084F83400012713E060680390FD
:1011C000A0680490E0680590069660690790A069A1
:1011D000089006A807C88DE80700206803A90EC973
:1011E00000F080FD4FF40071206800F0F7FD054627
:1011F00035B1064821688863A06B2843A0630127A6
:10120000012084F83400384609B0F0BDFF054000E5
:1012100010B50246506E800F0870506EC0F38360A8
:101220004870506EC0F301608870506E000CC8703A
:10123000B2F86400000A087192F864004871906E78
:10124000000DC880906EC0F3034008726820805A79
:10125000C0F3C03048726820805AC0F38030887272
:101260006820805AC0F34030C8726820805AC0F3AA
:101270000030087300204873506C002836D1682075
:10128000805A8005030DD06E43EA90700861D06EDD
:10129000C0F3C2600875D06EC0F302604875D06EAE
:1012A000C0F342508875D06EC0F38240C875D06ECE
:1012B000C0F3C23008760869401C50650B7E506D43
:1012C00003F007039B1C01249C4060435065087A8F
:1012D00000F00F03012098409065D2E915035B0AE6
:1012E0005843D0654FF40073136621E0506C012819
:1012F00013D16820805C8006830AD06E43EA1040D8
:1013000008610869401C83025365536DD3654FF42F
:1013100000739365936D13660AE02E481368986313
:10132000906B40F080509063012082F8340010BD33
:101330006C20805AC0F3803001F8190F6C20805A5D
:10134000C0F3C61048706C20805C00F07F0088708D
:10135000106FC00FC870106FC0F341700871106F2C
:10136000C0F382604871106FC0F383508871106FB2
:10137000C0F34050C87100200872106FC0F30040E5
:1013800048727020805AC0F3C03088727020805A32
:10139000C0F38030C8727020805AC0F340300873A8
:1013A0007020805AC0F3003048737020805AC0F318
:1013B000812088737020805AC0F30120C873702088
:1013C000805CC0F34600087401204874193900207D
:1013D000ADE70000FF0540000246506C0860906CCD
:1013E0004860D06C8860106DC860506D0861906D69
:1013F0004861D06D8861106EC86100207047F8B5F3
:101400000446002000906946204601F0EFF90546A9
:1014100015B1A06B2843A0630098C0F34326304663
:10142000F8BD10B504460CB9012010BD94F8340085
:1014300020B900202077204600F068F8032084F8C7
:101440003400204600F00CF808B10120EDE7002040
:10145000A0632063012084F834000020E5E7000049
:1014600070B58AB00446002004900590069007905D
:1014700008907620099007A807C88DE80700206823
:1014800004A90EC900F02EFC064616B101200AB0D0
:1014900070BD00201B490860206800F03DFC012061
:1014A0001849A039C1F8A000204601F039F90546D5
:1014B0003DB1012084F83400A06B2843A0630120D3
:1014C000E5E7204601F0ABF805463DB1012084F880
:1014D0003400A06B2843A0630120D8E74FF40071CB
:1014E000206800F07BFC05464DB107482168886301
:1014F000A06B2843A063012084F83400C7E70020D4
:10150000C5E70000A0802542FF05400070470000AD
:101510002DE9FF4F89B004468B469946DDF858A067
:10152000FFF73AF802900B9800905D46BBF1000F70
:1015300007D1A06B40F00060A06301200DB0BDE8B2
:10154000F08F94F8340001287ED10020A063009829
:1015500000EB0901E06D814205D9A06B40F00070FD
:10156000A0630120EAE7032084F83400002021680A
:10157000C862606C012802D00098400200904FF0D1
:10158000FF3003904FEA49200490902005900220FC
:101590000690002007900120089003A9206800F021
:1015A0007CFBB9F1010F07D9022020632068009964
:1015B00000F07CFC804606E0012020632068009952
:1015C00000F090FC8046B8F1000F0DD075482168FE
:1015D0008863A06B40EA0800A063012084F834000F
:1015E000002020630120A9E7049E3AE02068406BB8
:1015F00000F40040E0B1DEB10020019015E0206869
:1016000000F093FB07462F706D1C761E380A287079
:101610006D1C761E380C28706D1C761E380E2870D6
:101620006D1C761E0198401C019001980828E6D395
:10163000FEF7B2FF0299401A504502D2BAF1000FEC
:101640000FD15848216800E0A6E08863A06B40F005
:101650000040A063012084F83400002020630320B0
:101660006CE72068406B40F22A3108400028BDD06A
:101670002068406B00F48070D0B1B9F1010F17D928
:10168000606C032814D0206800F0ECFC8046B8F1B0
:10169000000F0DD0434821688863A06B40EA080022
:1016A000A063012084F8340000202063012045E776
:1016B0002068406B00F0080068B13A4821688863F0
:1016C000A06B40F00800A063012084F834000020E3
:1016D0002063012032E72068406B00F0020068B10F
:1016E000304821688863A06B40F00200A0630120AD
:1016F00084F834000020206301201FE72068406B3D
:1017000000F0200068B1274821688863A06B40F092
:101710002000A063012084F8340000202063012011
:101720000CE729E0206800F000FB07462F706D1CD5
:10173000761E380A28706D1C761E380C28706D1CB9
:10174000761E380E28706D1C761EFEF725FF029956
:10175000401A504502D2BAF1000F0DD1114821684C
:101760008863A06B40F00040A063012084F834003F
:10177000002020630120E1E62068406B00F40010A7
:1017800008B1002ECED140F23A5021688863012082
:1017900084F834000020D1E6A06B40F00050A06334
:1017A0000120CBE6FF0540002DE9F04F89B004464B
:1017B000894693469846FEF7EFFE0290DA464D467C
:1017C000B9F1000F07D1A06B40F00060A0630120C9
:1017D00009B0BDE8F08F94F8340001287ED10020D4
:1017E000A0630AEB0801E06D814205D9A06B40F0CF
:1017F0000070A0630120EBE7032084F83400002090
:101800002168C862606C012801D04FEA4A2A4FF073
:10181000FF3003904FEA482004909020059000206C
:10182000069007900120089003A9206800F035FA7F
:10183000B8F1010F07D9202020635146206800F03D
:101840002FFC064606E0102020635146206800F079
:1018500043FC064666B15F4821688863A06B30434D
:10186000A063012084F83400002020630120AFE74A
:10187000049F43E02068406B00F4804030B32FB3F6
:10188000002001901FE0287800906D1C7F1E2878B2
:10189000009941EA002000906D1C7F1E2878009975
:1018A00041EA004000906D1C7F1E2878009941EAB3
:1018B000006000906D1C7F1E6946206800F04DFAA4
:1018C0000198401C019001980828DCD3FEF764FEC3
:1018D0000299411A1298814203D200E074E01298F2
:1018E00060B93C4821688863A06B3043A063012045
:1018F00084F8340000202063032069E72068406BEF
:1019000040F21A3108400028B4D02068406B00F43F
:101910008070B8B1B8F1010F14D9606C032811D0F0
:10192000206800F09FFB064666B12A48216888635C
:10193000A06B3043A063012084F8340000202063B2
:10194000012045E72068406B00F0080068B121489D
:1019500021688863A06B40F00800A063012084F830
:10196000340000202063012032E72068406B00F043
:10197000020068B1174821688863A06B40F002003C
:10198000A063012084F834000020206301201FE7B9
:101990002068406B00F0100068B10E482168886331
:1019A000A06B40F01000A063012084F834000020F8
:1019B000206301200CE740F23A502168886301203F
:1019C00084F83400002003E7A06B40F00050A063CF
:1019D0000120FDE6FF05400010B504460CB90120CA
:1019E00010BD606A38B96068B0F5827F00D105E04B
:1019F0000021E16102E00021216161610021A16219
:101A000094F8510028B9002084F85000204600F0D6
:101A100047F8022084F851002068006820F0400058
:101A200021680860A08800F48270218901F40441D3
:101A30000843A18901F400610843217C01F00201FF
:101A40000843217D01F001010843218B01F400715D
:101A50000843217F01F0380108432021095D01F08E
:101A600080010843218D01F400510843216808607A
:101A70000421A06901EA104094F8241001F010013B
:101A80000843216848602068C06920F4006021682C
:101A9000C86100206065012084F8510000209FE7A4
:101AA000704770B504462546681EB0F1807F01D3AB
:101AB00001200FE0681E4FF0E02148610F214FF038
:101AC000FF3001F025F900204FF0E0218861072068
:101AD0000861002070BD10B504460CB9012010BD8E
:101AE000A06900B100E000BF94F83D0028B90020D3
:101AF00084F83C00204600F027F8242084F83D00BC
:101B00002068C06820F400502168C860204600F0BA
:101B10005BFF2068006920F490402168086120681C
:101B2000406920F02A00216848612068C06840F4BC
:101B300000502168C86000202064202084F83D0007
:101B400084F83E000020CAE770472DE9F84F0446AC
:101B50000E46174699464FF0000A94F83D0020289B
:101B60005AD106B117B90120BDE8F88F00BF94F82B
:101B70003C00012801D10220F6E7012084F83C0056
:101B800000BF00202064212084F83D00FEF704FD02
:101B90008246A784E784A068B0F5805F04D12069FD
:101BA00010B90025B04602E035464FF0000800BFEE
:101BB000002084F83C0000BF1BE053460022802137
:101BC0002046CDF8009001F015F808B10320CBE7CE
:101BD00045B9B8F80000C0F308002168486008F172
:101BE000020803E02878216848606D1CE08C401EE4
:101BF000E084E08C0028E0D15346002240212046BA
:101C0000CDF8009000F0F6FF08B10320ACE72020EB
:101C100084F83D000020A7E70220A5E700BFFEE70B
:101C200000B587B000BF002001901748006840F061
:101C30008000154908600846006800F080000190A7
:101C400000BF00BF142102A8FEF716FB4FF4E050BE
:101C500002900120039000200490059002A90B48F7
:101C6000FEF78EFB012291020848FEF78FFC01224D
:101C7000D1020648FEF78AFC012211030348FEF751
:101C800085FC07B000BD000030380240001C024057
:101C900000BFFEE700BFFEE7704710B50246002315
:101CA0000868506248689062D1E9020420430C69D8
:101CB00020434C6920430343D06A20F0F7001843C7
:101CC000D062002010BD01460869C0B270470146CD
:101CD000086800F003007047024602F11400431840
:101CE000186870470FB410B504460021DDE90302FF
:101CF0001043059A1043069A1043079A1043089A16
:101D000010430143606847F6FF62904308436060F8
:101D1000002010BC5DF814FB10B5044603202060C1
:101D20000220FEF719FB002010BD0146D1F880000B
:101D3000704710B50246002308689060D1E901049D
:101D40002043CC6820430C6920430343D0686FF3E1
:101D50000B001843D060002010BD02460868C2F88E
:101D600080000020704770B586B005460C4601948F
:101D70003720029040200390002004904FF48060B0
:101D8000059001A92846FFF7D4FF41F28832372198
:101D9000284600F0DDF90646304606B070BD00006A
:101DA00070B586B005460C460B48204301902920AB
:101DB000029040200390002004904FF48060059032
:101DC00001A92846FFF7B5FF284600F0C9FA0646E4
:101DD000304606B070BD00000000108070B586B0BF
:101DE00005460C46019410200290402003900020EC
:101DF00004904FF48060059001A92846FFF799FFF1
:101E000041F288321021284600F0A2F906463046F9
:101E100006B070BD70B586B005460C46019406202C
:101E2000029040200390002004904FF480600590C1
:101E300001A92846FFF77DFF41F288320621284696
:101E400000F086F90646304606B070BD30B585B064
:101E50000446002000900190029003904FF48060AF
:101E6000049069462046FFF764FF204600F050F9D1
:101E70000546284605B030BD30B585B004464FF460
:101E8000D57000900820019040200290002003901F
:101E90004FF48060049069462046FFF74AFF2046D1
:101EA00000F0E6FA0546284605B030BD70B586B0AC
:101EB00005460C4601941220029040200390002019
:101EC00004904FF48060059001A92846FFF731FF88
:101ED00041F288321221284600F03AF9064630468F
:101EE00006B070BD70B586B005460C460194112051
:101EF000029040200390002004904FF480600590F1
:101F000001A92846FFF715FF41F288321121284622
:101F100000F01EF90646304606B070BDF0B585B03B
:101F2000064614461D46009407200190402002906A
:101F3000002003904FF48060049069463046FFF71C
:101F4000F8FE41F288320721304600F001F90746D9
:101F5000384605B0F0BD30B585B00446002000908D
:101F600002200190C0200290002003904FF4806076
:101F7000049069462046FFF7DCFE204600F0BEF9DB
:101F80000546284605B030BD70B586B005460C46FE
:101F9000019409200290C0200390002004904FF487
:101FA0008060059001A92846FFF7C3FE284600F08F
:101FB000A5F90646304606B070BD30B585B004467A
:101FC00000200090332001904020029000200390D8
:101FD0004FF48060049069462046FFF7AAFE41F264
:101FE00088323321204600F0B3F80546284605B074
:101FF00030BD70B586B005460C4601940D200290A8
:1020000040200390002004904FF48060059001A9C7
:102010002846FFF78EFE41F288320D21284600F057
:1020200097F80646304606B070BD70B586B00546D6
:102030000C460020019003200290402003900020D5
:1020400004904FF48060059001A92846FFF771FEC7
:1020500022460321284600F0AFF90646304606B076
:1020600070BD000030B585B00446002000900C2003
:10207000019040200290002003904FF48060049073
:1020800069462046FFF755FE044A0C21204600F021
:102090005FF80546284605B030BD000000E1F505B3
:1020A00070B586B005460C46019419200290402078
:1020B0000390002004904FF48060059001A9284609
:1020C000FFF737FE41F288321921284600F040F828
:1020D0000646304606B070BD70B586B005460C4663
:1020E00001941820029040200390002004904FF4A7
:1020F0008060059001A92846FFF71BFE41F2883257
:102100001821284600F024F80646304606B070BD77
:1021100001460E480068C0084FF47A73B0FBF3F034
:1021200041F2883300FB03F200BF101EA2F101024E
:1021300002D14FF000407047486B00F0800000284B
:10214000F3D0C52088630020F5E7000000000020E0
:102150002DE9F04305460F46904666480068C008E2
:102160004FF47A71B0FBF1F000FB08F900BFB9F150
:102170000000A9F1010903D14FF00040BDE8F08350
:102180006E6B06F045000028F1D006F400600028D0
:10219000EDD1686B00F0040010B10420A863EDE7F6
:1021A000686B00F0010010B10120A863E6E7C520CC
:1021B000A8632846FFF787FDB84201D00120DDE77C
:1021C00000212846FFF788FD04464B48204008B907
:1021D0000020D3E704F00040B0F1004F02D14FF0EF
:1021E0000070CBE704F08040B0F1804F01D1402077
:1021F000C4E704F00050B0F1005F01D18020BDE7DA
:1022000004F08050B0F1805F02D14FF48070B5E7E8
:1022100004F00060B0F1006F02D14FF40070ADE740
:1022200004F08060B0F1806F02D14FF48060A5E7C8
:1022300004F08070B0F1807F02D14FF400609DE720
:1022400004F40000B0F5000F02D14FF4805095E780
:1022500004F48000B0F5800F02D14FF400508DE7F8
:1022600004F40010B0F5001F02D14FF4804085E760
:1022700004F48010B0F5801F02D14FF400407DE7D8
:1022800004F48020B0F5802F02D14FF4003075E7C0
:1022900004F40030B0F5003F02D14FF480206DE728
:1022A00004F48030B0F5803F02D14FF4002065E7A0
:1022B00004F40040B0F5004F02D14FF480105DE708
:1022C00004F48040B0F5804F02D14FF4001055E780
:1022D00004F40050B0F5005F02D14FF480004DE7E8
:1022E00004F00800082801D1000547E74FF48030CA
:1022F00044E700000000002008E0FFFD10B50146A3
:1023000016480068C0084FF47A74B0FBF4F041F24C
:10231000883400FB04F300BF181EA3F1010302D1AF
:102320004FF0004010BD4A6B02F045000028F3D08A
:1023300002F400600028EFD1486B00F0040010B1F7
:1023400004208863EEE7486B00F0010010B1012023
:102350008863E7E7C52088630020E3E700000020EA
:1023600010B5014613480068C0084FF47A74B0FBFA
:10237000F4F041F2883400FB04F300BF181EA3F10F
:10238000010302D14FF0004010BD4A6B02F045003E
:102390000028F3D002F400600028EFD1486B00F071
:1023A000040010B104208863EEE7C5208863002094
:1023B000EAE70000000000202DE9F04304460F4644
:1023C00090462A480068C0084FF47A71B0FBF1F0DB
:1023D00041F2883100FB01F900BFB9F10000A9F119
:1023E000010903D14FF00040BDE8F083666B06F0B1
:1023F00045000028F1D006F400600028EDD1606BA4
:1024000000F0040010B10420A063EDE7606B00F061
:10241000010010B10120A063E6E72046FFF753FC5E
:10242000B84201D00120DFE7C520A063002120468B
:10243000FFF752FC054605F4604020B9280CA8F8C7
:1024400000000020D0E705F48040B0F5804F02D1B5
:102450004FF40050C8E705F40040B0F5004F02D13A
:102460004FF48050C0E74FF48030BDE700000020FB
:1024700010B5014618480068C0084FF47A74B0FBE4
:10248000F4F041F2883400FB04F300BF181EA3F1FE
:10249000010302D14FF0004010BD4A6B02F045002D
:1024A0000028F3D002F400600028EFD1486B00F060
:1024B000040010B104208863EEE7486B00F00100CF
:1024C00010B101208863E7E7486B00F0400008B1D5
:1024D000402088630020DFE7000000202DE9F04362
:1024E00089B004460F46FEF757F881464FF00008C2
:1024F0000020019002903E4608212068FFF76EFC04
:1025000005461DB1284609B0BDE8F0835022125B94
:1025100011042068FFF727FC05460DB12846F2E7B5
:102520004FF0FF30039008200490302005900220E7
:102530000690002007900120089003A92068FFF76B
:10254000ACFB2068FFF739FD05460DB12846DAE7F8
:102550001CE02068406B00F4001040B12068FFF7D9
:10256000E4FB01A941F8280008F1010805E0206812
:10257000406B00F4005000B90EE0FEF70DF8A0EB40
:102580000900401C10B94FF00040BCE72068406BC8
:1025900000F02A000028DCD000BF2068406B00F06B
:1025A000080018B1082021688863ACE72068406BF8
:1025B00000F0020018B1022021688863A3E72068B8
:1025C000406B00F0200018B12020216888639AE752
:1025D00040F23A502168886302980006029901F49B
:1025E0007F4140EA0120029901F47F0140EA112075
:1025F000029940EA11603060361D01980006019989
:1026000001F47F4140EA0120019901F47F0140EA91
:102610001120019940EA11603060002073E730B565
:102620008FB00446012003902068FFF750FB18B9D3
:102630004FF080600FB030BD606C03281BD0206865
:10264000FFF789FC05460DB12846F3E70021206815
:10265000FFF742FB606704212068FFF73DFBA0679E
:1026600008212068FFF738FBE0670C212068FFF79E
:1026700033FB80210851606C032807D003A9206830
:10268000FFF7D3FC05460DB12846D3E7606C03285D
:1026900020D0BDF80C1021655022125B1104206877
:1026A000FFF772FC05460DB12846C3E700212068FC
:1026B000FFF712FB606604212068FFF70DFBA066A0
:1026C00008212068FFF708FBE0660C212068FFF76F
:1026D00003FB206704212068FFF7FEFA010DE16487
:1026E00004A92046FEF794FD10B14FF08050A1E7F9
:1026F0005020005B01040A4600232068FFF70EFC0F
:1027000005460DB1284695E7D4E90412A069CDE944
:102710000012029094E80F00FFF7E4FA002089E726
:10272000F8B5044600200090002600272068FFF737
:102730008DFB05460DB12846F8BD2068FFF79CFBD0
:10274000054645B10021A1642068FFF77FFB0546DF
:102750001DB12846F0E70121A164A06C012808D131
:1027600000212068FFF7FFFA054615B14FF08050B1
:10277000E2E71DE000212068FFF7F5FA05460DB1FC
:102780002846D9E718492068FFF70AFB054615B126
:102790004FF08050D0E700212068FFF79DFA0646F1
:1027A000012080EAD67080F001070098401C00905C
:1027B0004FF6FF710098884201D2002FDAD04FF611
:1027C000FF710098884202D34FF08070B4E706F0A2
:1027D0008040B0F1804F02D10120606401E0002010
:1027E00060640020A8E70000000010C170B5044636
:1027F0000D4615B94FF0006070BD5022125B1104F8
:102800002068FFF7F6FB06460EB13046F4E70021DC
:102810002068FFF761FA28600020EDE77CB50446E8
:1028200000200090019000212068FFF755FA00F089
:102830000070B0F1007F02D14FF400607CBD6946AA
:102840002046FFF74BFE05460DB12846F6E70198F6
:1028500000F4803098B15022125B11042068FFF719
:1028600082FA05460DB12846E8E700212068FFF707
:10287000D1FA05460DB12846E0E70020DEE74FF02B
:102880008060DBE77CB504460020009001900021C9
:102890002068FFF721FA00F00070B0F1007F02D14C
:1028A0004FF400607CBD69462046FFF717FE0546E1
:1028B0000DB12846F6E7019800F4802098B1502227
:1028C000125B11042068FFF74EFA05460DB1284649
:1028D000E8E702212068FFF79DFA05460DB128467A
:1028E000E0E70020DEE74FF08060DBE7704710B5DF
:1028F000FDF790FF10BD000000B593B0302107A890
:10290000FDF7BAFC142102A8FDF7B6FC00BF0020B9
:1029100001902648006840F080502449086008462D
:10292000006800F08050019000BF00BF00BF002091
:1029300001901F48006840F440401D490860084667
:10294000006800F44040019000BF00BF01200790E4
:102950000004089002200D9041050E910F210F9167
:10296000D8211091022111910421129107A8FEF79C
:102970009DF908B1FDF7EDFCFEF712F808B1FDF77F
:10298000E8FC0F20029002200390002004904FF4F6
:10299000A05005904FF480500690052102A8FEF744
:1029A00045F808B1FDF7D5FC13B000BD4038024032
:1029B000007000400348006840F47000014908605E
:1029C0007047000088ED00E02DE9F84F04462068CC
:1029D000006920F44050E1680843216808612169DA
:1029E000A068084361690843E169084300902068D2
:1029F000C06849F20C618843009908432168C860A7
:102A00002068406920F44070A1690843216848614A
:102A100076492068884203D075492068884203D1EE
:102A2000FEF7DCF8814602E0FEF7C8F88146E0696F
:102A3000B0F5004F6CD102206168A0FB0150034645
:102A40001920A9FB007001462A463846FDF7CAFB4B
:102A50006421B0FBF1F04FEA001A02206168A0FB8C
:102A600001510B461920A9FB00712A463846FDF793
:102A7000B9FB834602206168A0FB01500346192080
:102A8000A9FB00712A463846FDF7ACFB6421B0FB78
:102A9000F1F000EBC00101EB0010ABEB8000322144
:102AA00001EBC0006421B0FBF1F000F0F8000AEB8C
:102AB000400A02206168A0FB015003461920A9FBCF
:102AC000007001462A463846FDF78CFB83460220FB
:102AD0006168A0FB015003461920A9FB00712A463A
:102AE0003846FDF77FFB6421B0FBF1F000EBC0013D
:102AF00001EB0010ABEB8000322101EBC000642140
:102B0000B0FBF1F000F007005044216888606AE0F3
:102B100004206168A0FB015003461920A9FB007046
:102B200001462A463846FDF75DFB8246042061686F
:102B3000A0FB015003461920A9FB007001462A465C
:102B40003846FDF74FFB6421B0FBF1F000EBC0010C
:102B500001EB0010AAEB8000322101EB0010642190
:102B6000B0FBF1F000F0F00A04206168A0FB0170F6
:102B700003461920A9FB00513A462846FDF732FBCF
:102B80006421B0FBF1F00AEB001A04206168A0FB9D
:102B900001510B461920A9FB00712A463846FDF762
:102BA00021FB834604206168A0FB015003461920E5
:102BB000A9FB007001462A463846FDF713FB642145
:102BC000B0FBF1F000EBC00101EB0010ABEB8000BB
:102BD000322101EB00106421B0FBF1F000F00F0096
:102BE000504421688860BDE8F88F00000010014063
:102BF000001401402DE9F04104460D461746984661
:102C0000069E34E0701C88B32EB1FDF7C5FCA0EB26
:102C10000800B0422BD900BF00BF21680C3151E839
:102C2000001F21F4D07021680C3141E80002002A15
:102C3000F3D100BF00BF00BF2168143151E8001F6D
:102C400021F001002168143141E80002002AF3D18B
:102C500000BF202084F83D0084F83E0000BF002023
:102C600084F83C0000BF0320BDE8F081FFE7206846
:102C700000682840A84201D1012000E00020B842AD
:102C8000C0D00020F0E700BFFEE7000000B587B02D
:102C900000BF002001901048006840F040000E493D
:102CA00008600846006800F04000019000BF00BFC7
:102CB000481502900120039004900220059002A97B
:102CC0000648FDF75DFB00224FF400710348FDF755
:102CD0005DFC07B000BD0000303802400018024023
:102CE0000FB4054B10B503A9044A029800F034F85C
:102CF00010BC5DF814FB0000E54C000868000020E3
:102D000002480068C0F30220704700000CED00E0AC
:102D100010B5002804DB0A07130E054A135406E019
:102D20000A07140E034A00F00F031B1FD45410BDF2
:102D300000E400E018ED00E002E008C8121F08C13E
:102D4000002AFAD170477047002001E001C1121F2C
:102D5000002AFBD1704700002DE9FF4F8BB09A4647
:102D60000F460546002606E025280BD052460D9951
:102D700090476D1C761C28780028F5D10FB030469E
:102D8000BDE8F08F0024A0460122604900E0044322
:102D900015F8013F203B02FA03F00842F7D12878EA
:102DA0002E2817D115F8010F44F004042A280ED05C
:102DB0006FF02F022878A0F1300109290AD808EB1A
:102DC000880102EB410100EB01086D1CF2E757F8A6
:102DD000048B6D1C287869283ED006DC0028CDD0F5
:102DE00063280BD0642804D136E0732810D07528EE
:102DF0004BD052460D999047761C85E017F8040B8E
:102E00008DF8000000208DF80100E946012003E064
:102E100057F8049B4FF0FF3061074FF0000401D4D6
:102E20000AE0641C44450DDA8442FADB19F8041008
:102E30000029F6D106E0641C8442FCDB19F804107A
:102E40000029F8D1264404E019F8010B52460D99E7
:102E50009047641EF8D257E001CF4FF00A0B0028CC
:102E600002DA40422D2102E0210504D52B218DF804
:102E70002410012103E0E10705D02021F7E70DF13F
:102E8000200908910CE00021F9E701CF4FF00A0B6F
:102E9000F9E75946FDF712FA01F1300209F8012D60
:102EA0000028F6D1ADEB090000F1200B600701D43A
:102EB0004FF00108D84502DDA8EB0B0000E0002030
:102EC0008046002406E009A85246005D0D9990470F
:102ED000641C761C08988442F5DB04E030205246DE
:102EE0000D999047761CB8F10001A8F10108F5DCB6
:102EF00005E019F8010B52460D999047761CBBF17D
:102F00000001ABF1010BF4DC6D1C34E70928010072
:102F10002DE9F041044688460020E070401E6063C1
:102F20004146204602F0CAFD10B10420BDE8F08100
:102F300004F2362002F0BFFA074694F83850EB2D21
:102F400003D0E92D01D0E82D43D14AF65520874220
:102F500008D1082223A104F18A00FDF7A2F908B9DB
:102F60000020E3E704F1430002F0A5FA06464520FD
:102F7000055D701E304060BBB6F5007F29DBB6F5FD
:102F8000805F26DC2DB3681E284010BB04F146008C
:102F900002F091FAE8B14820005D401E012818D8DF
:102FA00004F1490002F087FA98B104F14B0002F0F5
:102FB00082FA802806DA04F1580002F070FAB0F5BF
:102FC000803F06D304F14E0002F075FA08B10020EC
:102FD000ACE74AF65520874201D10220A6E703203C
:102FE000A4E70000464154333220202000000000B6
:102FF000F0B503460D461E68986A021DB089B5FB00
:10300000F0F07789B0FBF7F400BF02CA09B90020DD
:10301000F0BD8C4200D202E0641A121DF5E700BF39
:1030200010682044F4E70246891ED069801E884259
:1030300001D8002070475389106B03FB0100F9E7AA
:103040002DE9F04780460C4604F11A0002F033FAED
:1030500010B10020BDE8F087207800F03F00401E4E
:1030600000EB800101EBC0054FF00109002621E0D3
:103070001849895D081902F01EFA0746B9F1000FD8
:1030800011D0FF2D0BD8384601F044FD8246294669
:103090006D1C38F8110001F03DFD824501D0002083
:1030A000D8E7B94605E04FF6FF70874201D000200F
:1030B000D0E7761C0D2EDBD3207800F0400038B12D
:1030C000B9F1000F04D038F8150008B10020C1E7AD
:1030D0000120BFE7B06200082DE9F047824688462C
:1030E000DAF80040B8F1000F06D1676917B1E0695E
:1030F000B84215D8012713E04146504601F06CFE56
:103100000546022D02D20120BDE8F087681C08B9EF
:103110002846F9E7E069A84201D92846F4E747467E
:10312000A06908B90020EFE70026474518D17E1CAA
:10313000E069B04200D802263146504601F04CFE0C
:103140000546012D01D0681C08B92846DCE73DB1D1
:103150006569022D03D3E069A84200D92F460026F5
:10316000E6B93E4600BF761CE069B04204D80226AC
:10317000BE4201D90020C7E73146504601F02CFE7F
:10318000054605B909E0012D01D0681C08B928469B
:10319000BAE7BE42E7D10020B6E700BF4FF0FF32EA
:1031A0003146204602F0A4FC8146B9F1000F08D157
:1031B000B8F1000F05D032464146204602F098FC97
:1031C0008146B9F1000F0DD16661D4E90610801E69
:1031D000814202D8A069401EA061207940F0010020
:1031E000207107E0B9F1010F02D14FF0FF3000E08C
:1031F00001200646304687E72DE9F34F85B081462A
:10320000069800680290D9F80000D0F810A00025B8
:1032100000BF02A802F061FE83460BF1010018B95D
:10322000062007B0BDE8F08FBBF5803F05D34FEA1D
:103230001B4228466D1C2AF810201FFA8BF4202C04
:1032400003DB2F2C01D05C2C00D111E0802C06DA9E
:1032500021467BA0FDF71BF808B10620E1E7FF2D12
:1032600001D30620DDE728466D1C2AF81040D0E780
:1032700000BF202C01DA042611E002E00298401C75
:103280000290029800782F28F8D0029800785C28E5
:10329000F4D0002602980078202800D20426029953
:1032A0000698016008E0681E3AF81040202C02D011
:1032B0002E2C00D002E06D1E002DF4D100BF0020A6
:1032C0002AF815000DB90620ABE7002700E07F1CA7
:1032D0003AF817002028FAD01FB93AF817002E281C
:1032E00001D146F0030600E06D1E25B1681E3AF8D4
:1032F00010002E28F8D120220B2109F12000FCF724
:10330000B4FF4FF00008CDF810800820039000BFF4
:1033100038467F1C3AF8104004B966E0202C03D0F0
:103320002E2C04D1AF4202D046F00306F0E7DDE9CF
:103330000310884201D2AF4216D103980B2802D164
:1033400046F0030651E0AF4201D046F00306AF421B
:1033500000D94AE02F46082004900B2003904FEA42
:1033600088604FEA1068D3E7802C0ADB46F002063B
:10337000204601F0CFFB4FF46A71019001F090FB01
:103380000446FF2C11DD0398401E0499884204D89E
:1033900046F0030603980490BAE722120498411CF1
:1033A000049109F120010A5418E024B1214627A014
:1033B000FCF76DFF18B15F2446F003060EE0412CC8
:1033C00003DB5A2C01DC48F00208612C06DB7A2C66
:1033D00004DC48F00108A4F1200084B20498411CE8
:1033E000049109F120010C5492E700BF99F82000E4
:1033F000E52802D1052089F820000398082803D188
:103400004FEA88604FEA106808F00C000C2803D0DF
:1034100008F00300032801D146F0020606F002007E
:1034200048B908F0010008B146F0100608F00400A1
:1034300008B146F008062B2000F809600020F0E6ED
:103440002A3A3C3E7C223F7F000000002B2C3B3D73
:103450005B5D00002DE9FF4F85B09A4603AA01216C
:10346000059800F038FB18B1012009B0BDE8F08FD5
:10347000DDF80C904FF03F08082701E07806070EB2
:1034800037B1B9FBF7F0B0FBF8F0B0F5806FF5D8C5
:1034900007B9FF274FF480515046FCF7EDFE0AF5BF
:1034A000DF764FF0000B444669E0069850F82B5049
:1034B000642D07D801D1484603E06420B9FBF0F041
:1034C000684305466019484501D8601901D3A9EB46
:1034D000040505B959E0214606F1080002F06FFC29
:1034E000294606F10C0002F06AFC07983071B4FB23
:1034F000F8F0B0FBF7F00490B4FBF8F0B0FBF7F194
:1035000007FB1100C0B20290B4FBF8F008FB1040BA
:10351000401CC0B2019002987070C021049801EA6A
:10352000900001990843B0700498F0706019401E33
:10353000B0FBF8F0B0FBF7F004906019401EB0FB50
:10354000F8F0B0FBF7F107FB1100C0B20290601970
:10355000401EB0FBF8F108FB1100401CC0B2019006
:1035600002987071C021049801EA90000199084303
:10357000B0710498F07110360BF1010B2C44BBF1C3
:10358000040F02D20CB14C458FD300BF4AF655212F
:103590000AF5FF7002F01FFC012300225146059836
:1035A00000F01AFB08B101205FE700205DE7000092
:1035B00001460B48007888420FDC09484078884271
:1035C00001DB0120704706488078884205DC04480A
:1035D000C078884201DB0120F4E70020F2E7000018
:1035E000BD620008014610480079884219DC0E4887
:1035F0004079884201DB012070470B48807988427E
:1036000005DC0948C079884201DB0120F4E706485F
:10361000007A884205DC0448407A884201DB0120B8
:10362000EAE70020E8E70000BD6200082DE9F0416C
:1036300004460E46D4F800800021204600F0E3F94D
:103640000546EDB9002700BF4046A16902F036FAF1
:10365000054605B113E0E0690078E52802D0E0698D
:10366000007820B9781C0746B04201D107E0002756
:103670000121204600F0B7F80546002DE4D000BF38
:10368000042D00D107252846BDE8F0812DE9F0473B
:1036900004468946204602F0FBFB10B10120BDE83C
:1036A000F08749462046FFF7BEFC064666634FF4A6
:1036B000805104F13800FCF7DFFD04F138080127E0
:1036C000002500E03D446089A84207D9721960785E
:1036D0003B46414600F080FA0028F3D06089A842BA
:1036E00001D00120DBE70020D9E72DE9F0470446AF
:1036F000D4F800A00021204600F085F9064616B156
:103700003046BDE8F0874FF0FF08C1464FF0FF306C
:10371000E06200BF5046A16902F0D0F9064606B14A
:103720005EE0E06905780DB9042659E0E069C07AE9
:1037300000F03F07A771E52D04D007F0080038B16D
:103740000F2F05D04FF0FF084FF0FF30E06240E050
:103750000F2F22D12B20005D00F0400098BB05F018
:10376000400038B1E06990F80D9005F0BF05A8461B
:103770002069E06245450CD1E069407B484508D1AD
:10378000E169DAF81000FFF75BFC10B1A8F1010065
:1037900000E0FF2000F0FF081BE0B8F1000F05D1AA
:1037A000E06902F01EFB484500D119E02B20005DC6
:1037B00000F0010040B90B2204F12001E069FCF7A0
:1037C00070FD08B90CE004E04FF0FF084FF0FF3047
:1037D000E0620021204600F006F80646002E99D04F
:1037E00000BF30468DE72DE9F04104468846266843
:1037F000206900F12007B7F5001F01D30020A06168
:10380000A06910B90420BDE8F081B089B7FBF0F1E0
:1038100000FB1170002847D1A069401CA0616069BD
:1038200038B93089B0EB571F3ED80020A061042082
:10383000E9E7B089B7FBF0F07189491E084098BBF1
:103840002046616901F0C8FA0546012D01D8022021
:10385000D9E7681C08B90120D5E7F069A8421DD84E
:10386000B8F1000F03D10020A0610420CBE720466F
:103870006169FFF731FC05460DB90720C3E7012D4B
:1038800001D10220BFE7681C08B90120BBE7294627
:103890003046FFF7FBFE08B10120B4E76561294619
:1038A0003046FFF7C0FBA0612761B089B7FBF0F19C
:1038B00000FB117106F138000844E0610020A2E726
:1038C0002DE9FE4F044626682B20005D00F0A00085
:1038D00010B10620BDE8FE8F4FF0000901E009F1AC
:1038E0000109306930F819000028F8D1D4E909122B
:1038F000206A8DE807009DF80B0000F0010028B356
:1039000040212B2001554FF001080EE04346694647
:1039100004F12000326901F0F5F92046FFF7E5FED9
:10392000054605B104E008F10108B8F1640FEDD3D4
:1039300000BFB8F1640F01D10720CBE7042D01D0FF
:103940002846C7E79DF80B102B2001559DF80B006A
:1039500000F0020030B109F10C000D21B0FBF1F0D4
:10396000401C00E00120074639462046FFF75EFE76
:1039700005464DBB781E071E26D02069A0EB4711D7
:10398000204600F040F80546F5B904F1200002F0A9
:1039900028FA824600BF3046A16902F08FF805463A
:1039A00005B110E0FAB2E1695346306902F068F9F6
:1039B0000120F07000212046FFF715FF054615B9DC
:1039C000781E071EE7D100BFDDB93046A16902F0BD
:1039D00075F80546ADB92021E069FCF74DFCE069BA
:1039E000216A0160616A4160218D018194F82A1089
:1039F00081722B20005D00F01800E169087301203E
:103A0000F070284666E72DE9F04104460E46256829
:103A1000B6F5001F02D206F01F0010B10220BDE86B
:103A2000F0812661A7681FB92878032800DBEF6AB8
:103A300047B92889B0EB561F01D80220EFE7E86AA2
:103A4000A0611DE06889A98900FB01F811E03946F1
:103A5000204601F0C1F90746781C08B90120DEE7CD
:103A6000022F02D3E869B84201D80220D7E7A6EBBB
:103A700008064645EBD239462846FFF7D4FAA0613E
:103A80006761A06908B90220C9E7A889B6FBF0F010
:103A9000A1690844A061A889B6FBF0F100FB11619F
:103AA00005F138000844E0610020B8E770B505462C
:103AB00015B1012D0DD107E001F076FC002000F0DA
:103AC00075F80446204670BD01F0F0FB0024204646
:103AD000F9E70120F7E7F0B589B007460E4615462D
:103AE00017B1012F3ED11DE036B1012E06D0022EB6
:103AF00009D0032E10D10BE000240FE040F608009F
:103B0000286000240AE04FF480502880002405E05B
:103B100001202860002401E0042400BF00BF2046EB
:103B200009B0F0BD36B1012E13D0022E04D0032E01
:103B300013D108E0002412E001A801F0E1FA08988E
:103B4000286000240BE00898C0F34F202880002450
:103B500005E007982860002401E0042400BF00BFAE
:103B60002046DDE70420DBE72DE9F04107468846E3
:103B700014461D4617B1012F16D108E02A03210370
:103B8000404602F087FA00263046BDE8F0812A461A
:103B90002146404601F062FB00BF01F0BBFA00285D
:103BA000FBD100263046F0E70420EEE770B506466C
:103BB00016B1012E0CD108E002F040FA0546054886
:103BC000854200D10024204670BD00242046FBE73A
:103BD0000120F9E71840EF002DE9F041074688463B
:103BE00014461D4617B1012F19D10BE0200302F036
:103BF0007DFA2A032103404602F0D4FA002630461B
:103C0000BDE8F0812A462146404601F03BFB00BF5B
:103C100001F080FA0028FBD100263046F0E70420AE
:103C2000EEE738B50546284600F0A4FD04463CB949
:103C30006946284602F077F904460CB9002028604E
:103C4000204638BD2DE9FF4F99B00E4619A801F066
:103C50005DF903900398002803DA0B201DB0BDE83E
:103C6000F08FF749039851F8200028B10021F44A59
:103C7000039852F8200001700398C0B216900020FB
:103C8000159006B9EF4E1698FFF710FF02900298B4
:103C900000F0010008B10320E0E7029800F0040002
:103CA00008B10A20DAE770681290129838B912AA9F
:103CB00003211698FFF70FFF08B101201290129808
:103CC00040B11298B0F5004F04D81298401E1299D6
:103CD000084008B10120129014AA02211698FFF79B
:103CE000FAFE08B10120B9E7BDF85000B0F5805FD9
:103CF0000BDCBDF85000B0F5007F06DBBDF85000CE
:103D0000401EBDF85010084008B10120A6E73078E9
:103D100000F00F0018907078012804DB70780228FA
:103D200001DC707800E001200590B16889B1B168CC
:103D3000B1F5004F0DD8BDF85000C11700EBD161AF
:103D40004911B268B2FBF1F301FB132109B9B16863
:103D500001E04FF400710491F068B0F1807F05D864
:103D6000F068411E084008B9F06800E000200690A5
:103D7000BDF850100698B0FBF1F00690BDF8501059
:103D80001C98B0FBF1F01390139808B9112065E767
:103D90001B9C0CB9112061E74FF0000ACDF83CA044
:103DA00000BF0FAA01211698FFF795FE08B1012068
:103DB00054E7189800F0080040B90F983F2805D93B
:103DC0004FF03F0A0F98A0EB0A000F900F98802841
:103DD00001D20E2042E700BF00BF0698802801D91B
:103DE00080200690189800F0020028B1189800F082
:103DF000010008B9032707E0189800F0010008B98E
:103E000013202BE7022700BF00BF01F07EF80F99B7
:103E10000844109000BF069D032F2DD195B90F982F
:103E20004FEA50494FF0000B012502E00BF1010B66
:103E30006D00854830F81B0020B1834830F81B0026
:103E40004845F3D90F98B0FBF5F8082000EB88003F
:103E5000BDF850100844401EB0FBF1F0089020203F
:103E60000990002007904FF6F570804502D97748F9
:103E7000804539D90E20F1E695B90F984FEA1039EF
:103E80004FF0000B012502E00BF1010B6D007048B3
:103E900030F81B0020B16E4830F81B004845F3D9BC
:103EA0000F98B0FBF5F840F6F570804503D9042073
:103EB00000EB480906E0012708EB4800401C0321FD
:103EC00001EB5009BDF850004844401EBDF85010A9
:103ED000B0FBF1F008900120099004984001BDF872
:103EE0005010B0FBF1F00790099850440E90059ADD
:103EF00008990E9801FB0201079808440D90129949
:103F00000D980844401E491E20EA01010D98A1EBBE
:103F10000009032F06D10998484409900E98484497
:103F20000E9013E00598B9FBF0F100FB119038B149
:103F3000A9F101090998401C09900E98401C0E90A7
:103F40000598B9FBF0F10898084408900D9800EB2B
:103F50000510A0EB0A000F99884201D90E207DE6DA
:103F60000F9909980A1A0599089800FB11210798DA
:103F7000081AB0FBF5F8032F0BD14FF6F57080450A
:103F800007D8069818B96808069000B135E00E20E9
:103F900064E6022F28D14FF6F570804517D90698B0
:103FA00030B94020B0EB450F02D36800069024E002
:103FB000189800F0020008B103271EE0069820B907
:103FC00068000690802800D817E00E2046E640F6EC
:103FD000F570804508D8069820B9680006908028BA
:103FE00000D80AE00E2039E6012F05D140F6F57021
:103FF000804501D90E2031E600E00CE700BFBDF896
:1040000050102046FCF738F912A001682160416881
:10401000616001892181807AA072BDF8501004F19D
:104020000B0001F0D8FE6573099881B204F10E000F
:1040300001F0D1FE05982074032F11D1002010E06B
:104040005C000020E4620008D6620008F5FFFF0F64
:10405000C8620008EBFE904D53444F53352E30009C
:10406000049881B204F1110001F0B5FE0F98B0F58B
:10407000803F06D20F9881B204F1130001F0ABFE2D
:1040800004E004F120000F9901F099FEF82060751A
:104090003F2104F1180001F09EFEFF2104F11A00F7
:1040A00001F099FE514604F11C0001F088FE032F37
:1040B00025D104F14300109901F081FE04F12400A0
:1040C000089901F07CFE022104F12C0001F077FE3A
:1040D000012104F1300001F07EFE062104F13200DE
:1040E00001F079FE802084F84000292084F8420005
:1040F000132283A104F14700FCF7A5F816E004F1B0
:104100002700109901F05BFE089881B204F11600B7
:1041100001F061FE802084F82400292084F8260024
:1041200013227CA104F12B00FCF78DF84AF65521EF
:1041300004F5FF7001F04FFE012352462146169808
:10414000FFF74AFD08B1012088E5032F33D1012391
:104150000AF1060221461698FFF73EFDBDF8501001
:104160002046FCF789F87049204601F028FE6F4987
:1041700004F5F27001F023FEA8F1010104F5F470DA
:1041800001F01DFE022104F5F67001F018FE4AF65A
:10419000552104F5FF7001F01EFE01230AF107020C
:1041A00021461698FFF718FD01230AF10102214666
:1041B0001698FFF711FDBDF85020139800FB02F18F
:1041C0002046FCF759F80E980C904FF0000B40E099
:1041D000032F0FD16FF00701204601F0F0FD391FCA
:1041E000201D01F0ECFD6FF0704104F1080001F0BA
:1041F000E6FD09E0012F01D14D4801E06FF0070015
:104200000146204601F0DBFD0898119000BF13998C
:104210001198884201D9139800E0119881464B46C5
:1042200021460C9A1698FFF7D7FC08B1012015E536
:10423000BDF850102046FCF71FF80C9848440C902D
:104240001198A0EB0900119011980028DFD10BF113
:10425000010B05988345BBD3032F01D1284600E00D
:104260000798119000BF13991198884201D91398AB
:1042700000E0119881464B4621460C9A1698FFF7AC
:10428000ABFC08B10120E9E40C9848440C9011986B
:10429000A0EB0900119011980028E4D100BF032F72
:1042A00002D10C2017900CE00F98B0F5803F02D39C
:1042B0000620179005E0022F01D1042000E0012024
:1042C000179000BF189800F0080070B90F980A9076
:1042D00000200B9023460AA9DDE91602FFF7BAF881
:1042E0000190019808B10198B8E40022114616988F
:1042F000FFF7F1FB08B10120B0E40020AEE40000BC
:104300004E4F204E414D452020202046415433320F
:10431000202020004E4F204E414D45202020204699
:10432000415420202020200052526141727241618C
:10433000F8FFFF00F7B582B016460398019001A878
:1043400000F0E4FD0546002D02DA0B2005B0F0BDBB
:104350000C4850F825400CB100202070029810B194
:104360000020029908700749029841F825000EB90B
:104370000020EBE7002202A903A801F025FA074676
:104380003846E3E75C0000202DE9F74FADF50E7DE0
:104390000446164624B909200DF5117DBDE8F08FBD
:1043A00006F03F06324681A98FA801F00DFA0546B6
:1043B000002D73D1819882908199C1F810D082A884
:1043C0008F9900F03BFC05462DB99DF8330200F0B3
:1043D000800000B1062506F01C00002856D045B12B
:1043E000042D03D182A8FFF76BFA054646F00806B4
:1043F0000AE09DF80E0200F0110008B1072503E065
:1044000006F0040000B10825002D51D106F0080087
:1044100000284DD000F079FD8090899901F10E00BF
:10442000809901F0CCFC899901F11600809901F086
:10443000C6FC8999819801F01FF88146202089994E
:10444000C87200228999819801F0A7FC899901F12D
:104450001C00002101F0B3FC01208199C870B9F162
:10446000000F25D08198D0F834A00022494682A8B8
:1044700001F046FC0546DDB95146819801F01EFB6E
:104480000546A9F101008199486111E085B99DF8BF
:104490000E0200F0100010B1042509E065E006F0FE
:1044A000020028B19DF80E0200F0010000B10725BE
:1044B0004DB906F0080008B146F040068198406BFF
:1044C000206289986062002D60D18999819800F0FE
:1044D000D3FFA060899901F11C0000F0E0FFE060CB
:1044E0000020A062819820608198C088A0802674F6
:1044F00000206074E06160614FF4805104F12C0091
:10450000FBF7BAFE06F0200078B3E06868B3E06815
:104510006061819840898199898900FB01FBA768C6
:10452000D4F80C800CE03946204600F055FC0746D4
:10453000012F00D80225781C00B90125A8EB0B0833
:104540000DB9D845EFD8A7617DB981988089B8FBAE
:10455000F0F100FB118040B139468198FEF763FD10
:104560008246BAF1000F01D102250FE081988089BF
:10457000B8FBF0F05044E061E2698199487801238A
:1045800004F12C01FFF7F0FA00B101250DB1002074
:104590002060284600E72DE9FF4F85B00446154608
:1045A0009A46DDF818B00020CAF8000003A920469A
:1045B00001F0B9FC0490049810B9607C049018B123
:1045C000049809B0BDE8F08F207C00F0010008B924
:1045D0000720F6E76169E068401A0190019885427A
:1045E00000D9019DC1E0606903998989B0FBF1F2AE
:1045F00001FB120000287ED1606903998989B0FB14
:10460000F1F003994989491E00EA0109B9F1000F47
:104610001FD1606910B9A06802900CE0A06A28B1AF
:1046200020466169FEF7E4FC029004E02046A1699F
:1046300000F0D2FB02900298022802D2022060749D
:10464000BFE70298401C10B901206074B9E70298D6
:10465000A061A1690398FEF7E6FC064616B90220A0
:104660006074AEE74E4403988089B5FBF0F8B8F16A
:10467000000F2DD009EB080003994989884203D91E
:1046800003984089A0EB09080399487843463246CD
:104690005946FFF769FA10B10120607491E7207C58
:1046A00000F0800078B1E069801B40450BD2E169E1
:1046B000891B039B9B8901FB03B003998A8904F141
:1046C0002C01FBF7C0FD0398808900FB08F742E04E
:1046D000E069B04220D0207C00F0800080B1E26927
:1046E00003994878012304F12C01FFF775FA18B1FA
:1046F0000120607465E710E0207C00F07F002074EA
:10470000039948780123324604F12C01FFF72CFA73
:1047100010B10120607454E7E661606903998989EA
:10472000B0FBF1F201FB1200039989890F1AAF4225
:1047300000D92F46606903998989B0FBF1F201FB2A
:10474000120104F12C0008443A46014600905846F4
:10475000FBF779FD00BFED1BDAF800003844CAF81A
:104760000000BB44606938446061002D7FF43BAFBA
:10477000002026E7F8B504466946204601F0D3FB41
:104780000646002E44D1207C00F0400000283FD097
:10479000207C00F0800070B1E26900994878012324
:1047A00004F12C01FFF718FA08B10120F8BD207CB4
:1047B00000F07F00207400F0A8FB0746216A0098F3
:1047C00001F07CF906461EBB656AE87A40F02000DD
:1047D000E8722946A268206801F0DFFA05F11C00A2
:1047E000E16801F0ECFA394605F1160001F0E7FA4C
:1047F000002105F1120001F0EEFA01200099C870C5
:10480000009801F0FFFA0646207C00F0BF002074FB
:104810003046CBE72DE9FF4F85B0044615469B4651
:10482000069802900020CBF8000003A9204601F072
:104830007AFB0490049810B9607C049018B1049835
:1048400009B0BDE8F08F207C00F0020008B9072015
:10485000F6E700BF606928446169884202D2606956
:10486000C0F1FF35DEE0606903998989B0FBF1F2A0
:1048700001FB120000287CD1606903998989B0FB93
:10488000F1F003994989491E00EA010ABAF1000FC3
:1048900026D1606938B9A76897B900212046FEF78C
:1048A0001BFC07460CE0A06A28B120466169FEF7B0
:1048B0009FFB074604E02046A169FEF70DFC074672
:1048C00007B9B2E0012F02D102206074B8E7781C6A
:1048D00010B901206074B3E7A761A06800B9A760B0
:1048E000207C00F0800078B1E269039948780123C8
:1048F00004F12C01FFF770F910B1012060749FE7FB
:10490000207C00F07F002074A1690398FEF78BFBE8
:10491000064616B90220607492E7564403988089CF
:10492000B5FBF0F9B9F1000F31D00AEB090003999A
:104930004989884203D903984089A0EB0A09039961
:1049400048784B4632460299FFF746F910B10120EC
:10495000607475E7E069801B484513D2E069831BEA
:104960000398B0F80CC0029803FB0C0103988289ED
:1049700000E020E004F12C00FBF765FC207C00F057
:104980007F0020740398808900FB09F835E0E06916
:10499000B0420FD0E168606988420BD20399487831
:1049A0000123324604F12C01FFF7DEF810B101209B
:1049B000607445E7E661606903998989B0FBF1F2AB
:1049C00001FB120003998989A1EB0008A84500D9D1
:1049D000A846606903998989B0FBF1F201FB1201D5
:1049E00004F12C000844424601900299FBF72BFC8D
:1049F000207C40F08000207400BFA5EB0805DBF8A8
:104A000000004044CBF800000298404402906069E6
:104A100040446061E1686069884201D9606900E0F2
:104A2000E068E060002D7FF41EAF00BF207C40F006
:104A300040002074002003E7F0B502460E46002037
:104A40000021802A01DA104627E0B6F56A7F24D1DA
:104A5000124B45F220570025102414E0A7EB050C5B
:104A600005EB5C014FEA410C33F81CC0944500D1C2
:104A70000BE04FEA410C33F81CC0944501DA0D46B7
:104A800000E00F46641E002CE8D100BF2CB14FF0AF
:104A9000010C0CEB410C33F81C00F0BD78B7010899
:104AA0002DE9F04102460F4600200021802A01D264
:104AB00090B22BE0B2F5803F28D2B7F56A7F25D1BE
:104AC00095B2134B45F2205C0026102414E0ACEBA9
:104AD000060806EB58014FEA410833F81880A8454C
:104AE00000D10BE04FEA410833F81880A84501DAFD
:104AF0000E4600E08C46641E002CE8D100BF2CB1AD
:104B00004FF0010808EB410833F81800BDE8F081C8
:104B1000F462000870B5B0F5803F4DD281B2B1F5B6
:104B2000805F01DA254E00E0254E324600BF32F8A4
:104B3000023B0BB1994200DA3CE032F8024B2512FD
:104B4000E4B21E198E4230DD092D2CD2DFE805F0CB
:104B500005090F13171B1F232700CE1A32F8161052
:104B600021E0CE1A06F001068E1BB1B21BE0A1F1C6
:104B70001006B1B217E0A1F12006B1B213E0A1F125
:104B80003006B1B20FE0A1F11A06B1B20BE001F1AB
:104B90000806B1B207E0A1F15006B1B203E0A1F5F9
:104BA000E356B1B200BF00BF04E0002DBFD102EB5D
:104BB0004402BCE700BF084670BD0000FC0B0308C0
:104BC000EE0D03082DE9FF4107460D46002138464A
:104BD000FEF79EF90646022E06D0032E00D21DB91E
:104BE000304604B0BDE8F08100BF00240AE007F5BC
:104BF000FB7101EB041101F1080000F050FC4DF8CD
:104C00002400641C042CF2D30DB1681E00E00020C7
:104C1000044600BF5DF8240028B15DF82410384632
:104C2000FEF776F900E0032006462DB9022E03D3E5
:104C3000601C04460428EDD33046D2E72DE9F34149
:104C40000446276802E00198401C01900198007812
:104C50002F28F8D0019800785C28F4D00020A060BC
:104C600001980078202808D280212B2001550021AE
:104C70002046FEF7C8FE054631E000BF01A92046E8
:104C8000FEF7BAFA054605B128E02046FEF72DFDED
:104C900005462B20065D3DB1042D04D100BF06F072
:104CA000040000B9052519E006F0040000B115E084
:104CB000A07900F0100008B905250FE0B989206936
:104CC000B0FBF1F201FB120107F1380001EB000823
:104CD0004146384600F0D0FBA060CFE700BF284631
:104CE000BDE8FC8138B504460D4600944FF47A7354
:104CF000012269460248FCF728FF204638BD000023
:104D00006C0000202DE9FF4F83B0074691461E46F8
:104D10000498016839604168796001893981807A35
:104D2000B872052E19D9B04612E039F802BB00243A
:104D30000CE0584668F35F0080464FEA6B0B08F4BE
:104D4000803010B1234888EA0008641C102CF0D38E
:104D5000B9F800000028E8D14646072400BF06F055
:104D60000F0000F1300A3609BAF1390F03DD0AF1FC
:104D7000070000F0FF0A2046641E01A901F800A008
:104D80000CB1002EEBD17E2001A90855002509E0C9
:104D9000785DFEF70DFC20B1601EA84200D106E050
:104DA0006D1C6D1CA54202D2785D2028F0D100BF99
:104DB00000BF082C04D22046641C01A9085C00E056
:104DC000202029466D1C7854082DF2D307B0BDE889
:104DD000F08F0000211001002DE9F05F81460D46A3
:104DE000D9F80040022D02D3E069A84202D84FF062
:104DF000010887E04FF0FF382078012804D002280E
:104E00003AD003287AD156E02E4606EB5606A08902
:104E1000B6FBF0F0A16A00EB010A5146204600F013
:104E20004DFE00B16DE03046761CA189B0FBF1F279
:104E300001FB120104F13800475CA089B6FBF0F0D9
:104E4000A16A00EB010A5146204600F037FE00B18E
:104E500057E0A089B6FBF0F100FB116104F13800C6
:104E6000405C47EA002705F0010008B1380901E07D
:104E7000C7F30B00804644E0B4F80CA00AEBDA70EC
:104E80004010B5FBF0F0A16A00EB010B594620463B
:104E900000F014FE00B134E06800A189B0FBF1F22B
:104EA00001FB120104F1380001EB000A504600F04A
:104EB00002FB804625E0B4F80CA04FEAEA700AEB4A
:104EC00090708010B5FBF0F0A16A00EB010B594621
:104ED000204600F0F3FD00B113E0A800A189B0FB6B
:104EE000F1F201FB120104F1380001EB000A504617
:104EF00000F0D5FA20F0704803E0FFE74FF001081A
:104F000000BF00BF4046BDE8F09F704770B5044643
:104F10004FF0FF3026683146324601B970BD00BF00
:104F200012F8013B202B01D33A2BF9D13A2B11D1A6
:104F300002250E78302E08DB0E78392E05DC8E1C0B
:104F4000964202D10E78A6F13005022D01DA2846EC
:104F50002260E3E7002000BFE0E7000000B587B073
:104F600000BF002001901148006840F001000F4987
:104F700008600846006800F00100019000BF00BF13
:104F8000142102A8FBF778F94FF4C06002900220C8
:104F9000039000200490032005900720069002A9AA
:104FA0000348FBF7EDF907B000BD000030380240C0
:104FB0000000024008B500BF0020009010480068C3
:104FC00040F010000E4908600846006800F010002C
:104FD000009000BF00BFFFF7C1FF0A480A49086000
:104FE0004FF4E1304860002107488160C1600161F1
:104FF0000C21416100218161C161FCF76CFD08BD9C
:1050000044380240001001406C00002000B587B019
:10501000142102A8FBF730F900BF002001901948C5
:10502000006840F00200174908600846006800F078
:105030000200019000BF00BF00BF002001900846A1
:10504000006840F0020008600846006800F00200B6
:10505000019000BF00BF12200390002004900320A5
:105060000590042006904020029002A90648FBF714
:1050700087F98020029002A90348FBF781F907B065
:1050800000BD0000303802400004024008B500BFF7
:10509000002000901648006840F400101449086091
:1050A0000846006800F40010009000BF00BFFFF742
:1050B000ADFF1048104908601048486000210E48B4
:1050C00081604FF48041016100214161C161016251
:1050D0000A21C16000218161FBF7B2FA0021064874
:1050E000FBF760FA00210448FBF782FA08BD0000D4
:1050F000403802400054004008010020A086010012
:1051000010B5044621460248FCF766F910BD0000C0
:105110005C01002010B50448FCF771F9042801D0A7
:10512000012010BD0020FCE75C01002000B587B025
:1051300000BF002001904648006840F00400444948
:1051400008600846006800F00400019000BF00BF3E
:1051500000BF002001900846006840F0040008608D
:105160000846006800F00400019000BF00BF00BFC7
:10517000002001900846006840F0040008600846DE
:10518000006800F00400019000BF00BF00BF0020D5
:1051900001900846006840F0040008600846006876
:1051A00000F00400019000BF00BF00BF002001908C
:1051B0000846006840F0040008600846006800F0F7
:1051C0000400019000BF00BF00BF0020019008460E
:1051D000006840F0080008600846006800F0080019
:1051E000019000BF00BFFDF751FD02200390002099
:1051F0000490022005900C2006904FF480700290DD
:1052000002A91448FBF7BCF84FF40070029002A901
:105210001048FBF7B5F84FF48060029002A90D48E2
:10522000FBF7AEF84FF40060029002A90948FBF7C3
:10523000A7F84FF48050029002A90648FBF7A0F8A7
:105240000420029002A90448FBF79AF807B000BDB9
:105250003038024000080240000C0240F8B5044615
:105260000D4616464FF47A7033462A462146009082
:105270000348FCF74DF908B1FBF76BF8F8BD0000E7
:105280005C010020F8B504460D4616464FF47A70CE
:1052900033462A46214600900348FCF785FA08B1B8
:1052A000FBF757F8F8BD00005C01002008B500BF0F
:1052B000002000901648006840F40060144908601F
:1052C0000846006800F40060009000BF00BFFFF7D0
:1052D0002DFFFDF7DBFC0F480F49086000204860F8
:1052E00000210D488160C16001614FF4804141613E
:1052F00004218161FCF795F808B1FBF72AF84FF417
:1053000000610548FBF720FF08B1FBF722F808BD54
:1053100044380240002C01405C01002000B587B0F9
:1053200000BF002001901E48006840F020001C498A
:1053300008600846006800F02000019000BF00BF30
:10534000142102A8FAF798FF402002900120039050
:10535000002004900220059002A91248FBF710F8E3
:10536000012240210F48FBF711F980200290022012
:1053700003900520069002A90A48FBF701F84FF4B4
:105380008070029002A90748FAF7FAFF4FF4007004
:10539000029002A90348FAF7F3FF07B000BD00002E
:1053A000303802400014024008B5FFF7B7FF00BFD5
:1053B000002000901748006840F4801015490860EC
:1053C0000846006800F48010009000BF00BF12483B
:1053D000124908604FF48270486000210F488160D4
:1053E000C160022101610121416149028161002105
:1053F000C1610162416281620721C162FCF7ECFA7E
:1054000006480068006840F04000044909680860E8
:1054100008BD00004438024000500140B0000020A8
:10542000014642F2107205E0101EA2F101039AB289
:1054300000D170470F4800688068C0F34000002822
:10544000F2D00C480068C16042F2107205E0101EF4
:10545000A2F101039AB200D1EBE706480068806828
:1054600000F001000028F2D002480068C068C0B215
:10547000DFE70000B000002070B505460C4604F1DF
:105480001A0000F018F806462878032805D104F120
:10549000140000F010F846EA0046304670BD0146A0
:1054A000C8788A7842EA00204A7842EA00200A78DE
:1054B00042EA00207047014648780A7842EA002014
:1054C00070470000FBF7B2F9FDF716FAFCF7A8FBEE
:1054D000FFF770FDFFF7DAFD01224CA14C48FEF703
:1054E00029FF4C490870084600780D282FD14AA0A2
:1054F000FDF7F6FB4FF400734E4A002143A0FEF780
:10550000A1FB444908700846007800281BD14AA036
:10551000FDF7E6FB01223DA10020FEF70BFF3D4910
:105520000870012239A13A48FEF704FF3949087092
:105530000846007818B948A0FDF7D2FB13E054A044
:10554000FDF7CEFB0FE05FA0FDF7CAFB0BE0314893
:10555000007828B12F48017860A0FDF7C1FB02E078
:1055600069A0FDF7BDFB0B226EA17148FEF70CFF91
:105570002849087008460078A8B96E4B43226E4946
:105580006B48FFF747F9234908700846007818B9B7
:105590006AA0FDF7A5FB02E06FA0FDF7A1FB644840
:1055A000FEF73FFB02E071A0FDF79AFB01225DA12F
:1055B0005F48FEF7E9FE1749087008460078B8B959
:1055C0005C4B4FF480626E495948FEF7E4FF114985
:1055D00008700846007838B96AA0FDF781FB684971
:1055E0006EA0FDF77DFB06E072A0FDF779FB02E0FF
:1055F0005EA0FDF775FB4E48FEF713FB012203A1E9
:105600000020FEF797FE00BFFEE70000313A0000E1
:10561000E0010020100000205344206361726420E8
:105620006E6F742066696C65207379737465726D32
:105630000A00000044260020534420636172642065
:10564000666F726D617474656420737563636573EE
:105650007366756C6C790A00546865205344206346
:105660006172642077617320666F726D6174746516
:105670006420616E642072656D6F756E7465642060
:105680007375636365737366756C6C790A000000EB
:105690005344206361726420666F726D6174746537
:1056A00064207375636365737366756C6C792061D0
:1056B0006E64206661696C656420746F206D6F751F
:1056C0006E740A005344206361726420666F726DC9
:1056D0006174206661696C65640A0000534420634C
:1056E000617264206D6F756E74206661696C6564AB
:1056F0002C2072657475726E20706172616D6574B4
:1057000065723A25640A0000534420636172642084
:105710006D6F756E74207375636365737366756CF6
:105720006C790A00313A66696C652E7478740000F1
:1057300018120020140000201800002077726974ED
:10574000652066696C652073756363657373667540
:105750006C6C790A000000007772697465206669D4
:105760006C65206661696C65640A00004F70656E47
:105770002066696C65206661696C65640A000000DA
:1057800044220020726561642066696C652073752F
:10579000636365737366756C6C790A005265616446
:1057A0002066696C6520646174612061733A200A27
:1057B00025730000726561642066696C652066610E
:1057C000696C65640A0000002DE9F74F84B0002180
:1057D000059801600498FFF799FB0390039800284F
:1057E00003DA0B2007B0BDE8F08FAF49039851F8FA
:1057F00020400CB90C20F5E705980460069800F0ED
:10580000FE000690207878B16078FEF7CFF9074661
:1058100007F0010040B9069820B107F0040008B174
:105820000A20DFE70020DDE7002020700398607089
:105830006078FEF73BF9074607F0010008B1032046
:10584000D0E7069820B107F0040008B10A20C9E7A4
:10585000607804F10C020221FEF73DF908B1012045
:10586000C0E7A089B0F5805F07DCA089B0F5007FB4
:1058700003DBA089411E084008B10120B2E70021E6
:105880002046FFF79FF90546042D01D10120A9E725
:10589000022D01D30D20A5E7D4F8349004F1430084
:1058A000FFF709FEA189884201D00D209AE704F193
:1058B0004E00FFF700FE064626B904F15C00FFF734
:1058C000EEFD064626624820005DA070A078012803
:1058D00004D0A078022801D00D2083E7A0784643A9
:1058E0004520005D6081608918B16089411E0840D3
:1058F00008B10D2076E704F14900FFF7DCFD2081B7
:10590000A089C11700EBD1614911228992FBF1F303
:1059100001FB132109B10D2064E704F14B00FFF7EF
:10592000CAFD8246BAF1000F04D104F15800FFF716
:10593000B6FD824604F14600FFF7BDFD8346BBF18C
:10594000000F01D10D204DE7A089C11700EBD161F7
:105950004911228992FBF1F10BEB060211440291ED
:1059600002998A4501D20D203CE70298AAEB00007B
:105970006189B0FBF1F8B8F1000F01D10D2031E7DA
:1059800000254A48804500D803254FF6F57080452C
:1059900000D8022540F6F570804500D801250DB9E4
:1059A0000D201FE708F10200E061C4F8249009EB24
:1059B0000B00A062029848442063032D13D104F128
:1059C0006200FFF778FD08B10D200BE7208908B1D0
:1059D0000D2007E704F16400FFF761FDE062E06974
:1059E0008000019014E0208908B90D20FAE6A06A31
:1059F0003044E062022D02D1E069400007E0207FE0
:105A000000F00100E16901EB410100EB5100019060
:105A1000A089401E01990844A189B0FBF1F0216AD8
:105A2000884201D90D20DDE64FF0FF30A0616061B2
:105A300080202071032D2DD104F16800FFF73BFD7C
:105A4000012827D109F10101204600F037F808BBF1
:105A50000020207104F23620FFF72DFD4AF6552173
:105A6000884217D104F13800FFF719FD1049884228
:105A700010D104F50770FFF712FD0E49884209D1D5
:105A800004F50870FFF70BFDA06104F50970FFF73E
:105A900006FD6061257008480088401C80B20649F8
:105AA0000880E08000209DE65C000020F5FFFF0FED
:105AB00052526141727241616400002070B5044627
:105AC0000D460026606BA84210D0204600F0E0F999
:105AD00006465EB9607801232A4604F13801FEF7D4
