:020000040800F2
:1000000000280020C1010008951700081B170008F0
:100010009117000839030008F725000800000000C8
:100020000000000000000000000000005D22000849
:100030003D03000800000000991700085F22000837
:10004000DB010008DB010008DB010008DB01000820
:10005000DB010008DB010008DB010008DB01000810
:10006000DB010008DB010008DB010008DB01000800
:10007000DB010008DB010008DB010008DB010008F0
:10008000DB010008DB010008DB010008DB010008E0
:10009000DB010008DB010008DB010008DB010008D0
:1000A000DB010008DB010008DB010008DB010008C0
:1000B000DB010008DB010008DB010008DB010008B0
:1000C000DB010008DB010008DB010008DB010008A0
:1000D000DB010008DB010008DB010008DB01000890
:1000E000DB010008DB010008DB010008DB01000880
:1000F000DB010008DB010008DB010008DB01000870
:10010000DB010008DB010008DB010008DB0100085F
:10011000DB010008DB010008DB010008DB0100084F
:10012000DB010008DB010008DB010008DB0100083F
:10013000DB010008DB010008DB010008DB0100082F
:10014000DB010008DB010008DB010008DB0100081F
:10015000DB010008DB010008DB010008DB0100080F
:10016000DB010008DB010008DB010008DB010008FF
:10017000DB010008DB010008DB01000800000000D3
:10018000DB010008DB010008DB010008DB010008DF
:10019000DB010008DB010008DB010008DB010008CF
:1001A000DB010008DB010008DB010008DFF80CD0F0
:1001B00000F0B0F800480047B138000800280020DF
:1001C0000648804706480047FEE7FEE7FEE7FEE7F1
:1001D000FEE7FEE7FEE7FEE7FEE7FEE72523000871
:1001E000AD0100082DE9F05F0546002092469B46D0
:1001F00088460646814640241BE02846414647463D
:10020000224600F076F853465A46C01A914110D360
:1002100011461846224600F05DF82D1A67EB0108DA
:100220004F4622460120002100F054F817EB000948
:100230004E41201EA4F10104DFDC484631462A4627
:100240004346BDE8F09F40EA01039B0703D009E065
:1002500008C9121F08C0042AFAD203E011F8013BB2
:1002600000F8013B521EF9D27047D2B201E000F80B
:10027000012B491EFBD270470022F6E710B513464A
:100280000A4604461946FFF7F0FF204610BD30B578
:1002900004460020034600E05B1C934203D2E05C6E
:1002A000CD5C401BF8D030BD30B50B460146002078
:1002B0002022012409E021FA02F59D4205D303FA28
:1002C00002F5491B04FA02F52844151EA2F10102A9
:1002D000F1DC30BD202A04DB203A00FA02F10020D4
:1002E00070479140C2F1200320FA03F31943904074
:1002F0007047202A04DB203A21FA02F000217047DF
:1003000021FA02F3D040C2F120029140084319467D
:1003100070470000064C074D06E0E06840F001031E
:1003200094E8070098471034AC42F6D3FFF742FF39
:10033000744100089441000800BFFEE7704772B6A0
:1003400000BFFEE770B5044600F01CF906462546DE
:10035000681C10B104480078054400BF00F012F991
:10036000801BA842FAD370BD0C000020F8B50246ED
:100370000B460025002400200021DFE0012606FABC
:1003800001F51E6806EA0504AC4274D11E7906F038
:100390000306012E04D01E7906F00306022E13D1A7
:1003A00090684F000326BE40B0434F00DE68BE4059
:1003B00030439060506801268E40B0431E79C6F3EA
:1003C00000168E40304350601E7906F00306032E5F
:1003D00009D0D0684F000326BE40B0434F009E684E
:1003E000BE403043D0601E7906F00306022E13D1C2
:1003F000CF0802F1200656F827004E07F70E0F2609
:10040000BE40B0434F07FF0E1E69BE403043CF08C9
:1004100002F1200646F8270010684F000326BE4070
:10042000B0431E7906F003064F00BE403043106013
:100430005E6806F44036002E7FD000BF002600968E
:10044000404E366846F480463E4F3E603E46366833
:1004500006F48046009600BF00BF3B4E8F0856F85A
:1004600027008E07370F0F26BE40B043374EB242EB
:1004700002D100262EE060E0354EB24201D10126C5
:1004800028E0344EB24201D1022623E0324EB2427D
:1004900001D103261EE0314EB24201D1042619E0FB
:1004A0002F4EB24201D1052614E02E4EB24201D1A8
:1004B00006260FE02C4EB24201D107260AE02B4E51
:1004C000B24201D1082605E0294EB24201D10926E7
:1004D00000E00A268F073F0FBE4030431A4E8F08B8
:1004E00046F82700234E3068A0435E6806F4803645
:1004F00006B120431F4E3060361D3068A0435E6851
:1005000006F4003606B120431A4E361D3060361D03
:100510003068A0435E6806F4801606B12043154E8D
:1005200008363060361D3068A0435E6806F4001659
:1005300006B120430F4E0C363060491C1029FFF4E1
:100540001DAFF8BD443802400838014000000240A9
:100550000004024000080240000C0240001002406B
:100560000014024000180240001C0240002002401B
:1005700000240240003C01400AB1816101E00B040B
:100580008361704701480068704700000400002044
:10059000024692F83D0020281ED1242082F83D001A
:1005A0001068006820F00100136818601068406A45
:1005B00020F01000136858621068406A08431368FE
:1005C00058621068006840F001001368186020202D
:1005D00082F83D00002070470220FCE710B502467B
:1005E0000B46002192F83D0020281DD1242082F8DE
:1005F0003D001068006820F0010014682060106859
:10060000406A81B221F00F0141EA030081B2106813
:1006100041621068006840F00100146820602020EA
:1006200082F83D00002010BD0220FCE770B50446B2
:100630000CB9012070BD94F83D0028B9002084F861
:100640003C00204600F0DAF8242084F83D002068C1
:10065000006820F00100216808602068006840F40C
:100660000040216808602068006820F4004021688C
:10067000086000F099FA05465C496068884206D82F
:100680005B48854201D2012007E0002005E059487F
:10069000854201D2012000E00020012800D1C9E7F5
:1006A0005548B5FBF0F62068406820F03F00304325
:1006B000216848604D496068884201D8701C07E095
:1006C0004FF4967070434FF47A71B0FBF1F0401C18
:1006D0002168096A21F03F01084321680862434903
:1006E0006068884214D8681E61684900B0FBF1F068
:1006F000401CC0F30B00042801D204203DE0681E1A
:1007000061684900B0FBF1F0401CC0F30B0034E01D
:10071000A06838B9681E616801EB4101B0FBF1F0D7
:10072000401C0AE0681E616801EBC10202EB011186
:10073000B0FBF1F0401C40F48040C0F30B0008B95E
:1007400001201AE0A06848B9681E616801EB410108
:10075000B0FBF1F0401CC0F30B000CE0681E6168B8
:1007600001EBC10202EB0111B0FBF1F0401CC0F340
:100770000B0040F4804040F400402168C9694CF609
:10078000FF72914308432168C861D4E90701084317
:100790002168096821F0C001084321680860D4E994
:1007A000031008432168896848F2FF3291430843E7
:1007B00021688860D4E9050108432168C96821F0EF
:1007C000FF0108432168C8602068006840F001000C
:1007D0002168086000202064202084F83D0000206B
:1007E000206384F83E0000BF24E70000A0860100DB
:1007F00080841E0000093D0040420F007047000049
:1008000003480068034909780844014908607047B3
:10081000040000200C00002010B50D48006840F4D2
:1008200000700B4908600846006840F4806008606A
:100830000846006840F480700860032000F092F8D9
:100840000F2000F007F800F02BF8002010BD00008A
:10085000003C024070B504460E4800784FF47A71AF
:10086000B1FBF0F00C490968B1FBF0F5284600F047
:1008700097FE08B1012070BD102C07D2002221463E
:10088000501E00F031F80548046001E00120F2E755
:100890000020F0E70C0000200000002008000020ED
:1008A00008B500BF002000900E48006840F480406A
:1008B0000C4908600846006800F48040009000BFC2
:1008C00000BF00BF00200090081F006840F080506B
:1008D000091F08600846006800F08050009000BFC3
:1008E00000BF08BD443802402DE9F05F80460D4648
:1008F0001646002701F0BCFE074639462A46334615
:1009000001F00700C0F1070ABAF1040F02D94FF055
:10091000040A01E0C0F1070AD14600F1040ABAF165
:10092000070F02D24FF0000A01E0A0F1030AD446FB
:100930004FF0010A0AFA09FAAAF1010A0AEA020AC0
:100940000AFA0CFA4FF0010B0BFA0CFBABF1010B9E
:100950000BEA030B4AEA0B042146404601F090FEE5
:10096000BDE8F09F00BF00F00702064B19684FF684
:10097000FF031940044B0B4343EA0221014B19606A
:1009800000BF70470CED00E00000FA0538B5002408
:1009900000BF002000901D48006840F080501B49B7
:1009A00008600846006800F08050009000BF00BF5B
:1009B000012017490864FFF7E5FD044607E0FFF74B
:1009C000E1FD001BB0F57A7F01D9032038BD114845
:1009D000406800F48030B0F5803FF0D101200C4930
:1009E0004864FFF7CFFD044607E0FFF7CBFD001B8F
:1009F000B0F57A7F01D90320E8E70648406800F4A3
:100A00000030B0F5003FF0D10020DFE74038024071
:100A100000000E420070004070B504460D460CB94F
:100A2000012070BD5848006800F00F00A84209D2AC
:100A300055490D700846006800F00F00A84201D02B
:100A40000120EEE7207800F0020002281DD1207876
:100A500000F00400042805D14C48006840F4E05040
:100A60004A490860207800F00800082805D1474866
:100A7000006840F46040454908604448006820F040
:100A8000F000A168084341490860207800F00100A7
:100A9000A8B36068012807D13C4808380068C0F353
:100AA0004040B8B90120BCE76068022802D0606805
:100AB000032807D1354808380068C0F3406048B9BA
:100AC0000120AEE7314808380068C0F3400008B99B
:100AD0000120A6E72D48006820F003006168084364
:100AE0002A490860FFF74EFD064609E0FFF74AFD78
:100AF000801B41F28831884202D9032091E707E048
:100B00002248006800F00C006168B0EB810FEDD165
:100B10001D48006800F00F00A84209D91A490D705D
:100B20000846006800F00F00A84201D0012078E7D5
:100B3000207800F00400042807D11448006820F44D
:100B4000E050E168084311490860207800F008008F
:100B5000082808D10D48006820F46040216940EA67
:100B6000C1000A49086000F03FF808490968C1F36C
:100B70000311074A515CC8400649086006480068EE
:100B8000FFF768FE00204CE7003C024008380240B6
:100B900016410008000000200800002001480068FD
:100BA000704700000000002000B5FFF7F7FF044980
:100BB0000968C1F38221034A515CC84000BD0000AE
:100BC000083802402641000800B5FFF7E7FF044956
:100BD0000968C1F34231034A515CC84000BD0000BE
:100BE00008380240264100082DE9F047002400257E
:100BF0000026A1462548006800F00C0020B104281A
:100C000005D008283AD105E0DFF8849039E0DFF814
:100C1000849036E01D48001F006800F03F041B4828
:100C2000001F006800F4800078B11A481749091FB6
:100C30000968C1F38811A0FB017001462246002318
:100C40003846FFF7CFFA05460EE011480F49091F55
:100C50000968C1F38811A0FB0170014622460023F8
:100C60003846FFF7BFFA05460848001F0068C0F382
:100C70000140401C4600B5FBF6F902E0DFF8109099
:100C800000BF00BF4846BDE8F087000008380240BA
:100C90000024F40040787D01F8B504460CB9012029
:100CA000F8BD207800F00100002874D0F9480068F1
:100CB00000F00C0004280DD0F648006800F00C008D
:100CC000082813D1F348001F006800F48000B0F535
:100CD000800F0BD1EF4808380068C0F3404000286F
:100CE00059D06068002856D10120D9E700BF60685C
:100CF000B0F5803F08D1E7480838006840F48030FC
:100D0000E449083908601EE06068B0F5A02F0DD1F5
:100D1000E0480838006840F48020DE49083908605F
:100D20000846006840F4803008600CE0D948083874
:100D3000006820F48030D749083908600846006808
:100D400020F48020086000BF606890B1FFF71AFCB3
:100D5000054606E0FFF716FC401B642801D9032076
:100D60009EE7CC4808380068C0F340400028F1D026
:100D700011E0FFF707FC054606E0FFF703FC401B08
:100D8000642801D903208BE7C24808380068C0F303
:100D900040400028F1D1207800F0020002285FD105
:100DA000BC48006800F00C0058B1BA48006800F078
:100DB0000C0008281CD1B748001F006800F4800010
:100DC000B0B9B44808380068C0F3400020B1E0680A
:100DD000012801D0012063E7AE480838006820F000
:100DE000F800216940EAC100AA490839086037E0E3
:100DF000E06800B30120A8490860FFF7C3FB05467F
:100E000006E0FFF7BFFB401B022801D9032047E79C
:100E1000A04808380068C0F340000028F1D09D4881
:100E20000838006820F0F800216940EAC1009949BB
:100E30000839086014E0002097490860FFF7A2FB1A
:100E4000054606E0FFF79EFB401B022801D9032060
:100E500026E7904808380068C0F340000028F1D128
:100E6000207800F0080008282CD16069A8B1012082
:100E70008A490860FFF786FB054606E0FFF782FB1C
:100E8000401B022801D903200AE782486C30006821
:100E9000C0F340000028F1D014E000207F49086032
:100EA000FFF770FB054606E0FFF76CFB401B0228CE
:100EB00001D90320F4E677486C300068C0F34000A5
:100EC0000028F1D1207800F00400042870D1002718
:100ED00070483830006800F0805090B900BF0020A2
:100EE00000906C483830006840F0805069493831D3
:100EF00008600846006800F08050009000BF00BF06
:100F000001276748006800F48070B0B96448006841
:100F100040F4807062490860FFF734FB054606E044
:100F2000FFF730FB401B022801D90320B8E65C48DC
:100F3000006800F480700028F2D000BFA06801288B
:100F400008D154486830006840F0010051496831C8
:100F500008601DE0A06805280DD14E486830006883
:100F600040F004004B49683108600846006840F0D2
:100F7000010008600CE047486830006820F001007C
:100F80004449683108600846006820F004000860A1
:100F900000BFA068A8B1FFF7F5FA054609E0FFF722
:100FA000F1FA401B41F28831884202D9032077E6EA
:100FB00026E0384868300068C0F340000028EED0D2
:100FC00013E0FFF7DFFA054608E0FFF7DBFA401B06
:100FD00041F28831884201D9032061E62D4868300A
:100FE0000068C0F340000028EFD1012F07D1294845
:100FF0003830006820F0805026493831086000BF42
:10100000A069002845D02348006800F00C0008289B
:101010005DD0A069022845D100201F490866FFF76E
:10102000B1FA054606E0FFF7ADFA401B022801D9E8
:10103000032035E6174808380068C0F340600028F0
:10104000F1D1D4E907010843616A40EA8111012224
:10105000A06AC2EB500041EA00412C20005D41EA49
:1010600000600C49091F086001200B490866FFF762
:1010700089FA054606E0FFF785FA401B022801D9E8
:1010800003200DE6034808380068C0F340600028DC
:10109000F1D049E00838024000004742800E474244
:1010A00000700040002021490866FFF76BFA0546F2
:1010B00006E0FFF767FA401B022801D90320EFE59D
:1010C0001B480068C0F340600028F2D12CE0A06902
:1010D000012800D1E4E51648001D0668A069012832
:1010E00020D006F48001E06981421BD106F03F0167
:1010F000206A814216D147F6C0703040616AB0EB79
:10110000811F0FD106F440310122A06AC2EB5000CA
:10111000B1EB004F06D106F070612C20005DB1EB01
:10112000006F01D00120BBE50020B9E50000474277
:1011300000380240F0B589B004460E46002703206F
:1011400084F83400606C032820D0B6F5805F04D1A9
:10115000A06B40F08050A0631CE0B6F5006F07D193
:10116000204601F047F80546A06B2843A06311E034
:101170003EB9204601F00AF80546A06B2843A0635B
:1011800008E0A06B40F00060A06303E0A06B40F0BB
:101190008050A063A06B38B1174821688863012094
:1011A00084F83400012713E060680390A06804907D
:1011B000E0680590069660690790A069089006A807
:1011C00007C88DE80700206803A90EC900F00AFBD4
:1011D0004FF40071206800F07BFB054635B10648EE
:1011E00021688863A06B2843A0630127012084F84D
:1011F0003400384609B0F0BDFF05400010B5024686
:10120000506E800F0870506EC0F383604870506E4F
:10121000C0F301608870506E000CC870B2F86400B2
:10122000000A087192F864004871906E000DC88041
:10123000906EC0F3034008726820805AC0F3C0303B
:1012400048726820805AC0F3803088726820805AC3
:10125000C0F34030C8726820805AC0F30030087371
:1012600000204873506C002836D16820805A8005D1
:10127000030DD06E43EA90700861D06EC0F3C26077
:101280000875D06EC0F302604875D06EC0F342504E
:101290008875D06EC0F38240C875D06EC0F3C2307E
:1012A00008760869401C50650B7E506D03F00703FB
:1012B0009B1C01249C4060435065087A00F00F039A
:1012C000012098409065D2E915035B0A5843D06528
:1012D0004FF40073136621E0506C012813D168208D
:1012E000805C8006830AD06E43EA1040086108697A
:1012F000401C83025365536DD3654FF400739365AF
:10130000936D13660AE02E4813689863906B40F063
:1013100080509063012082F8340010BD6C20805A08
:10132000C0F3803001F8190F6C20805AC0F3C6104A
:1013300048706C20805C00F07F008870106FC00FD8
:10134000C870106FC0F341700871106FC0F38260F5
:101350004871106FC0F383508871106FC0F3405014
:10136000C87100200872106FC0F3004048727020EE
:10137000805AC0F3C03088727020805AC0F3803029
:10138000C8727020805AC0F3403008737020805AB1
:10139000C0F3003048737020805AC0F381208873F6
:1013A0007020805AC0F30120C8737020805CC0F3A5
:1013B000460008740120487419390020ADE7000088
:1013C000FF0540000246506C0860906C4860D06C8D
:1013D0008860106DC860506D0861906D4861D06D77
:1013E0008861106EC8610020704710B504460CB9C2
:1013F000012010BD94F8340020B900202077204649
:1014000000F068F8032084F83400204600F00CF85F
:1014100008B10120EDE70020A0632063012084F8DB
:1014200034000020E5E7000070B58AB004460020D3
:10143000049005900690079008907620099007A8E0
:1014400007C88DE80700206804A90EC900F0CAF992
:10145000064616B101200AB070BD00201B49086085
:10146000206800F0D9F901201849A039C1F8A0007E
:10147000204600F025FE05463DB1012084F83400E9
:10148000A06B2843A0630120E5E7204600F097FD0C
:1014900005463DB1012084F83400A06B2843A063C9
:1014A0000120D8E74FF40071206800F011FA0546DA
:1014B0004DB1074821688863A06B2843A0630120D1
:1014C00084F83400C7E70020C5E70000A08025426B
:1014D000FF054000704710B504460CB9012010BD4F
:1014E000606A38B96068B0F5827F00D105E00021FC
:1014F000E16102E00021216161610021A16294F8B3
:10150000510028B9002084F85000204600F047F828
:10151000022084F851002068006820F04000216813
:101520000860A08800F48270218901F40441084316
:10153000A18901F400610843217C01F00201084304
:10154000217D01F001010843218B01F40071084362
:10155000217F01F0380108432021095D01F080015D
:101560000843218D01F400510843216808600421DB
:10157000A06901EA104094F8241001F0100108431A
:10158000216848602068C06920F400602168C86153
:1015900000206065012084F8510000209FE770471B
:1015A00070B504462546681EB0F1807F01D3012046
:1015B0000FE0681E4FF0E02148610F214FF0FF302F
:1015C00001F05EF800204FF0E021886107200861FB
:1015D000002070BD10B504460CB9012010BDA069F3
:1015E00000B100E000BF94F83D0028B9002084F865
:1015F0003C00204600F027F8242084F83D002068B5
:10160000C06820F400502168C860204600F094FEB5
:101610002068006920F490402168086120684069D2
:1016200020F02A00216848612068C06840F400501A
:101630002168C86000202064202084F83D0084F8E0
:101640003E000020CAE770472DE9F84F04460E46D9
:10165000174699464FF0000A94F83D0020285AD1C9
:1016600006B117B90120BDE8F88F00BF94F83C001F
:10167000012801D10220F6E7012084F83C0000BFD8
:1016800000202064212084F83D00FEF77BFF824685
:10169000A784E784A068B0F5805F04D1206910B901
:1016A0000025B04602E035464FF0000800BF00209C
:1016B00084F83C0000BF1BE05346002280212046F6
:1016C000CDF8009000F04EFF08B10320CBE745B9FC
:1016D000B8F80000C0F308002168486008F102086B
:1016E00003E02878216848606D1CE08C401EE0848F
:1016F000E08C0028E0D15346002240212046CDF85E
:10170000009000F02FFF08B10320ACE7202084F800
:101710003D000020A7E70220A5E700BFFEE700008C
:1017200000B587B000BF002001901748006840F066
:101730008000154908600846006800F080000190AC
:1017400000BF00BF142102A8FEF796FD4FF4E05041
:1017500002900120039000200490059002A90B48FC
:10176000FEF704FE012291020848FEF705FF012260
:10177000D1020648FEF700FF012211030348FEF7DD
:10178000FBFE07B000BD000030380240001C0240E4
:1017900000BFFEE700BFFEE7704710B5024600231A
:1017A0000868506248689062D1E9020420430C69DD
:1017B00020434C6920430343D06A20F0F7001843CC
:1017C000D062002010BD01460869C0B270470146D2
:1017D000086800F003007047024602F11400431845
:1017E000186870470FB410B504460021DDE9030204
:1017F0001043059A1043069A1043079A1043089A1B
:1018000010430143606847F6FF62904308436060FD
:10181000002010BC5DF814FB10B5044603202060C6
:101820000220FEF78FFD002010BD0146D1F8800098
:10183000704710B50246002308689060D1E90104A2
:101840002043CC6820430C6920430343D0686FF3E6
:101850000B001843D060002010BD70B586B005465F
:101860000C46019437200290402003900020049001
:101870004FF48060059001A92846FFF7DAFF41F296
:1018800088323721284600F033F90646304606B044
:1018900070BD000070B586B005460C460B4820436D
:1018A00001902920029040200390002004904FF4E2
:1018B0008060059001A92846FFF7BBFF284600F08D
:1018C0001FFA0646304606B070BD000000001080CA
:1018D00070B586B005460C46019410200290402059
:1018E0000390002004904FF48060059001A92846E1
:1018F000FFF79FFF41F288321021284600F0F8F8E8
:101900000646304606B070BD70B586B005460C463A
:1019100001940620029040200390002004904FF490
:101920008060059001A92846FFF783FF41F28832C5
:101930000621284600F0DCF80646304606B070BDA9
:1019400030B585B0044600200090019002900390CD
:101950004FF48060049069462046FFF76AFF2046F6
:1019600000F0A6F80546284605B030BD30B585B074
:1019700004464FF4D570009008200190402002905A
:10198000002003904FF48060049069462046FFF7E2
:1019900050FF204600F03CFA0546284605B030BD11
:1019A000F0B585B0064614461D4600940720019008
:1019B00040200290002003904FF48060049069461C
:1019C0003046FFF736FF41F288320721304600F0FB
:1019D0008FF80746384605B0F0BD30B585B00446EF
:1019E0000020009002200190C0200290002003906F
:1019F0004FF48060049069462046FFF71AFF2046A6
:101A000000F04CF90546284605B030BD70B586B0EB
:101A100005460C46019409200290C0200390002046
:101A200004904FF48060059001A92846FFF701FF5C
:101A3000284600F033F90646304606B070BD30B592
:101A400085B0044600200090332001904020029091
:101A5000002003904FF48060049069462046FFF711
:101A6000E8FE41F288323321204600F041F8054675
:101A7000284605B030BD70B586B005460C4600203E
:101A800001900320029040200390002004904FF426
:101A90008060059001A92846FFF7CBFE224603216E
:101AA000284600F059F90646304606B070BD0000E1
:101AB00001460E480068C0084FF47A73B0FBF3F09B
:101AC00041F2883300FB03F200BF101EA2F10102B5
:101AD00002D14FF000407047486B00F080000028B2
:101AE000F3D0C52088630020F5E700000000002047
:101AF0002DE9F04305460F46904666480068C00849
:101B00004FF47A71B0FBF1F000FB08F900BFB9F1B6
:101B10000000A9F1010903D14FF00040BDE8F083B6
:101B20006E6B06F045000028F1D006F40060002836
:101B3000EDD1686B00F0040010B10420A863EDE75C
:101B4000686B00F0010010B10120A863E6E7C52032
:101B5000A8632846FFF737FEB84201D00120DDE731
:101B600000212846FFF738FE04464B48204008B9BC
:101B70000020D3E704F00040B0F1004F02D14FF055
:101B80000070CBE704F08040B0F1804F01D14020DD
:101B9000C4E704F00050B0F1005F01D18020BDE740
:101BA00004F08050B0F1805F02D14FF48070B5E74F
:101BB00004F00060B0F1006F02D14FF40070ADE7A7
:101BC00004F08060B0F1806F02D14FF48060A5E72F
:101BD00004F08070B0F1807F02D14FF400609DE787
:101BE00004F40000B0F5000F02D14FF4805095E7E7
:101BF00004F48000B0F5800F02D14FF400508DE75F
:101C000004F40010B0F5001F02D14FF4804085E7C6
:101C100004F48010B0F5801F02D14FF400407DE73E
:101C200004F48020B0F5802F02D14FF4003075E726
:101C300004F40030B0F5003F02D14FF480206DE78E
:101C400004F48030B0F5803F02D14FF4002065E706
:101C500004F40040B0F5004F02D14FF480105DE76E
:101C600004F48040B0F5804F02D14FF4001055E7E6
:101C700004F40050B0F5005F02D14FF480004DE74E
:101C800004F00800082801D1000547E74FF4803030
:101C900044E700000000002008E0FFFD10B5014609
:101CA00016480068C0084FF47A74B0FBF4F041F2B3
:101CB000883400FB04F300BF181EA3F1010302D116
:101CC0004FF0004010BD4A6B02F045000028F3D0F1
:101CD00002F400600028EFD1486B00F0040010B15E
:101CE00004208863EEE7486B00F0010010B101208A
:101CF0008863E7E7C52088630020E3E70000002051
:101D000010B5014613480068C0084FF47A74B0FB60
:101D1000F4F041F2883400FB04F300BF181EA3F175
:101D2000010302D14FF0004010BD4A6B02F04500A4
:101D30000028F3D002F400600028EFD1486B00F0D7
:101D4000040010B104208863EEE7C52088630020FA
:101D5000EAE70000000000202DE9F04304460F46AA
:101D600090462A480068C0084FF47A71B0FBF1F041
:101D700041F2883100FB01F900BFB9F10000A9F17F
:101D8000010903D14FF00040BDE8F083666B06F017
:101D900045000028F1D006F400600028EDD1606B0A
:101DA00000F0040010B10420A063EDE7606B00F0C8
:101DB000010010B10120A063E6E72046FFF703FD14
:101DC000B84201D00120DFE7C520A06300212046F2
:101DD000FFF702FD054605F4604020B9280CA8F87D
:101DE00000000020D0E705F48040B0F5804F02D11C
:101DF0004FF40050C8E705F40040B0F5004F02D1A1
:101E00004FF48050C0E74FF48030BDE70000002061
:101E100010B5014618480068C0084FF47A74B0FB4A
:101E2000F4F041F2883400FB04F300BF181EA3F164
:101E3000010302D14FF0004010BD4A6B02F0450093
:101E40000028F3D002F400600028EFD1486B00F0C6
:101E5000040010B104208863EEE7486B00F0010035
:101E600010B101208863E7E7486B00F0400008B13B
:101E7000402088630020DFE7000000202DE9F043C8
:101E800089B004460F46FEF77DFB81464FF00008FF
:101E90000020019002903E4608212068FFF718FDBF
:101EA00005461DB1284609B0BDE8F0835022125BFB
:101EB00011042068FFF7D1FC05460DB12846F2E772
:101EC0004FF0FF300390082004903020059002204E
:101ED0000690002007900120089003A92068FFF7D2
:101EE0005CFC2068FFF7ABFD05460DB12846DAE73C
:101EF0001CE02068406B00F4001040B12068FFF740
:101F000094FC01A941F8280008F1010805E02068C7
:101F1000406B00F4005000B90EE0FEF733FBA0EB7D
:101F20000900401C10B94FF00040BCE72068406B2E
:101F300000F02A000028DCD000BF2068406B00F0D1
:101F4000080018B1082021688863ACE72068406B5E
:101F500000F0020018B1022021688863A3E720681E
:101F6000406B00F0200018B12020216888639AE7B8
:101F700040F23A502168886302980006029901F401
:101F80007F4140EA0120029901F47F0140EA1120DB
:101F9000029940EA11603060361D019800060199EF
:101FA00001F47F4140EA0120019901F47F0140EAF8
:101FB0001120019940EA11603060002073E730B5CC
:101FC0008FB00446012003902068FFF700FC18B989
:101FD0004FF080600FB030BD606C03281BD02068CC
:101FE000FFF7FBFC05460DB12846F3E7002120680A
:101FF000FFF7F2FB606704212068FFF7EDFBA067A5
:1020000008212068FFF7E8FBE0670C212068FFF754
:10201000E3FB80210851606C032807D003A92068E6
:10202000FFF729FD05460DB12846D3E7606C03286C
:1020300020D0BDF80C1021655022125B11042068DD
:10204000FFF7E4FC05460DB12846C3E700212068F0
:10205000FFF7C2FB606604212068FFF7BDFBA066A6
:1020600008212068FFF7B8FBE0660C212068FFF725
:10207000B3FB206704212068FFF7AEFB010DE1648C
:1020800004A92046FFF7BAF810B14FF08050A1E73D
:102090005020005B01040A4600232068FFF780FC03
:1020A00005460DB1284695E7D4E90412A069CDE9AB
:1020B0000012029094E80F00FFF794FB002089E7DC
:1020C000F8B5044600200090002600272068FFF79E
:1020D00037FC05460DB12846F8BD2068FFF746FCE1
:1020E000054645B10021A1642068FFF729FC05469B
:1020F0001DB12846F0E70121A164A06C012808D198
:1021000000212068FFF7A9FB054615B14FF080506C
:10211000E2E71DE000212068FFF79FFB05460DB1B7
:102120002846D9E718492068FFF7B4FB054615B1E2
:102130004FF08050D0E700212068FFF74DFB0646A6
:10214000012080EAD67080F001070098401C0090C2
:102150004FF6FF710098884201D2002FDAD04FF677
:10216000FF710098884202D34FF08070B4E706F008
:102170008040B0F1804F02D10120606401E0002076
:1021800060640020A8E70000000010C17CB5044690
:1021900000200090019000212068FFF71DFB00F057
:1021A0000070B0F1007F02D14FF400607CBD694641
:1021B0002046FFF763FE05460DB12846F6E7019875
:1021C00000F4803098B15022125B11042068FFF7B0
:1021D00044FB05460DB12846E8E700212068FFF7DB
:1021E00093FB05460DB12846E0E70020DEE74FF0FF
:1021F0008060DBE77CB50446002000900190002160
:102200002068FFF7E9FA00F00070B0F1007F02D11A
:102210004FF400607CBD69462046FFF72FFE05465F
:102220000DB12846F6E7019800F4802098B15022BD
:10223000125B11042068FFF710FB05460DB128461C
:10224000E8E702212068FFF75FFB05460DB128464D
:10225000E0E70020DEE74FF08060DBE7704710B575
:10226000FEF7CEFA10BD000000B593B0302107A8EC
:10227000FEF702F8142102A8FDF7FEFF00BF0020C0
:1022800001902648006840F08050244908600846C4
:10229000006800F08050019000BF00BF00BF002028
:1022A00001901F48006840F440401D4908600846FE
:1022B000006800F44040019000BF00BF012007907B
:1022C0000004089002200D9041050E910F210F91FE
:1022D000D8211091022111910421129107A8FEF733
:1022E000DBFC08B1FEF72BF8FEF750FB08B1FEF758
:1022F00026F80F20029002200390002004904FF453
:10230000A05005904FF480500690052102A8FEF7DA
:1023100083FB08B1FEF713F813B000BD403802404C
:10232000007000400348006840F4700001490860F4
:102330007047000088ED00E02DE9F84F0446206862
:10234000006920F44050E168084321680861216970
:10235000A068084361690843E16908430090206868
:10236000C06849F20C618843009908432168C8603D
:102370002068406920F44070A169084321684861E1
:1023800076492068884203D075492068884203D185
:10239000FEF71AFC814602E0FEF706FC8146E06982
:1023A000B0F5004F6CD102206168A0FB01500346DC
:1023B0001920A9FB007001462A463846FDF712FF96
:1023C0006421B0FBF1F04FEA001A02206168A0FB23
:1023D00001510B461920A9FB00712A463846FDF72A
:1023E00001FF834602206168A0FB015003461920CB
:1023F000A9FB00712A463846FDF7F4FE6421B0FBC4
:10240000F1F000EBC00101EB0010ABEB80003221DA
:1024100001EBC0006421B0FBF1F000F0F8000AEB22
:10242000400A02206168A0FB015003461920A9FB65
:10243000007001462A463846FDF7D4FE8346022046
:102440006168A0FB015003461920A9FB00712A46D0
:102450003846FDF7C7FE6421B0FBF1F000EBC00188
:1024600001EB0010ABEB8000322101EBC0006421D6
:10247000B0FBF1F000F007005044216888606AE08A
:1024800004206168A0FB015003461920A9FB0070DD
:1024900001462A463846FDF7A5FE824604206168BB
:1024A000A0FB015003461920A9FB007001462A46F3
:1024B0003846FDF797FE6421B0FBF1F000EBC00158
:1024C00001EB0010AAEB8000322101EB0010642127
:1024D000B0FBF1F000F0F00A04206168A0FB01708D
:1024E00003461920A9FB00513A462846FDF77AFE1B
:1024F0006421B0FBF1F00AEB001A04206168A0FB34
:1025000001510B461920A9FB00712A463846FDF7F8
:1025100069FE834604206168A0FB01500346192030
:10252000A9FB007001462A463846FDF75BFE642190
:10253000B0FBF1F000EBC00101EB0010ABEB800051
:10254000322101EB00106421B0FBF1F000F00F002C
:10255000504421688860BDE8F88F000000100140F9
:10256000001401402DE9F04104460D4617469846F7
:10257000069E34E0701C88B32EB1FEF703F8A0EB82
:102580000800B0422BD900BF00BF21680C3151E8D0
:10259000001F21F4D07021680C3141E80002002AAC
:1025A000F3D100BF00BF00BF2168143151E8001F04
:1025B00021F001002168143141E80002002AF3D122
:1025C00000BF202084F83D0084F83E0000BF0020BA
:1025D00084F83C0000BF0320BDE8F081FFE72068DD
:1025E00000682840A84201D1012000E00020B84244
:1025F000C0D00020F0E700BFFEE7000000B587B0C4
:1026000000BF002001901048006840F040000E49D3
:1026100008600846006800F04000019000BF00BF5D
:10262000481502900120039004900220059002A911
:102630000648FDF79BFE00224FF400710348FDF7AA
:102640009BFF07B000BD0000303802400018024078
:102650000FB4054B10B503A9044A029800F034F8F2
:1026600010BC5DF814FB0000653300082400002056
:1026700002480068C0F30220704700000CED00E043
:1026800010B5002804DB0A07130E054A135406E0B0
:102690000A07140E034A00F00F031B1FD45410BD89
:1026A00000E400E018ED00E002E008C8121F08C1D5
:1026B000002AFAD170477047002001E001C1121FC3
:1026C000002AFBD1704700002DE9FF4F89B09B46DF
:1026D0000446002506E025280BD05A460B99904762
:1026E000641C6D1C20780028F5D10DB02846BDE88B
:1026F000F08F0027B8460122474900E0074314F84D
:10270000013F203B02FA03F00842F7D120782E283F
:1027100019D114F8010F47F004072A280ED06FF0E2
:102720002F022078A0F1300109290CD808EB88018C
:1027300002EB410100EB0108641CF2E70A98641CFB
:1027400050F8048B0A9020780028CED0642808D056
:10275000692806D075281ED05A460B9990476D1CE3
:1027600058E00A994FF00A0901C90A91002802DAD3
:1027700040422D2102E0390504D52B218DF820108F
:10278000012103E0F90704D02021F7E78A4608AECB
:102790000DE00021FAE70A994FF00A0901C90A91F0
:1027A000F7E74946FDF780FD303106F8011D0028A6
:1027B000F7D1ADEB060000F12009780701D44FF006
:1027C0000108C84502DDA8EB090000E000208046B2
:1027D000002706E008A85A46C05D0B9990476D1C7B
:1027E0007F1C5745F6DB04E030205A460B99904792
:1027F0006D1CB8F10001A8F10108F5DC05E016F840
:10280000010B5A460B9990476D1CB9F10001A9F1D3
:102810000109F4DC641C65E7092801002DE9F04199
:10282000044688460020E070401E60634146204612
:1028300001F086FA10B10420BDE8F08104F23620E0
:1028400001F030F8074694F83850EB2D03D0E92D0D
:1028500001D0E82D43D14AF65520874208D10822FD
:1028600023A104F18A00FDF712FD08B90020E3E777
:1028700004F1430001F016F806464520055D701E80
:10288000304060BBB6F5007F29DBB6F5805F26DC03
:102890002DB3681E284010BB04F1460001F002F879
:1028A000E8B14820005D401E012818D804F1490015
:1028B00000F0F8FF98B104F14B0000F0F3FF80281E
:1028C00006DA04F1580000F0E1FFB0F5803F06D3CE
:1028D00004F14E0000F0E6FF08B10020ACE74AF634
:1028E0005520874201D10220A6E70320A4E700007B
:1028F0004641543332202020000000002DE9FF4FD4
:1029000085B09A4603AA0121059800F0BBF818B1DA
:10291000012009B0BDE8F08FDDF80C904FF03F08C2
:10292000082701E07806070E37B1B9FBF7F0B0FBD6
:10293000F8F0B0F5806FF5D807B9FF274FF4805154
:102940005046FDF799FC0AF5DF764FF0000B444640
:1029500069E0069850F82B50642D07D801D14846FD
:1029600003E06420B9FBF0F0684305466019484570
:1029700001D8601901D3A9EB040505B959E0214636
:1029800006F1080001F0F6F9294606F10C0001F005
:10299000F1F907983071B4FBF8F0B0FBF7F0049050
:1029A000B4FBF8F0B0FBF7F107FB1100C0B20290E6
:1029B000B4FBF8F008FB1040401CC0B20190029834
:1029C0007070C021049801EA900001990843B0702A
:1029D0000498F0706019401EB0FBF8F0B0FBF7F0FF
:1029E00004906019401EB0FBF8F0B0FBF7F107FB54
:1029F0001100C0B202906019401EB0FBF8F108FB54
:102A00001100401CC0B2019002987071C02104985E
:102A100001EA900001990843B0710498F0711036F2
:102A20000BF1010B2C44BBF1040F02D20CB14C454D
:102A30008FD300BF4AF655210AF5FF7001F0A6F9C1
:102A4000012300225146059800F092F808B10120B8
:102A50005FE700205DE770B5064616B1012E0FD185
:102A600007E000F0ABFE002000F06CF804462046C2
:102A700070BD00F023FE054605B900242046F7E7A7
:102A80000120F5E7F0B589B007460E46154617B1A7
:102A9000012F3DD11DE036B1012E06D0022E09D006
:102AA000032E10D10BE000240FE040F60800286050
:102AB00000240AE04FF480502880002405E0012023
:102AC0002860002401E0042400BF00BF204609B0B4
:102AD000F0BD36B1012E0FD0022E04D0032E12D13C
:102AE00006E0002411E04FF40070286000240CE0A0
:102AF00008202880002408E001A800F03DFD05988A
:102B00002860002401E0042400BF00BF2046DEE767
:102B10000420DCE72DE9F04104460D4616461F4629
:102B200014B1012C0CD109E03A033103284601F01D
:102B3000F1F94FF000084046BDE8F0814046FBE760
:102B40000420F9E770B5064616B1012E0CD108E055
:102B500001F0B4F905460548854200D1002420461D
:102B600070BD00242046FBE70120F9E71840EF0084
:102B70002DE9F04105460E4614461F4615B1012DBC
:102B80000FD10CE0200301F0F1F93A0321033046A4
:102B900001F048FA4FF000084046BDE8F081404699
:102BA000FBE70420F9E700002DE9FF4F99B00E463E
:102BB00019A800F0E8FB03900398002803DA0B2023
:102BC0001DB0BDE8F08FF749039851F8200028B1F7
:102BD0000021F44A039852F8200001700398C0B213
:102BE00016900020159006B9EF4E1698FFF733FFA8
:102BF0000290029800F0010008B10320E0E702987B
:102C000000F0040008B10A20DAE770681290129808
:102C100038B912AA03211698FFF734FF08B1012032
:102C20001290129840B11298B0F5004F04D8129843
:102C3000401E1299084008B10120129014AA0221E6
:102C40001698FFF71FFF08B10120B9E7BDF8500043
:102C5000B0F5805F0BDCBDF85000B0F5007F06DBFF
:102C6000BDF85000401EBDF85010084008B10120CA
:102C7000A6E7307800F00F0018907078012804DB88
:102C80007078022801DC707800E001200590B168BE
:102C900089B1B168B1F5004F0DD8BDF85000C1172A
:102CA00000EBD1614911B268B2FBF1F301FB1321D2
:102CB00009B9B16801E04FF400710491F068B0F116
:102CC000807F05D8F068411E084008B9F06800E030
:102CD00000200690BDF850100698B0FBF1F0069069
:102CE000BDF850101C98B0FBF1F01390139808B980
:102CF000112065E71B9C0CB9112061E74FF0000A19
:102D0000CDF83CA000BF0FAA01211698FFF7BAFE2C
:102D100008B1012054E7189800F0080040B90F9856
:102D20003F2805D94FF03F0A0F98A0EB0A000F90FB
:102D30000F98802801D20E2042E700BF00BF0698FE
:102D4000802801D980200690189800F0020028B150
:102D5000189800F0010008B9032707E0189800F060
:102D6000010008B913202BE7022700BF00BF00F0C5
:102D700009FB0F990844109000BF069D032F2DD129
:102D800095B90F984FEA50494FF0000B012502E02A
:102D90000BF1010B6D00854830F81B0020B1834812
:102DA00030F81B004845F3D90F98B0FBF5F8082020
:102DB00000EB8800BDF850100844401EB0FBF1F055
:102DC000089020200990002007904FF6F57080456C
:102DD00002D97748804539D90E20F1E695B90F9888
:102DE0004FEA10394FF0000B012502E00BF1010B07
:102DF0006D00704830F81B0020B16E4830F81B00A1
:102E00004845F3D90F98B0FBF5F840F6F5708045CA
:102E100003D9042000EB480906E0012708EB48002D
:102E2000401C032101EB5009BDF850004844401EEE
:102E3000BDF85010B0FBF1F0089001200990049803
:102E40004001BDF85010B0FBF1F0079009985044D4
:102E50000E90059A08990E9801FB02010798084404
:102E60000D9012990D980844401E491E20EA010158
:102E70000D98A1EB0009032F06D109984844099049
:102E80000E9848440E9013E00598B9FBF0F100FB52
:102E9000119038B1A9F101090998401C09900E98C8
:102EA000401C0E900598B9FBF0F108980844089072
:102EB0000D9800EB0510A0EB0A000F99884201D98C
:102EC0000E207DE60F9909980A1A0599089800FBCB
:102ED00011210798081AB0FBF5F8032F0BD14FF614
:102EE000F570804507D8069818B96808069000B1B3
:102EF00035E00E2064E6022F28D14FF6F5708045AC
:102F000017D9069830B94020B0EB450F02D36800BE
:102F1000069024E0189800F0020008B103271EE094
:102F2000069820B968000690802800D817E00E2087
:102F300046E640F6F570804508D8069820B9680046
:102F40000690802800D80AE00E2039E6012F05D12E
:102F500040F6F570804501D90E2031E600E00CE71F
:102F600000BFBDF850102046FDF786F912A0016899
:102F700021604168616001892181807AA072BDF879
:102F8000501004F10B0000F001FF6573099881B245
:102F900004F10E0000F0FAFE05982074032F11D101
:102FA000002010E01800002064410008564100088D
:102FB000F5FFFF0F48410008EBFE904D53444F537F
:102FC000352E3000049881B204F1110000F0DEFECD
:102FD0000F98B0F5803F06D20F9881B204F113002C
:102FE00000F0D4FE04E004F120000F9900F0C2FECE
:102FF000F82060753F2104F1180000F0C7FEFF21A2
:1030000004F11A0000F0C2FE514604F11C0000F069
:10301000B1FE032F25D104F14300109900F0AAFE60
:1030200004F12400089900F0A5FE022104F12C000F
:1030300000F0A0FE012104F1300000F0A7FE0621FF
:1030400004F1320000F0A2FE802084F84000292024
:1030500084F84200132283A104F14700FDF7F3F83E
:1030600016E004F12700109900F084FE089881B260
:1030700004F1160000F08AFE802084F82400292044
:1030800084F8260013227CA104F12B00FDF7DBF865
:103090004AF6552104F5FF7000F078FE01235246F0
:1030A00021461698FFF764FD08B1012088E5032F3B
:1030B00033D101230AF1060221461698FFF758FD85
:1030C000BDF850102046FDF7D7F87049204600F0B3
:1030D00051FE6F4904F5F27000F04CFEA8F10101B9
:1030E00004F5F47000F046FE022104F5F67000F0DD
:1030F00041FE4AF6552104F5FF7000F047FE01231A
:103100000AF1070221461698FFF732FD01230AF162
:10311000010221461698FFF72BFDBDF850201398A9
:1031200000FB02F12046FDF7A7F80E980C904FF037
:10313000000B40E0032F0FD16FF00701204600F095
:1031400019FE391F201D00F015FE6FF0704104F1CB
:10315000080000F00FFE09E0012F01D14D4801E009
:103160006FF007000146204600F004FE0898119019
:1031700000BF13991198884201D9139800E0119863
:1031800081464B4621460C9A1698FFF7F1FC08B190
:10319000012015E5BDF850102046FDF76DF80C989C
:1031A00048440C901198A0EB090011901198002848
:1031B000DFD10BF1010B05988345BBD3032F01D160
:1031C000284600E00798119000BF13991198884293
:1031D00001D9139800E0119881464B4621460C9A7C
:1031E0001698FFF7C5FC08B10120E9E40C984844A3
:1031F0000C901198A0EB0900119011980028E4D1CF
:1032000000BF032F02D10C2017900CE00F98B0F5EF
:10321000803F02D30620179005E0022F01D1042041
:1032200000E00120179000BF189800F0080070B966
:103230000F980A9000200B9023460AA9DDE9160298
:10324000FFF75CFB0190019808B10198B8E40022F7
:1032500011461698FFF716FC08B10120B0E40020D3
:10326000AEE400004E4F204E414D45202020204628
:1032700041543332202020004E4F204E414D4520F6
:10328000202020464154202020202000525261411D
:1032900072724161F8FFFF00F7B582B016460398DD
:1032A000019001A800F06FF80546002D02DA0B200E
:1032B00005B0F0BD0C4850F825400CB1002020703E
:1032C000029810B10020029908700749029841F84D
:1032D00025000EB90020EBE7002202A903A800F0A8
:1032E000B5FB07463846E3E7180000202DE9FF410B
:1032F00007460D4600213846FFF790FA0646022E93
:1033000006D0032E00D21DB9304604B0BDE8F081CE
:1033100000BF00240AE007F5FB7101EB041101F185
:10332000080000F0B3FA4DF82400641C042CF2D31A
:103330000DB1681E00E00020044600BF5DF82400C7
:1033400028B15DF824103846FFF768FA00E0032042
:1033500006462DB9022E03D3601C04460428EDD383
:103360003046D2E738B504460D4600944FF47A73E0
:10337000012269460248FEF767F9204638BD000081
:1033800028000020704770B504464FF0FF302668D3
:103390003146324601B970BD00BF12F8013B202B07
:1033A00001D33A2BF9D13A2B11D102250E78302EC8
:1033B00008DB0E78392E05DC8E1C964202D10E7881
:1033C000A6F13005022D01DA28462260E3E700204D
:1033D00000BFE0E700B587B000BF002001901148B2
:1033E000006840F001000F4908600846006800F0DE
:1033F0000100019000BF00BF142102A8FCF73CFFB0
:103400004FF4C0600290022003900020049003203B
:1034100005900720069002A90348FCF7A7FF07B014
:1034200000BD0000303802400000024008B500BF77
:10343000002000901048006840F010000E4908601D
:103440000846006800F01000009000BF00BFFFF7C2
:10345000C1FF0A480A4908604FF4E1304860002182
:1034600007488160C16001610C21416100218161D7
:10347000C161FEF7AFF808BD4438024000100140BA
:103480002800002000B587B0142102A8FCF7F4FE44
:1034900000BF002001901948006840F00200174961
:1034A00008600846006800F00200019000BF00BFFD
:1034B00000BF002001900846006840F0020008604C
:1034C0000846006800F00200019000BF00BF122013
:1034D00003900020049003200590042006904020D3
:1034E000029002A90648FCF741FF8020029002A941
:1034F0000348FCF73BFF07B000BD00003038024036
:103500000004024008B500BF002000901648006883
:1035100040F40010144908600846006800F40010E8
:10352000009000BF00BFFFF7ADFF104810490860D2
:103530001048486000210E4881604FF480410161CD
:1035400000214161C16101620A21C16000218161E4
:10355000FDF76CF800210648FDF71AF80021044831
:10356000FDF73CF808BD0000403802400054004020
:10357000C4000020A086010010B504462146024880
:10358000FDF720FF10BD00001801002000B587B036
:1035900000BF002001904648006840F00400444904
:1035A00008600846006800F00400019000BF00BFFA
:1035B00000BF002001900846006840F00400086049
:1035C0000846006800F00400019000BF00BF00BF83
:1035D000002001900846006840F00400086008469A
:1035E000006800F00400019000BF00BF00BF002091
:1035F00001900846006840F0040008600846006832
:1036000000F00400019000BF00BF00BF0020019047
:103610000846006840F0040008600846006800F0B2
:103620000400019000BF00BF00BF002001900846C9
:10363000006840F0080008600846006800F00800D4
:10364000019000BF00BFFEF7D9FF022003900020C9
:103650000490032005900C2006904FF48070029097
:1036600002A91448FCF782FE4FF40070029002A9F0
:103670001048FCF77BFE4FF48060029002A90D48D1
:10368000FCF774FE4FF40060029002A90948FCF7B1
:103690006DFE4FF48050029002A90648FCF766FECA
:1036A0000420029002A90448FCF760FE07B000BDA8
:1036B0003038024000080240000C024038B50024B7
:1036C000FFF764FF00BF002000901648006840F438
:1036D0000060144908600846006800F4006000902B
:1036E00000BF00BF10481149086000204860002159
:1036F0000E488160C16001614FF480414161002149
:103700008161FDF772FE00B1012444B94FF40061FC
:103710000648FDF70FFD08B1012400E00024204613
:1037200038BD000044380240002C01401801002040
:1037300000B587B000BF002001901E48006840F02F
:1037400020001C4908600846006800F02000019035
:1037500000BF00BF142102A8FCF78EFD402002909C
:1037600001200390002004900220059002A9124835
:10377000FCF7FCFD012240210F48FCF7FDFE8020F4
:103780000290022003900520069002A90A48FCF747
:10379000EDFD4FF48070029002A90748FCF7E6FDAA
:1037A0004FF40070029002A90348FCF7DFFD07B058
:1037B00000BD0000303802400014024008B5FFF799
:1037C000B7FF00BF002000901748006840F4801049
:1037D000154908600846006800F48010009000BF9A
:1037E00000BF1248124908604FF4827048600021FF
:1037F0000F488160C16002210161012141614902DC
:1038000081610021C1610162416281620721C1625F
:10381000FDF761FE06480068006840F0400004497A
:103820000968086008BD00004438024000500140AB
:103830006C000020014642F2107205E0101EA2F159
:1038400001039AB200D170470F4800688068C0F346
:1038500040000028F2D00C480068C16042F21072AB
:1038600005E0101EA2F101039AB200D1EBE7064871
:103870000068806800F001000028F2D0024800686B
:10388000C068C0B2DFE700006C0000200146C878C5
:103890008A7842EA00204A7842EA00200A7842EA1E
:1038A00000207047014648780A7842EA00207047B5
:1038B000FCF7B2FFFEF7D8FCFDF732FFFFF7B6FDCD
:1038C000FFF720FE012222A12248FFF7E5FC224952
:1038D0000870084600780D282CD14FF400731F4A59
:1038E00000211BA0FFF760F91B490870084600780B
:1038F00000281BD11AA0FEF7ABFE012214A1002064
:10390000FFF7CAFC14490870012211A11148FFF702
:10391000C3FC114908700846007818B918A0FEF7D2
:1039200097FE13E024A0FEF793FE0FE02FA0FEF712
:103930008FFE0BE00848007828B10748017831A0D5
:10394000FEF786FE02E03AA0FEF782FE00BFFEE729
:10395000313A00009C01002010000020FC210020D2
:103960005344206361726420666F726D6174746584
:1039700064207375636365737366756C6C790A0094
:10398000546865205344206361726420776173201A
:10399000666F726D617474656420616E6420726517
:1039A0006D6F756E7465642073756363657373669C
:1039B000756C6C790A0000005344206361726420C6
:1039C000666F726D6174746564207375636365738B
:1039D0007366756C6C7920616E64206661696C65D4
:1039E0006420746F206D6F756E740A0053442063F9
:1039F00061726420666F726D6174206661696C65C6
:103A0000640A000053442063617264206D6F756E18
:103A100074206661696C65642C2072657475726EC1
:103A200020706172616D657465723A25640A0000E8
:103A300053442063617264206D6F756E74207375DA
:103A4000636365737366756C6C790A002DE9F74FD3
:103A500084B00021059801600498FFF794FC03905E
:103A60000398002803DA0B2007B0BDE8F08FAF49B8
:103A7000039851F820400CB90C20F5E70598046034
:103A8000069800F0FE000690207878B16078FFF785
:103A900059F8074607F0010040B9069820B107F031
:103AA000040008B10A20DFE70020DDE700202070D5
:103AB000039860706078FEF7CEFF074607F00100BC
:103AC00008B10320D0E7069820B107F0040008B140
:103AD0000A20C9E7607804F10C020221FEF7D2FF48
:103AE00008B10120C0E7A089B0F5805F07DCA0899C
:103AF000B0F5007F03DBA089411E084008B101201A
:103B0000B2E700212046FFF7F1FB0546042D01D165
:103B10000120A9E7022D01D30D20A5E7D4F83490A8
:103B200004F14300FFF7BEFEA189884201D00D20B9
:103B30009AE704F14E00FFF7B5FE064626B904F1F8
:103B40005C00FFF7A3FE064626624820005DA070D9
:103B5000A078012804D0A078022801D00D2083E7A6
:103B6000A07846434520005D6081608918B1608976
:103B7000411E084008B10D2076E704F14900FFF727
:103B800091FE2081A089C11700EBD16149112289E2
:103B900092FBF1F301FB132109B10D2064E704F15D
:103BA0004B00FFF77FFE8246BAF1000F04D104F10B
:103BB0005800FFF76BFE824604F14600FFF772FEE5
:103BC0008346BBF1000F01D10D204DE7A089C1173D
:103BD00000EBD1614911228992FBF1F10BEB060256
:103BE0001144029102998A4501D20D203CE70298C6
:103BF000AAEB00006189B0FBF1F8B8F1000F01D128
:103C00000D2031E700254A48804500D803254FF6AE
:103C1000F570804500D8022540F6F570804500D843
:103C200001250DB90D201FE708F10200E061C4F87D
:103C3000249009EB0B00A062029848442063032DF6
:103C400013D104F16200FFF72DFE08B10D200BE740
:103C5000208908B10D2007E704F16400FFF716FE84
:103C6000E062E0698000019014E0208908B90D202D
:103C7000FAE6A06A3044E062022D02D1E069400019
:103C800007E0207F00F00100E16901EB410100EB5A
:103C900051000190A089401E01990844A189B0FB00
:103CA000F1F0216A884201D90D20DDE64FF0FF30A6
:103CB000A061606180202071032D2DD104F1680086
:103CC000FFF7F0FD012827D109F10101204600F09E
:103CD00037F808BB0020207104F23620FFF7E2FD20
:103CE0004AF65521884217D104F13800FFF7CEFD7E
:103CF0001049884210D104F50770FFF7C7FD0E493F
:103D0000884209D104F50870FFF7C0FDA06104F5F1
:103D10000970FFF7BBFD6061257008480088401CF2
:103D200080B206490880E08000209DE6180000204F
:103D3000F5FFFF0F52526141727241612000002075
:103D400070B504460D460026606BA84210D0204690
:103D500000F022F806465EB9607801232A4604F195
:103D60003801FEF7D7FE10B14FF0FF35012665632D
:103D7000304670BD00F8011B090A00F8011B090A52
:103D800000F8011B090A00F8011B704700F8011B2D
:103D9000091200F8011B704770B504460025E07851
:103DA000E8B16078012304F13801626BFEF7E0FEB0
:103DB000A0B90020E070A16A606B401A216A8842B5
:103DC0000DD2A07802280AD1236A616BCA186078E4
:103DD000012304F13801FEF7CBFE00E0012528465F
:103DE00070BD000010B5002240211048FCF7C4FB54
:103DF0001520FFF71FFDFF20FFF71CFD04460122E1
:103E000040210A48FCF7B8FB04F0010060B9002229
:103E100040210648FCF7B0FBB720FFF70BFD01225D
:103E200040210248FCF7A8FB10BD0000001402402E
:103E300070B505460C46164600F0E2F800F0BCF8F6
:103E4000002240211648FCF797FB0220FFF7F2FC06
:103E5000200EFFF7EFFCC4F30740FFF7EBFCC4F3C1
:103E60000720FFF7E7FCE0B2FFF7E4FCB6F5807F40
:103E700003DD00260BA0FEF7EBFB03E02878FFF73D
:103E8000D9FC6D1C301EA6F10101CEB2F6D1012283
:103E900040210348FCF770FB00F08EF870BD000075
:103EA000001402407732357178785F70616765770A
:103EB00072697465206572726F720A002DE9F041B3
:103EC0000024002500260027FFF78CFF0022402158
:103ED0000F48FCF751FB9F20FFF7ACFCFF20FFF7DA
:103EE000A9FC0546FF20FFF7A5FC0646FF20FFF7CB
:103EF000A1FC0746012240210548FCF73DFB2804B0
:103F000040EA062040EA07042046BDE8F0810000B0
:103F10000014024070B505460C46164600224021AA
:103F20001148FCF729FB0320FFF784FC200EFFF764
:103F300081FCC4F30740FFF77DFCC4F30720FFF7C3
:103F400079FCE0B2FFF776FC04E0FF20FFF772FC9B
:103F500028706D1C301EA6F10106F6D10122402109
:103F60000148FCF709FB70BD0014024010B504467F
:103F700000F046F800F020F8002240210D48FCF740
:103F8000FBFA2020FFF756FC200EFFF753FCC4F38A
:103F90000740FFF74FFCC4F30720FFF74BFCE0B2EC
:103FA000FFF748FC012240210248FCF7E5FA00F047
:103FB00003F810BD0014024070B5002442F21075E1
:103FC000002240210D48FCF7D7FA0520FFF732FC0C
:103FD00000BFFF20FFF72EFC0446281EA5F10101BB
:103FE0008DB200D170BD04F001000028F1D1012292
:103FF00040210248FCF7C0FA00BFF3E7001402407A
:1040000010B5002240210648FCF7B6FA0620FFF75B
:1040100011FC012240210248FCF7AEFA10BD00005D
:10402000001402402DE9F047074688461646002452
:10403000A1460025A246FFF7E3FFFFF7BDFFF4B25C
:10404000301B85B22846E91705EB1161C1F307293A
:10405000E91705EB11610912A5EB012101F0FF0A37
:10406000FCB9B9F1000F05D1F2B241463846FFF76D
:10407000DFFE4EE008E0002241463846FFF7D8FE5A
:1040800007F5807708F58078B9F10000A9F1010102
:1040900001F0FF09EFD1524641463846FFF7C8FE0E
:1040A00037E0B9F1000F14D1A64205D2F2B2414671
:1040B0003846FFF7BDFE2CE0E2B241463846FFF736
:1040C000B7FEA0442744EAB241463846FFF7B0FEA7
:1040D0001FE0E2B241463846FFF7AAFEA04427445B
:1040E00008E0002241463846FFF7A2FE07F5807738
:1040F00008F58078B9F10000A9F1010101F0FF098C
:10410000EFD1BAF1000F04D0524641463846FFF7CE
:104110008FFEBDE8F08700000000000000000102F3
:104120000304060708090000000001020304000060
:1041300001030507090E10121416181C1E81FE003B
:1041400000407E80FE0000000100040010004000DE
:10415000000100020000010002000400080010003D
:104160002000000007000000000000000000000028
:10417000000000009441000800000020280000001A
:10418000A8260008BC41000828000020D82700000D
:10419000B82600080024F400000000001000000011
:1041A000010000000000000000000000000000000E
:0C41B00000000000000000000000000003
:04000005080001AD41
:00000001FF
