:020000040800F2
:10000000E80700204D020008EB1700080916000859
:10001000E917000843040008D12000080000000090
:10002000000000000000000000000000AD1F0008FC
:100030004504000800000000ED170008AF1F00088D
:1000400067020008670200086702000867020008EC
:1000500067020008670200086702000867020008DC
:1000600067020008670200086702000867020008CC
:1000700067020008670200086702000867020008BC
:1000800067020008670200086702000867020008AC
:10009000670200086702000867020008670200089C
:1000A000670200086702000867020008670200088C
:1000B000670200086702000867020008670200087C
:1000C000670200086702000867020008670200086C
:1000D000670200086702000867020008670200085C
:1000E000670200086702000867020008670200084C
:1000F000670200086702000867020008670200083C
:10010000670200086702000867020008670200082B
:10011000670200086702000867020008670200081B
:10012000670200086702000867020008670200080B
:1001300067020008670200086702000867020008FB
:1001400067020008670200086702000867020008EB
:1001500067020008670200086702000867020008DB
:1001600067020008670200086702000867020008CB
:10017000670200086702000867020008000000002C
:1001800067020008670200086702000867020008AB
:10019000670200086702000867020008670200089B
:1001A00067020008670200086702000800F002F812
:1001B00000F03CF80AA090E8000C82448344AAF1C5
:1001C0000107DA4501D100F031F8AFF2090EBAE8C3
:1001D0000F0013F0010F18BFFB1A43F0010318477B
:1001E000F01F000010200000103A24BF78C878C12A
:1001F000FAD8520724BF30C830C144BF04680C602D
:10020000704700000023002400250026103A28BF74
:1002100078C1FBD8520728BF30C148BF0B60704778
:100220001FB501F0C4FF1FBD10B510BD00F0CFF821
:100230001146FFF7F5FF01F0ABFF00F0EDF803B456
:10024000FFF7F2FF03BC00F0F5F800000948804713
:1002500009480047FEE7FEE7FEE7FEE7FEE7FEE7A8
:10026000FEE7FEE7FEE7FEE704480549054A064BC0
:1002700070470000B51F0008AD010008E80100202C
:10028000E8070020E8030020E803002053EA020CFE
:1002900000F069802DE9F04B4FF00006002B1FBFE6
:1002A000B3FA83F503FA05F424FA05F65E4012BFAB
:1002B0001643B2FA82F502FA05F4C5F120051EBF15
:1002C00022FA05FC44EA0C04203556EA044C4FEAB5
:1002D000144418BF641C4FF000084FF0000990420E
:1002E00071EB030C39D3002919BFB1FA81F701FA78
:1002F00007F6B0FA80F700FA07F6C7F120071EBF2D
:1003000020FA07FC46EA0C062037B6FBF4FCA7EB04
:100310000507103F07F01F0BCBF120060CFA0BFB73
:100320002CFA06F644BFB3460026202FA4BF5E4633
:100330004FF0000B5BEA060C08BF4FF0010B19EB06
:100340000B09ABFB027C48EB0608C01B06FB02CC8A
:100350000BFB03CC71EB0C01C1E70B460246414697
:100360004846BDE8F08B13B54FF000004FF0000198
:10037000AFF30080BDE81C4070474FF0000200B5AD
:10038000134694469646203922BFA0E80C50A0E8B8
:100390000C50B1F12001BFF4F7AF090728BFA0E866
:1003A0000C5048BF0CC05DF804EB890028BF40F832
:1003B000042B08BF704748BF20F8022B11F0804F74
:1003C00018BF00F8012B704770477047704775469B
:1003D00000F02CF8AE4605006946534620F00700B1
:1003E000854618B020B5FFF73FFFBDE820404FF02D
:1003F00000064FF000074FF000084FF0000B21F00F
:100400000701AC46ACE8C009ACE8C009ACE8C009DB
:10041000ACE8C0098D46704710B50446AFF30080C4
:100420002046BDE81040FFF70ABF000000487047B3
:100430008401002001491820ABBEFEE7260002001F
:100440007047FEE7704772B6FEE7000070B50446DD
:1004500000F02EF90546601C02D0044800780444E0
:1004600000F026F9401BA042FAD370BD0400002022
:100470002DE9F84FDFF8F8A1002201240AF1040B5E
:1004800003254FF00F090BF1040E00BF0B6804FAAF
:1004900002F63340B34270D10F7907F00307012F02
:1004A00001D0022F16D187684FEA420805FA08FCEE
:1004B00027EA0C07D1F80CC00CFA08FC4CEA070C30
:1004C000C0F808C04768B7430E79C6F300169640D7
:1004D0003E4346600E79F643B6070AD0C7684FEA36
:1004E000420C05FA0CF6B7438E6806FA0CF63E434A
:1004F000C6600E7906F00306022E10D1D60800EB76
:100500008608D8F8206057074FEAD76C09FA0CF72D
:10051000BE430F6907FA0CF73743C8F82070066826
:100520004FEA420C05FA0CF7BE430F7907F00307B8
:1005300007FA0CF7374307604E6816F4403F1CD0AB
:100540004C4E376847F480473760366822F003071F
:1005500006F480460096484E07EB060CDCF8086867
:1005600097073F0F09FA07F826EA0806DFF80C811B
:10057000404503D14FF0000841E072E0DFF8008110
:10058000404502D14FF0010839E0DFF8F8804045DE
:1005900002D14FF0020832E0DFF8EC80404502D192
:1005A0004FF003082BE0DFF8E480404502D14FF024
:1005B000040824E0DFF8D880404502D14FF0050858
:1005C0001DE0DFF8D080404502D14FF0060816E06C
:1005D000DFF8C480404502D14FF007080FE0DFF894
:1005E000BC80404502D14FF0080808E0DFF8B08039
:1005F000404502D14FF0090801E04FF00A0808FA1F
:1006000007F848EA0608CCF80888DAF80060574688
:10061000D1F804C09E435FEACC3C00D51E433E6047
:10062000DBF800605F46D1F804C09E435FEA8C3C73
:1006300000D51E433E60DEF800607746D1F804C066
:100640009E435FEACC2C00D51E433E60084F0C371A
:100650003E68D1F804C09E435FEA8C2C00D51E434F
:100660003E60521C102AFFF411AFBDE8F88F000065
:10067000003C01404438024000300140000002408C
:100680000004024000080240000C0240001002403A
:100690000014024000180240001C024000200240EA
:1006A000002402400AB1816170470904FBE70000A1
:1006B00001488068704700000400002090F83D2049
:1006C000202A01D002207047242280F83D200268B1
:1006D000136823F0010313600268536A23F01003C8
:1006E00053620268536A0B43536201680A6842F01E
:1006F00001020A60202180F83D100020704790F828
:100700003D20202A01D002207047242280F83D207D
:100710000268136823F00103136003685A6A22F029
:100720000F020A4391B2596201680A6842F001025D
:100730000A60202180F83D100020704770B5040049
:1007400025D094F83D00002520B984F83C5020467F
:1007500000F0B8F8242084F83D002068016821F0FA
:10076000010101602068016841F4004101602068D6
:10077000016821F40041016000F036FA4D4A6168D9
:10078000914201D84C4900E04C49884201D20120F5
:1007900070BD4B492368B0FBF1F15E6826F03F065F
:1007A0000E435E606368934206D94FF496735943D3
:1007B0004FF47A73B1FBF3F12368491C1E6A26F0EB
:1007C0003F06314319626168914210D84900401ECA
:1007D000B0FBF1F2521CC2F30B02042A01D2042036
:1007E00022E0B0FBF1F0401CC0F30B001CE0A2685B
:1007F000F2B301EBC10303EB0116431EB3FBF6F3A7
:100800005B1C43F480431B0549D092B301EBC1024A
:1008100002EB0111401EB0FBF1F0401CC0F30B00D5
:1008200040F4804040F400402168CA694CF6FF73F0
:100830009A431043C861D4E9071001432068026855
:1008400022F0C00211430160D4E903010143206892
:10085000826848F2FF339A4311438160D4E905016D
:1008600008432168CA6822F0FF021043C86001E013
:100870000EE016E02068016841F001010160256486
:10088000202084F83D00256384F83E50002070BD90
:1008900001EB4106431EB3FBF6F35B1CB3E70120FB
:1008A000C2E701EB4101401EB0FBF1F0401CC0F378
:1008B0000B00B7E7A086010080841E0000093D0000
:1008C00040420F0010B586B0044614216846FFF779
:1008D00054FD13492068884220D112480021026843
:1008E00042F002020260006800F002000590C020A1
:1008F00000901220CDE90101032003900420049010
:1009000069460948FFF7B4FD06481030016841F414
:1009100000110160006800F40010059006B010BDE1
:100920000054004030380240000402400248816810
:100930000278114481607047040000200B4810B514
:10094000016841F400710160016841F48061016057
:10095000016841F480710160032000F061F80F200C
:1009600000F006F800F024F8002010BD003C024022
:1009700070B50D4D04464FF47A712878B1FBF0F054
:100980000A490968B1FBF0F000F0C2FD48B9102C2B
:1009900007D200222146501E00F022F800206C6091
:1009A00070BD012070BD0000040000200000002088
:1009B0000A4808B5016841F480410160006800F40C
:1009C000804000900548001F016841F0805101609F
:1009D000006800F08050009008BD000044380240DC
:1009E000F0B40E4B1B680C46C3F30223C3F107059A
:1009F000042D00D90425191D072901D2002300E088
:100A0000DB1E012606FA05F1491E214099409E4051
:100A1000761E16403143F0BC01F0AABB0CED00E09D
:100A2000064900F0070208684FF6FF03184040EA45
:100A30000220034A10430860704700000CED00E0FC
:100A40000000FA052DE9F8431748016841F080518C
:100A500001600068154F00F08050012600903E6450
:100A6000FFF726FE05464FF47A78114C05E000BFEB
:100A7000FFF71EFE401B40450DD86068C003F7D548
:100A80007E64FFF715FE0546464607E0FFF710FEB9
:100A9000401BB04202D90320BDE8F88360688003A0
:100AA000F4D50020F8E700004038024000000E4274
:100AB000007000402DE9F0470E46050065D0DFF8D4
:100AC0001481D8F80000F7B200F00F00B04207D24E
:100AD00088F80070D8F8000000F00F00B04254D140
:100AE00028683D4C810712D5400703D5206840F4A3
:100AF000E05020602878000703D5206840F460406B
:100B000020602068A96820F0F00008432060287861
:100B1000C0072DD0304968680839012812D0022852
:100B200013D0032811D00968890700292DDA21681C
:100B300021F0030101432160FFF7BAFD814641F234
:100B4000883A0EE009688903EFE709688901ECE754
:100B5000FFF7AEFDA0EB0901514502D90320BDE826
:100B6000F0872068696800F00C00B0EB810FEFD1CE
:100B7000D8F80010404601F00F01B14207D90770C4
:100B8000006800F00F00B04201D00120E7E72878AC
:100B9000400705D52068E96820F4E050084320604C
:100BA0002878000706D52068296920F4604040EACB
:100BB000C100206000F038F82168084AC1F3031131
:100BC000515CC8400649086006480068FFF7D0FE3F
:100BD0000020C4E7003C024008380240B821000869
:100BE000000000200800002004480549006809684A
:100BF000044AC1F38221515CC840704700000020C4
:100C000008380240C82100080448054900680968FE
:100C1000044AC1F34231515CC840704700000020D3
:100C200008380240C8210008154810B5006810F0C7
:100C30000C02144813D01449042A0FD0082A0ED1EC
:100C40000F4C241F2268236802F03F025B0207D585
:100C50002068C0F38810A0FB010106E0084610BD23
:100C60002168C1F38811A1FB00010023FFF70EFBEF
:100C70002168C1F30141491C4900B0FBF1F010BDEE
:100C8000083802400024F40040787D012DE9F84F37
:100C900004006ED02078DFF84C93C007A9F104055A
:100CA0004AD009F104000168C1F38101012908D08B
:100CB0000068C0F3810002280AD1D9F80000400280
:100CC00006D52868800337D560680028E1D033E076
:100CD0006068B0F5803F10D0B0F5A02F286810D024
:100CE00020F480302860286820F480202860606824
:100CF000A8B1FFF7DDFC06460DE0286840F480301F
:100D0000F4E740F480202860F7E700BFFFF7D0FC4D
:100D1000801B642873D828688003F7D50CE0FFF7A0
:100D2000C7FC064605E000BFFFF7C2FC801B642835
:100D3000F0D828688003F7D42078DFF8AC828007E9
:100D40004FF0000A3ED5A748001D016811F00C0FB6
:100D500008D00068C0F3810002280BD1D9F8000048
:100D6000400207D42868800716D5E068012800D122
:100D700012E033E1E068B8B10120C8F80000FFF7E5
:100D800097FC064605E000BFFFF792FC801B022897
:100D9000C0D828688007F7D52868216920F0F800B6
:100DA00040EAC10028600DE0C8F800A0FFF780FC11
:100DB000064604E0FFF77CFC801B02281FD8286849
:100DC0008007F7D42078000722D5864F87486169CD
:100DD000703771B101210160FFF76AFC064604E03B
:100DE000FFF766FC801B022809D838688007F7D512
:100DF0000EE0C0F800A0FFF75BFC064605E082E0CD
:100E0000FFF756FC801B02287DD838688007F7D48E
:100E10002078400768D5DFF8CCB100270BF13C0BF8
:100E2000DBF80000C0000BD4DBF8001041F080516B
:100E3000CBF80010DBF80000012700F08050009094
:100E40006B4E3068C00510D4306840F4807030605C
:100E5000FFF72EFC009005E0FFF72AFC0099401AEE
:100E6000022850D83068C005F6D55E4EA0686C36B2
:100E700001280FD00528306810D020F00100306024
:100E8000306820F004003060A068B8B1FFF710FCB3
:100E900000900FE0306840F00100F4E740F00400FB
:100EA0003060F7E7FFF704FC0099411A41F28830FF
:100EB000814266D830688007F4D50EE0FFF7F8FB72
:100EC000009007E0FFF7F4FB0099411A41F28830E7
:100ED000814256D830688007F4D42FB1DBF8001077
:100EE00021F08051CBF80010A069C8B33D49091D1D
:100EF0000968C1F3810102294AD00228504607D06F
:100F0000C8F8600000E03CE0FFF7D2FB04463BE09D
:100F10004746C8F86000FFF7CBFB064605E000BF78
:100F2000FFF7C6FB801B02282BD828688001F7D466
:100F3000D4E907010843A16A2E4A490802EB01419E
:100F4000626A41EA8211084394F82C1040EA016178
:100F5000C9F8001001203866FFF7AAFB044606E036
:100F60003EE000BFFFF7A4FB001B022809D8286859
:100F70008001F7D534E000BFFFF79AFB001B022881
:100F800002D90320BDE8F88F28688001F4D427E057
:100F90000128F7D0D9F80000E26900F480019142FD
:100FA0001CD1226A00F03F01914217D147F6C0716F
:100FB000626A0140B1EB821F10D1A26A4FF0FF3389
:100FC00000F4403103EB5202B1EB024F06D194F82A
:100FD0002C1000F07060B0EB016F01D00120D1E760
:100FE0000020CFE70438024000004742800E47420D
:100FF000007000400000FFFF2DE9FE43044600267C
:1010000003200D4684F83400606C03285ED0B5F5EB
:10101000805F5BD04FF4006700204FF08068BD42D6
:101020001FD18146009001900021206800F0F5FB5F
:10103000800113D46946204600F07AFE07000DD1E6
:101040000198400334D5B4F850000104206800F042
:1010500014FC070002D10221206823E0A06B384372
:1010600028E01DB1A06B40F0006023E081460090B5
:1010700001900021206800F0D0FB8001EED4694689
:10108000204600F055FE0700E8D10198C0030FD5B7
:10109000B4F850000104206800F0EFFB0700DDD138
:1010A0000021206800F035FC0700D7D14F46D5E776
:1010B0004746D3E7A063A06B144F4FF0010848B137
:1010C0002068876384F8348001260EE0A06B40F02E
:1010D0008050EFE7211DD4E9050C0EC9CDE9005081
:1010E000CDF808C0206800F09BFB4FF40071206829
:1010F00000F0F6FB28B121688F63A16B0143A16367
:10110000012684F834803046BDE8FE83FF054000A8
:10111000F0B5426E920F0A70426EC2F383624A705B
:10112000426EC2F301628A70426E120CCA70B0F84D
:101130006420120A0A7190F864204A71826E120DBE
:10114000CA80826EC2F303420A72B0F86820C2F30A
:10115000C0324A72B0F86820C2F380328A72B0F8A6
:101160006820C2F34032CA72B0F86820C2F300327D
:101170000A7300264E73426C4FF40075012462B16D
:10118000012A3AD0026847499163816B41F080514E
:10119000816380F834400120F0BDB0F86820C36E50
:1011A0009205120D42EA93720A61C26EC2F3C262E4
:1011B0000A75C26EC2F302624A75C26EC2F342522F
:1011C0008A75C26EC2F38242CA75C26EC2F3C2325F
:1011D0000A760A69521C42650B7E03F007039B1CCA
:1011E0009A4042650B7A03F00F0704FA07F3836510
:1011F0005B0A5A43C0E917250EE090F86820C36ED9
:101200009206920A42EA13420A610A69521C920249
:101210004265C0E91652056630F86C2FC2F3803281
:1012200001F8192F0288C2F3C6124A70027802F040
:101230007F028A704268D20FCA704268C2F341725C
:101240000A714268C2F382624A714268C2F38352F1
:101250008A714268C2F34052CA710E724268C2F388
:1012600000424A728288C2F3C0328A728288C2F314
:101270008032CA728288C2F340320A738288C2F313
:1012800000324A738288C2F381228A738288C2F351
:101290000122CA730079C0F3460008744C74002020
:1012A000F0BD0000FF05400070B504000ED094F8BA
:1012B0003400002518B92577204600F04BF80320AC
:1012C00084F83400204600F00BF808B1012070BD0E
:1012D000A5632563012084F83400002070BD000060
:1012E000FEB50025044676200095CDE9015029463B
:1012F0000B460A46206800F093FA28BB134E46F8C6
:10130000A05F206800F09EFA01253560204600F0BD
:10131000F3FD28B184F83450A16B0143A16313E0BD
:10132000204600F072FD0028F4D14FF400712068CF
:1013300000F0D6FA002808D0226805499163A16B15
:101340000143A16384F834500120FEBD0080254292
:10135000FF054000F0B587B0044614216846FFF74A
:101360000CF81D492068884233D11C4800240168CC
:1013700041F400610160006800F4006005901748C6
:101380001438016841F004010160016801F00401B2
:101390000591016841F0080101600068022500F034
:1013A000080005904FF4F850CDE9000502AA032685
:1013B0000C2782E8D00069460948FFF759F8042055
:1013C000CDE9000502AA694682E8D0000548FFF78A
:1013D0004FF807B0F0BD0000002C01404438024037
:1013E00000080240000C024070B5040009D0606A99
:1013F000002540B125616561A56294F8510040B1B6
:101400000CE0012070BD6068B0F5827FF4D0E5612A
:10141000F2E784F85050204600F044F8022084F8A7
:1014200051002068016821F040010160A0882189F5
:1014300000F4827001F404410843A18901F40061C1
:101440000843217C01F002010843217D01F00101E4
:101450000843218B01F400710843217F01F038011A
:10146000084394F8201001F080010843218D01F415
:101470000051084321680860A069042101EA104076
:1014800094F8241001F01001084321684860206896
:10149000C16921F40061C1616565012084F85100D2
:1014A000002070BD10B586B0044614216846FEF7D2
:1014B00064FF14492068884221D113480021026842
:1014C00042F480120260006800F4801005900E481B
:1014D0001438026842F020020260006800F0200028
:1014E00005904FF4607000900220CDE901010320C7
:1014F00003900520049069460448FEF7B9FF06B042
:1015000010BD000000500140443802400014024069
:1015100010B5401EB0F1807F01D3012010BD4FF007
:10152000E02460610F21601700F022FE0020A0611E
:1015300007202061002010BD70B5040004D094F88D
:101540003D00002510B106E0012070BD84F83C503C
:10155000204600F023F8242084F83D002068C1686C
:1015600021F40051C160204600F02CFD2068016983
:1015700021F4904101612068416921F02A01416113
:101580002068C16841F40051C1602564202084F8BE
:101590003D0084F83E00002070BD000010B586B00C
:1015A000044614216846FEF7E8FE14492068884284
:1015B00021D113480021026842F010020260006845
:1015C00000F0100005900E481438026842F0010245
:1015D0000260006800F0010005904FF4C0600090C8
:1015E0000220CDE901010320039007200490694601
:1015F0000448FEF73DFF06B010BD0000001001409A
:101600004438024000000240FEE700002DE9F041AE
:1016100086B014216846FEF7B0FE2A48002401680F
:1016200041F020010160016801F02001059101688D
:1016300041F080010160016801F0800105910168BD
:1016400041F004010160016801F0040105910168A5
:1016500041F001010160016801F00101059101689B
:1016600041F008010160016801F00801059101687D
:1016700041F0020101600068134F00F00200059084
:10168000002240213846FFF70DF8DFF84080BE14F5
:10169000002231464046FFF705F840200090012522
:1016A000CDE90154694638460394FEF7E1FE009601
:1016B000CDE90154694640460394FEF7D9FE06B0D1
:1016C000BDE8F0813038024000140240001C0240A6
:1016D000144810B5124901601349416000214FF4CC
:1016E00080428160C0E9031241618161C161016290
:1016F000FFF724F808B1FEF7A6FE00210948FEF71F
:10170000DDFF08B1FEF79FFE00210648FEF7F7FF58
:10171000002803D0BDE81040FEF795BE10BD0000C4
:101720000054004010000020A08601000E4810B5B3
:101730000C490160002141608160C160016141612B
:101740008161FFF7B1FD08B1FEF77DFE4FF4006146
:101750000548FFF751FC002803D0BDE81040FEF714
:1017600072BE10BD002C0140640000200F4810B56F
:101770000D4901604FF48271416000218160C160B8
:101780004FF400720161C0E90512C161016241625A
:1017900081620A21C162FFF727FE002803D0BDE85D
:1017A0001040FEF750BE10BD00500140E800002080
:1017B0000C4810B50A4901604FF4E1314160002145
:1017C00081600C22C160C0E904128161C161FFF730
:1017D000B3FE002803D0BDE81040FEF734BE10BDB4
:1017E0000010014040010020FEE7FEE770470A6854
:1017F00042624A688262D1E902231A43D1E9043184
:101800000B43C16A1A4321F0F7011143C162002062
:101810007047006800F00300704708444069704753
:1018200070B50DF1100C11439CE87000234319436F
:1018300029434268314347F6FF639A430A434260B3
:10184000002070BD10B5032101600220FEF7FEFDEF
:10185000002010BDD0F8800070470A688260D1E98E
:1018600001231A43D1E903310B43C1681A436FF3D3
:101870000B011143C1600020704710B586B00446CB
:101880003720CDE9001040200290002003904FF453
:101890008060049069462046FFF7DFFF41F28832FE
:1018A0003721204600F026F906B010BD10B50446D9
:1018B0000A4886B001432920CDE90010402002905B
:1018C000002003904FF48060049069462046FFF7A3
:1018D000C4FF204600F0C6F906B010BD000010801D
:1018E00010B586B004461020CDE9001040200290CB
:1018F000002003904FF48060049069462046FFF773
:10190000ACFF41F288321021204600F0F3F806B017
:1019100010BD10B586B004460620CDE90010402069
:101920000290002003904FF48060049069462046A6
:10193000FFF793FF41F288320621204600F0DAF8E3
:1019400006B010BD30B585B0002405460094019462
:101950004FF480600294CDE9034069462846FFF7C2
:101960007CFF0B484FF4FA510068B0FBF1F041F2F4
:1019700088314843401E03D24FF0004005B030BDCF
:10198000696B0906F6D5C520A8632046F6E7000076
:101990000000002070B585B004464FF4D57000906B
:1019A00001A908204025002681E86100C0010490BB
:1019B00069462046FFF751FF12484FF4FA5100687C
:1019C000B0FBF1F041F288314843401E03D24FF0A2
:1019D000004005B070BD616B11F0450FF5D00905F1
:1019E000F3D4606B400701D5042003E0606BC007AF
:1019F00002D00120A063ECE7606B400600D5A56330
:101A00003046E6E70000002010B586B00446072007
:101A1000CDE9002040200290002003904FF4806028
:101A2000049069462046FFF718FF41F288320721EB
:101A3000204600F05FF806B010BD10B586B0044631
:101A400000210220CDE90010C020CDE902014FF4B1
:101A50008060049069462046FFF7FFFE204600F0B4
:101A6000D9F806B010BD10B586B004460920CDE9FE
:101A70000010C0200290002003904FF4806004907A
:101A800069462046FFF7E9FE204600F0C3F806B09D
:101A900010BD10B586B0044600213320CDE90010FA
:101AA0004020CDE902010001049069462046FFF77D
:101AB000D4FE41F288323321204600F01BF806B0F4
:101AC00010BD30B585B00C46054600210320CDE998
:101AD00000104020CDE9020100010490694628462B
:101AE000FFF7BBFE22460321284600F0DDF805B0D3
:101AF00030BD0000454B10B51B684FF4FA54B3FBE2
:101B0000F4F353435B1E02D24FF0004010BD426B12
:101B100012F0450FF6D01205F4D4426B520703D5EC
:101B200004218163084610BD426BD20702D0012117
:101B3000816305E0C52282630269D2B28A4201D084
:101B4000012010BD0021FFF768FE3149084201D194
:101B5000002010BD002802DA4FF0007010BD4100D7
:101B600001D5402010BD810001D5802010BDC100ED
:101B700002D54FF4807010BD010102D54FF4007002
:101B800010BD410102D54FF4806010BDC10102D5E6
:101B90004FF4006010BD010202D54FF4805010BD1B
:101BA000410202D54FF4005010BD810202D54FF41E
:101BB000804010BDC10202D54FF4004010BD41036A
:101BC00002D54FF4003010BD810302D54FF48020C0
:101BD00010BDC10302D54FF4002010BD010402D591
:101BE0004FF4801010BD410402D54FF4001010BD19
:101BF000810402D54FF4800010BD000702D54FF4D8
:101C0000000010BD4FF4803010BD00000000002027
:101C100008E0FFFD12494FF4FA520968B1FBF2F1F6
:101C200041F288325143491E02D24FF000407047C2
:101C3000426B12F0450FF6D01205F4D4416B490700
:101C400003D50421816308467047416BC90703D05F
:101C50000121816308467047C521816300207047D8
:101C6000000000200F494FF4FA520968B1FBF2F16D
:101C700041F288325143491E02D24FF00040704772
:101C8000426B12F0450FF6D01205F4D4416B4907B0
:101C900003D50421816308467047C5218163002074
:101CA000704700000000002030B5204B4FF4FA547C
:101CB0001B68B3FBF4F341F2883463435B1E02D22A
:101CC0004FF0004030BD446B14F0450FF6D02405B2
:101CD000F4D4436B5B0703D504218163084630BD10
:101CE000436BDB0702D00121816303E00369DBB2B0
:101CF0008B4201D0012030BDC52181630021FFF757
:101D00008CFD10F4604F04D0410406D54FF4005010
:101D100030BD000C1080002030BD000402D54FF40F
:101D2000805030BD4FF4803030BD000000000020F6
:101D30002DE9F04788B00D460446FEF7B9FC0026B1
:101D4000824600960196374608212068FFF7C8FDB5
:101D5000002829D1B4F8500001042068FFF78DFD58
:101D6000002821D1401E4FF00808CDE9020830209C
:101D70004FF00209CDE904090120CDE9067002A95E
:101D80002068FFF734FD2068FFF783FE00280BD1A1
:101D90006F462068416B11F02A0F08D0416B09078C
:101DA0001AD5C0F83880082008B0BDE8F087416B2C
:101DB000890205D5FFF74EFD47F82600761C02E0A4
:101DC000416B8904EAD5FEF773FCA0EB0A00401CC6
:101DD000DFD14FF00040E7E7416B890703D5C0F83A
:101DE00038900220E0E7416B890603D5202181630A
:101DF0000846D9E740F23A518163019800BA286059
:101E0000009800BA68600020CEE710B590B0044694
:101E10000120ADF838002068FFF7FBFC002854D003
:101E2000606C032842D02068FFF707FE00284AD1E3
:101E300000212068FFF7F1FC606704212068FFF7AC
:101E4000ECFCA06708212068FFF7E7FCE0670C21A5
:101E50002068FFF7E2FCC4F88000606C032825D0FE
:101E60000EA92068FFF72DFE00282CD1606C0328F6
:101E70001CD0BDF83800206501042068FFF7F3FD91
:101E8000002820D100212068FFF7C7FC60660421EC
:101E90002068FFF7C2FCA06608212068FFF7BDFCA0
:101EA000E0660C212068FFF7B8FC20670421206859
:101EB000FFF7B3FC000DE06403A92046FFF728F903
:101EC00030B14FF0805010B010BD4FF08060FAE795
:101ED000B4F85000002302042068FFF795FD0028A5
:101EE000F1D104F1100007C88DE8070094E80F0055
:101EF000FFF796FC0020E6E72DE9F84F00260446A0
:101F000000963546B0460068FFF71CFD002827D133
:101F10002068FFF73FFD4FF0805B4FF001094FF65F
:101F2000FF7748B1A6642068FFF70CFD002817D1A1
:101F3000A06C012802D020E0C4F84890002120685D
:101F4000FFF79BFC58B918E000212068FFF795FCCB
:101F5000002805D151462068FFF7A8FC10B158466B
:101F6000BDE8F88F00212068FFF757FC05464FEACF
:101F7000D0780098401C009002E0DFF82CA0009878
:101F8000B84202D2B8F1000FDED00098B84202D3B6
:101F90004FF08070E4E7680002D5C4F8449000E098
:101FA00066640020DCE70000000010C17047FEF707
:101FB000BDBC00000248016841F470010160704737
:101FC00088ED00E070B5044600680169E26821F41C
:101FD0004051114301612169A068E26908436169C8
:101FE000114308432168CA6849F20C639A430243CB
:101FF000CA6020684169A26921F4407111434161BE
:1020000031492068884202D03049884202D1FEF727
:10201000FBFD01E0FEF7E8FDE269002319216425DC
:102020003226B2F5004F626828D0A0FB0101930F61
:102030009200FEF72BF90146B0FBF5F06FF01802A5
:10204000504301EB800006EB0010B0FBF5F000F010
:10205000F002B1FBF5F002EB0012B1FBF5F06FF00E
:102060001803584301EB800006EB0010B0FBF5F0BD
:1020700000F00F0021681044886070BDA0FB0101D2
:1020800092185B41FEF702F90146B0FBF5F0020140
:10209000B1FBF5F06FF01803584301EB800006EB3D
:1020A000C000B0FBF5F000F0F80002EB4002B1FB1D
:1020B000F5F0584301EB800006EBC000B0FBF5F0F3
:1020C00000F00700D6E700000010014000140140B6
:1020D000FEE7000070B592B030216846FEF74DF97A
:1020E00014210CA8FEF749F91F480025016841F0AA
:1020F00080510160006800F0805011901B48016819
:1021000041F4404101600068022400F44040119015
:1021100001200090000401908001CDE906400F26C7
:102120000896D820CDE9090404200B906846FEF7F4
:10213000ADFD08B172B6FEE7FEF784FC08B172B6D9
:10214000FEE74FF4A050CDE90E504FF48050CDE99A
:102150000C64109005210CA8FEF7ACFC002801D0FF
:1021600072B6FEE712B070BD403802400070004009
:102170000907090E002804DB00F1E02080F80014B4
:10218000704700F00F0000F1E02080F8141D704748
:10219000FEF7D4FBFFF79EFFFFF738FAFFF798FA38
:1021A000FFF7C4FAFFF7E2FAFFF702FBFEE74FF092
:1021B0004070E1EE100A70470000000000000000CF
:1021C00001020304060708090000000001020304DD
:1021D000F02100080000002010000000E8010008C5
:1021E0000022000810000020D807000004020008A8
:1021F0000024F400010000001000000000000000B6
:04000005080001AD41
:00000001FF
