:020000040800F2
:1000000008280020C1010008611C0008E71B000847
:100010005D1C0008F9020008FB2C0008000000002D
:10002000000000000000000000000000612900083E
:10003000FD02000800000000651C0008632900089C
:10004000DB010008DB010008DB010008DB01000820
:10005000DB010008DB010008DB010008DB01000810
:10006000DB010008DB010008DB010008DB01000800
:10007000DB010008DB010008DB010008DB010008F0
:10008000DB010008DB010008DB010008DB010008E0
:10009000DB010008DB010008DB010008DB010008D0
:1000A000DB010008DB010008DB010008DB010008C0
:1000B000DB010008DB010008DB010008DB010008B0
:1000C000DB010008DB010008DB010008DB010008A0
:1000D000DB010008DB010008DB010008DB01000890
:1000E000DB010008DB010008DB010008DB01000880
:1000F000DB010008DB010008DB010008DB01000870
:10010000DB010008DB010008DB010008DB0100085F
:10011000DB010008DB010008DB010008DB0100084F
:10012000DB010008DB010008DB010008DB0100083F
:10013000DB010008DB010008DB010008DB0100082F
:10014000DB010008DB010008DB010008DB0100081F
:10015000DB010008DB010008DB010008DB0100080F
:10016000DB010008DB010008DB010008DB010008FF
:10017000DB010008DB010008DB01000800000000D3
:10018000DB010008DB010008DB010008DB010008DF
:10019000DB010008DB010008DB010008DB010008CF
:1001A000DB010008DB010008DB010008DFF80CD0F0
:1001B00000F090F8004800470533000808280020A8
:1001C0000648804706480047FEE7FEE7FEE7FEE7F1
:1001D000FEE7FEE7FEE7FEE7FEE7FEE7292A000866
:1001E000AD0100082DE9F05F0546002092469B46D0
:1001F00088460646814640241BE02846414647463D
:10020000224600F057F853465A46C01A914110D37F
:1002100011461846224600F03EF82D1A67EB0108F9
:100220004F4622460120002100F035F817EB000967
:100230004E41201EA4F10104DFDC484631462A4627
:100240004346BDE8F09FD2B201E000F8012B491E01
:10025000FBD270470022F6E710B513460A46044663
:100260001946FFF7F0FF204610BD30B50B4601469A
:1002700000202022012409E021FA02F59D4205D345
:1002800003FA02F5491B04FA02F52844151EA2F1EF
:100290000102F1DC30BD202A04DB203A00FA02F131
:1002A000002070479140C2F1200320FA03F3194364
:1002B00090407047202A04DB203A21FA02F0002106
:1002C000704721FA02F3D040C2F120029140084366
:1002D00019467047064C074D06E0E06840F0010300
:1002E00094E8070098471034AC42F6D3FFF762FF5A
:1002F000A4330008C433000800BFFEE7704772B69D
:1003000000BFFEE770B5044600F01CF9064625461E
:10031000681C10B104480078054400BF00F012F9D1
:10032000801BA842FAD370BD0C000020F8B502462D
:100330000B460025002400200021DFE0012606FAFC
:1003400001F51E6806EA0504AC4274D11E7906F078
:100350000306012E04D01E7906F00306022E13D1E7
:1003600090684F000326BE40B0434F00DE68BE4099
:1003700030439060506801268E40B0431E79C6F32A
:1003800000168E40304350601E7906F00306032E9F
:1003900009D0D0684F000326BE40B0434F009E688E
:1003A000BE403043D0601E7906F00306022E13D102
:1003B000CF0802F1200656F827004E07F70E0F2649
:1003C000BE40B0434F07FF0E1E69BE403043CF080A
:1003D00002F1200646F8270010684F000326BE40B1
:1003E000B0431E7906F003064F00BE403043106054
:1003F0005E6806F44036002E7FD000BF00260096CF
:10040000404E366846F480463E4F3E603E46366873
:1004100006F48046009600BF00BF3B4E8F0856F89A
:1004200027008E07370F0F26BE40B043374EB2422B
:1004300002D100262EE060E0354EB24201D1012605
:1004400028E0344EB24201D1022623E0324EB242BD
:1004500001D103261EE0314EB24201D1042619E03B
:100460002F4EB24201D1052614E02E4EB24201D1E8
:1004700006260FE02C4EB24201D107260AE02B4E91
:10048000B24201D1082605E0294EB24201D1092627
:1004900000E00A268F073F0FBE4030431A4E8F08F8
:1004A00046F82700234E3068A0435E6806F4803685
:1004B00006B120431F4E3060361D3068A0435E6891
:1004C00006F4003606B120431A4E361D3060361D44
:1004D0003068A0435E6806F4801606B12043154ECE
:1004E00008363060361D3068A0435E6806F400169A
:1004F00006B120430F4E0C363060491C1029FFF422
:100500001DAFF8BD443802400838014000000240E9
:100510000004024000080240000C024000100240AB
:100520000014024000180240001C0240002002405B
:1005300000240240003C01400AB1816101E00B044B
:100540008361704701480068704700000400002084
:10055000024692F83D0020281ED1242082F83D005A
:100560001068006820F00100136818601068406A85
:1005700020F01000136858621068406A084313683E
:1005800058621068006840F001001368186020206D
:1005900082F83D00002070470220FCE710B50246BB
:1005A0000B46002192F83D0020281DD1242082F81E
:1005B0003D001068006820F0010014682060106899
:1005C000406A81B221F00F0141EA030081B2106854
:1005D00041621068006840F001001468206020202B
:1005E00082F83D00002010BD0220FCE770B50446F3
:1005F0000CB9012070BD94F83D0028B9002084F8A2
:100600003C00204600F0DAF8242084F83D00206801
:10061000006820F00100216808602068006840F44C
:100620000040216808602068006820F400402168CC
:10063000086000F099FA05465C496068884206D86F
:100640005B48854201D2012007E0002005E05948BF
:10065000854201D2012000E00020012800D1C9E735
:100660005548B5FBF0F62068406820F03F00304365
:10067000216848604D496068884201D8701C07E0D5
:100680004FF4967070434FF47A71B0FBF1F0401C58
:100690002168096A21F03F01084321680862434943
:1006A0006068884214D8681E61684900B0FBF1F0A8
:1006B000401CC0F30B00042801D204203DE0681E5A
:1006C00061684900B0FBF1F0401CC0F30B0034E05E
:1006D000A06838B9681E616801EB4101B0FBF1F018
:1006E000401C0AE0681E616801EBC10202EB0111C7
:1006F000B0FBF1F0401C40F48040C0F30B0008B99F
:1007000001201AE0A06848B9681E616801EB410148
:10071000B0FBF1F0401CC0F30B000CE0681E6168F8
:1007200001EBC10202EB0111B0FBF1F0401CC0F380
:100730000B0040F4804040F400402168C9694CF649
:10074000FF72914308432168C861D4E90701084357
:100750002168096821F0C001084321680860D4E9D4
:10076000031008432168896848F2FF329143084327
:1007700021688860D4E9050108432168C96821F02F
:10078000FF0108432168C8602068006840F001004C
:100790002168086000202064202084F83D000020AB
:1007A000206384F83E0000BF24E70000A08601001B
:1007B00080841E0000093D0040420F007047000089
:1007C00003480068034909780844014908607047F4
:1007D000040000200C00002010B50D48006840F413
:1007E00000700B4908600846006840F480600860AB
:1007F0000846006840F480700860032000F092F81A
:100800000F2000F007F800F02BF8002010BD0000CA
:10081000003C024070B504460E4800784FF47A71EF
:10082000B1FBF0F00C490968B1FBF0F5284601F086
:100830001DF908B1012070BD102C07D200222146FD
:10084000501E00F031F80548046001E00120F2E795
:100850000020F0E70C00002000000020080000202D
:1008600008B500BF002000900E48006840F48040AA
:100870000C4908600846006800F48040009000BF02
:1008800000BF00BF00200090081F006840F08050AB
:10089000091F08600846006800F08050009000BF03
:1008A00000BF08BD443802402DE9F05F80460D4688
:1008B0001646002702F05EFA074639462A463346B6
:1008C00001F00700C0F1070ABAF1040F02D94FF096
:1008D000040A01E0C0F1070AD14600F1040ABAF1A6
:1008E000070F02D24FF0000A01E0A0F1030AD4463C
:1008F0004FF0010A0AFA09FAAAF1010A0AEA020A01
:100900000AFA0CFA4FF0010B0BFA0CFBABF1010BDE
:100910000BEA030B4AEA0B042146404602F032FA86
:10092000BDE8F09F00BF00F00702064B19684FF6C4
:10093000FF031940044B0B4343EA0221014B1960AA
:1009400000BF70470CED00E00000FA0538B5002448
:1009500000BF002000901D48006840F080501B49F7
:1009600008600846006800F08050009000BF00BF9B
:10097000012017490864FFF7E5FD044607E0FFF78B
:10098000E1FD001BB0F57A7F01D9032038BD114885
:10099000406800F48030B0F5803FF0D101200C4970
:1009A0004864FFF7CFFD044607E0FFF7CBFD001BCF
:1009B000B0F57A7F01D90320E8E70648406800F4E3
:1009C0000030B0F5003FF0D10020DFE740380240B2
:1009D00000000E420070004070B504460D460CB990
:1009E000012070BD5848006800F00F00A84209D2ED
:1009F00055490D700846006800F00F00A84201D06C
:100A00000120EEE7207800F0020002281DD12078B6
:100A100000F00400042805D14C48006840F4E05080
:100A20004A490860207800F00800082805D14748A6
:100A3000006840F46040454908604448006820F080
:100A4000F000A168084341490860207800F00100E7
:100A5000A8B36068012807D13C4808380068C0F393
:100A60004040B8B90120BCE76068022802D0606845
:100A7000032807D1354808380068C0F3406048B9FA
:100A80000120AEE7314808380068C0F3400008B9DB
:100A90000120A6E72D48006820F0030061680843A4
:100AA0002A490860FFF74EFD064609E0FFF74AFDB8
:100AB000801B41F28831884202D9032091E707E088
:100AC0002248006800F00C006168B0EB810FEDD1A6
:100AD0001D48006800F00F00A84209D91A490D709E
:100AE0000846006800F00F00A84201D0012078E716
:100AF000207800F00400042807D11448006820F48E
:100B0000E050E168084311490860207800F00800CF
:100B1000082808D10D48006820F46040216940EAA7
:100B2000C1000A49086000F03FF808490968C1F3AC
:100B30000311074A515CC84006490860064800682E
:100B4000FFF768FE00204CE7003C024008380240F6
:100B50008C330008000000200800002001480068D5
:100B6000704700000000002000B5FFF7F7FF0449C0
:100B70000968C1F38221034A515CC84000BD0000EE
:100B8000083802409C33000800B5FFF7E7FF04492E
:100B90000968C1F34231034A515CC84000BD0000FE
:100BA000083802409C3300082DE9F0470024002556
:100BB0000026A1462548006800F00C0020B104285A
:100BC00005D008283AD105E0DFF8849039E0DFF855
:100BD000849036E01D48001F006800F03F041B4869
:100BE000001F006800F4800078B11A481749091FF7
:100BF0000968C1F38811A0FB017001462246002359
:100C00003846FFF7EFFA05460EE011480F49091F75
:100C10000968C1F38811A0FB017001462246002338
:100C20003846FFF7DFFA05460848001F0068C0F3A2
:100C30000140401C4600B5FBF6F902E0DFF81090D9
:100C400000BF00BF4846BDE8F087000008380240FA
:100C50000024F40040787D01F8B504460CB9012069
:100C6000F8BD207800F00100002874D0F948006831
:100C700000F00C0004280DD0F648006800F00C00CD
:100C8000082813D1F348001F006800F48000B0F575
:100C9000800F0BD1EF4808380068C0F340400028AF
:100CA00059D06068002856D10120D9E700BF60689C
:100CB000B0F5803F08D1E7480838006840F480303C
:100CC000E449083908601EE06068B0F5A02F0DD136
:100CD000E0480838006840F48020DE4908390860A0
:100CE0000846006840F4803008600CE0D9480838B5
:100CF000006820F48030D749083908600846006849
:100D000020F48020086000BF606890B1FFF71AFCF3
:100D1000054606E0FFF716FC401B642801D90320B6
:100D20009EE7CC4808380068C0F340400028F1D066
:100D300011E0FFF707FC054606E0FFF703FC401B48
:100D4000642801D903208BE7C24808380068C0F343
:100D500040400028F1D1207800F0020002285FD145
:100D6000BC48006800F00C0058B1BA48006800F0B8
:100D70000C0008281CD1B748001F006800F4800050
:100D8000B0B9B44808380068C0F3400020B1E0684A
:100D9000012801D0012063E7AE480838006820F040
:100DA000F800216940EAC100AA490839086037E023
:100DB000E06800B30120A8490860FFF7C3FB0546BF
:100DC00006E0FFF7BFFB401B022801D9032047E7DD
:100DD000A04808380068C0F340000028F1D09D48C2
:100DE0000838006820F0F800216940EAC1009949FC
:100DF0000839086014E0002097490860FFF7A2FB5B
:100E0000054606E0FFF79EFB401B022801D90320A0
:100E100026E7904808380068C0F340000028F1D168
:100E2000207800F0080008282CD16069A8B10120C2
:100E30008A490860FFF786FB054606E0FFF782FB5C
:100E4000401B022801D903200AE782486C30006861
:100E5000C0F340000028F1D014E000207F49086072
:100E6000FFF770FB054606E0FFF76CFB401B02280E
:100E700001D90320F4E677486C300068C0F34000E5
:100E80000028F1D1207800F00400042870D1002758
:100E900070483830006800F0805090B900BF0020E2
:100EA00000906C483830006840F080506949383113
:100EB00008600846006800F08050009000BF00BF46
:100EC00001276748006800F48070B0B96448006882
:100ED00040F4807062490860FFF734FB054606E085
:100EE000FFF730FB401B022801D90320B8E65C481D
:100EF000006800F480700028F2D000BFA0680128CC
:100F000008D154486830006840F001005149683108
:100F100008601DE0A06805280DD14E4868300068C3
:100F200040F004004B49683108600846006840F012
:100F3000010008600CE047486830006820F00100BC
:100F40004449683108600846006820F004000860E1
:100F500000BFA068A8B1FFF7F5FA054609E0FFF762
:100F6000F1FA401B41F28831884202D9032077E62A
:100F700026E0384868300068C0F340000028EED012
:100F800013E0FFF7DFFA054608E0FFF7DBFA401B46
:100F900041F28831884201D9032061E62D4868304A
:100FA0000068C0F340000028EFD1012F07D1294885
:100FB0003830006820F0805026493831086000BF82
:100FC000A069002845D02348006800F00C000828DC
:100FD0005DD0A069022845D100201F490866FFF7AF
:100FE000B1FA054606E0FFF7ADFA401B022801D929
:100FF000032035E6174808380068C0F34060002831
:10100000F1D1D4E907010843616A40EA8111012264
:10101000A06AC2EB500041EA00412C20005D41EA89
:1010200000600C49091F086001200B490866FFF7A2
:1010300089FA054606E0FFF785FA401B022801D928
:1010400003200DE6034808380068C0F3406000281C
:10105000F1D049E00838024000004742800E474284
:1010600000700040002021490866FFF76BFA054632
:1010700006E0FFF767FA401B022801D90320EFE5DD
:101080001B480068C0F340600028F2D12CE0A06942
:10109000012800D1E4E51648001D0668A069012872
:1010A00020D006F48001E06981421BD106F03F01A7
:1010B000206A814216D147F6C0703040616AB0EBB9
:1010C000811F0FD106F440310122A06AC2EB50000B
:1010D000B1EB004F06D106F070612C20005DB1EB42
:1010E000006F01D00120BBE50020B9E500004742B8
:1010F00000380240F0B589B004460E4600270320B0
:1011000084F83400606C032820D0B6F5805F04D1E9
:10111000A06B40F08050A0631CE0B6F5006F07D1D3
:10112000204601F0E9FB0546A06B2843A06311E0CF
:101130003EB9204601F0ACFB0546A06B2843A063F6
:1011400008E0A06B40F00060A06303E0A06B40F0FB
:101150008050A063A06B38B11748216888630120D4
:1011600084F83400012713E060680390A0680490BD
:10117000E0680590069660690790A069089006A847
:1011800007C88DE80700206803A90EC900F090FD8C
:101190004FF40071206800F007FE054635B106489F
:1011A00021688863A06B2843A0630127012084F88D
:1011B0003400384609B0F0BDFF0540002DE9F04786
:1011C00004468846914647464E4694F83400012826
:1011D00077D10020A063BE4206D2A06B40F0006031
:1011E000A0630120BDE8F087E06DB04205D2A06B9E
:1011F00040F00070A0630120F4E7032084F834007D
:101200004C20005D00F0200050B92F482168886311
:10121000A06B40F08060A063012084F83400E1E717
:101220000021206800F03EFD00F00070B0F1007F6A
:101230000AD1254821688863A06B40F40060A06350
:10124000012084F83400CDE7606C012801D07F02D2
:101250007602606C03281FD03946206800F07CFEBF
:1012600005464DB1184821688863A06B2843A063E8
:10127000012084F83400B5E73146206800F050FEC4
:1012800005464DB1104821688863A06B2843A063D0
:10129000012084F83400A5E7206800F0BDFD054674
:1012A00055B1094821688863A06B2843A0630120D9
:1012B00084F8340096E704E0012084F8340000202C
:1012C00090E702208EE70000FF05400010B50246BF
:1012D000506E800F0870506EC0F383604870506E7F
:1012E000C0F301608870506E000CC870B2F86400E2
:1012F000000A087192F864004871906E000DC88071
:10130000906EC0F3034008726820805AC0F3C0306A
:1013100048726820805AC0F3803088726820805AF2
:10132000C0F34030C8726820805AC0F300300873A0
:1013300000204873506C002836D16820805A800500
:10134000030DD06E43EA90700861D06EC0F3C260A6
:101350000875D06EC0F302604875D06EC0F342507D
:101360008875D06EC0F38240C875D06EC0F3C230AD
:1013700008760869401C50650B7E506D03F007032A
:101380009B1C01249C4060435065087A00F00F03C9
:10139000012098409065D2E915035B0A5843D06557
:1013A0004FF40073136621E0506C012813D16820BC
:1013B000805C8006830AD06E43EA104008610869A9
:1013C000401C83025365536DD3654FF400739365DE
:1013D000936D13660AE02E4813689863906B40F093
:1013E00080509063012082F8340010BD6C20805A38
:1013F000C0F3803001F8190F6C20805AC0F3C6107A
:1014000048706C20805C00F07F008870106FC00F07
:10141000C870106FC0F341700871106FC0F3826024
:101420004871106FC0F383508871106FC0F3405043
:10143000C87100200872106FC0F30040487270201D
:10144000805AC0F3C03088727020805AC0F3803058
:10145000C8727020805AC0F3403008737020805AE0
:10146000C0F3003048737020805AC0F38120887325
:101470007020805AC0F30120C8737020805CC0F3D4
:10148000460008740120487419390020ADE70000B7
:10149000FF054000F8B5044600200090694620464C
:1014A00001F0DEF9054615B1A06B2843A063009852
:1014B000C0F343263046F8BD10B504460CB90120F0
:1014C00010BD94F8340020B900202077204600F0A9
:1014D00067F8032084F83400204600F00BF808B1C8
:1014E0000120EDE70020A0632063012084F8340090
:1014F0000020E5E770B58AB004460020049005900E
:101500000690079008907620099007A807C88DE8F4
:101510000700206804A90EC900F0CAFB064616B1F0
:1015200001200AB070BD00201B490860206800F04F
:10153000D9FB01201849A039C1F8A000204601F0CC
:1015400029F905463DB1012084F83400A06B2843F9
:10155000A0630120E5E7204601F09BF805463DB178
:10156000012084F83400A06B2843A0630120D8E751
:101570004FF40071206800F017FC05464DB1074894
:1015800021688863A06B2843A063012084F834009D
:10159000C7E70020C5E70000A0802542FF05400006
:1015A000704700002DE9FF4F89B004468B469946ED
:1015B000DDF858A0FEF7C6FF02900B9800905D463C
:1015C000BBF1000F07D1A06B40F00060A0630120C9
:1015D0000DB0BDE8F08F94F8340001287ED10020D2
:1015E000A063009800EB0901E06D814205D9A06B72
:1015F00040F00070A0630120EAE7032084F8340083
:1016000000202168C862606C012802D00098400266
:1016100000904FF0FF3003904FEA49200490902053
:10162000059002200690002007900120089003A951
:10163000206800F018FBB9F1010F07D902202063E0
:101640002068009900F034FC804606E00120206309
:101650002068009900F048FC8046B8F1000F0DD0DA
:10166000754821688863A06B40EA0800A0630120E8
:1016700084F83400002020630120A9E7049E3AE0AA
:101680002068406B00F40040E0B1DEB10020019022
:1016900015E0206800F02FFB07462F706D1C761EAA
:1016A000380A28706D1C761E380C28706D1C761E4A
:1016B000380E28706D1C761E0198401C0190019810
:1016C0000828E6D3FEF73EFF0299401A504502D2A1
:1016D000BAF1000F0FD15848216800E0A6E08863F6
:1016E000A06B40F00040A063012084F8340000208B
:1016F000206303206CE72068406B40F22A310840E9
:101700000028BDD02068406B00F48070D0B1B9F1E2
:10171000010F17D9606C032814D0206800F0DCFC9E
:101720008046B8F1000F0DD0434821688863A06B54
:1017300040EA0800A063012084F834000020206300
:10174000012045E72068406B00F0080068B13A4886
:1017500021688863A06B40F00800A063012084F832
:10176000340000202063012032E72068406B00F045
:10177000020068B1304821688863A06B40F0020025
:10178000A063012084F834000020206301201FE7BB
:101790002068406B00F0200068B12748216888630A
:1017A000A06B40F02000A063012084F834000020EA
:1017B000206301200CE729E0206800F09CFA07462E
:1017C0002F706D1C761E380A28706D1C761E380C22
:1017D00028706D1C761E380E28706D1C761EFEF764
:1017E000B1FE0299401A504502D2BAF1000F0DD154
:1017F000114821688863A06B40F00040A06301207D
:1018000084F83400002020630120E1E62068406B6A
:1018100000F4001008B1002ECED140F23A502168F9
:101820008863012084F834000020D1E6A06B40F0EA
:101830000050A0630120CBE6FF0540002DE9F04FEA
:1018400089B00446894693469846FEF77BFE02908F
:10185000DA464D46B9F1000F07D1A06B40F00060A9
:10186000A063012009B0BDE8F08F94F8340001288E
:101870007ED10020A0630AEB0801E06D814205D90A
:10188000A06B40F00070A0630120EBE7032084F818
:10189000340000202168C862606C012801D04FEA42
:1018A0004A2A4FF0FF3003904FEA482004909020DE
:1018B00005900020069007900120089003A9206859
:1018C00000F0D1F9B8F1010F07D92020206351466B
:1018D000206800F01FFC064606E0102020635146F9
:1018E000206800F033FC064666B15F4821688863D3
:1018F000A06B3043A063012084F8340000202063F3
:101900000120AFE7049F43E02068406B00F4804073
:1019100030B32FB3002001901FE0287800906D1C99
:101920007F1E2878009941EA002000906D1C7F1EE0
:101930002878009941EA004000906D1C7F1E2878AD
:10194000009941EA006000906D1C7F1E6946206886
:1019500000F0E9F90198401C019001980828DCD3B7
:10196000FEF7F0FD0299411A1298814203D200E07D
:1019700074E0129860B93C4821688863A06B3043DA
:10198000A063012084F8340000202063032069E76D
:101990002068406B40F21A3108400028B4D020681B
:1019A000406B00F48070B8B1B8F1010F14D9606CCD
:1019B000032811D0206800F08FFB064666B12A4844
:1019C00021688863A06B3043A063012084F8340051
:1019D00000202063012045E72068406B00F00800EC
:1019E00068B1214821688863A06B40F00800A063BB
:1019F000012084F8340000202063012032E72068B1
:101A0000406B00F0020068B1174821688863A06B42
:101A100040F00200A063012084F83400002020631D
:101A200001201FE72068406B00F0100068B10E48ED
:101A300021688863A06B40F01000A063012084F847
:101A400034000020206301200CE740F23A50216866
:101A50008863012084F83400002003E7A06B40F085
:101A60000050A0630120FDE6FF05400070B504466C
:101A70002546681EB0F1807F01D301200FE0681E6B
:101A80004FF0E02148610F214FF0FF3001F07AF96B
:101A900000204FF0E021886107200861002070BD20
:101AA00010B504460CB9012010BDA06900B100E0DA
:101AB00000BF94F83D0028B9002084F83C0020467F
:101AC00000F027F8242084F83D002068C06820F446
:101AD00000502168C860204600F0B0FF206800690F
:101AE00020F49040216808612068406920F02A00B5
:101AF000216848612068C06840F400502168C860CF
:101B000000202064202084F83D0084F83E0000205E
:101B1000CAE770472DE9F84F04460E461746994626
:101B20004FF0000A94F83D0020285AD106B117B9A9
:101B30000120BDE8F88F00BF94F83C00012801D1D6
:101B40000220F6E7012084F83C0000BF002020645A
:101B5000212084F83D00FEF7F5FC8246A784E78447
:101B6000A068B0F5805F04D1206910B90025B046A7
:101B700002E035464FF0000800BF002084F83C002A
:101B800000BF1BE05346002280212046CDF8009084
:101B900001F06AF808B10320CBE745B9B8F80000B6
:101BA000C0F308002168486008F1020803E02878C3
:101BB000216848606D1CE08C401EE084E08C0028A9
:101BC000E0D15346002240212046CDF8009001F09C
:101BD0004BF808B10320ACE7202084F83D0000203A
:101BE000A7E70220A5E700BFFEE7000000B587B029
:101BF00000BF002001901748006840F080001549A0
:101C000008600846006800F08000019000BF00BF37
:101C1000142102A8FEF71EFB4FF4E05002900120B1
:101C2000039000200490059002A90B48FEF77EFB6C
:101C3000012291020848FEF77FFC0122D1020648EA
:101C4000FEF77AFC012211030348FEF775FC07B08A
:101C500000BD000030380240001C024000BFFEE71B
:101C600000BFFEE7704710B50246002308685062C7
:101C700048689062D1E9020420430C6920434C6912
:101C800020430343D06A20F0F7001843D0620020BD
:101C900010BD01460869C0B270470146086800F0EF
:101CA00003007047024602F1140043181868704799
:101CB0000FB410B504460021DDE903021043059A74
:101CC0001043069A1043079A1043089A10430143A1
:101CD000606847F6FF62904308436060002010BCD4
:101CE0005DF814FB10B50446032020600220FEF7C7
:101CF00009FB002010BD0146D1F88000704710B5E7
:101D00000246002308689060D1E901042043CC68B2
:101D100020430C6920430343D0686FF30B00184342
:101D2000D060002010BD02460868C2F88000002084
:101D3000704770B586B005460C4601943720029076
:101D400040200390002004904FF48060059001A98A
:101D50002846FFF7D4FF41F288323721284600F0A9
:101D600031FA0646304606B070BD000070B586B048
:101D700005460C460B482043019029200290402044
:101D80000390002004904FF48060059001A928463C
:101D9000FFF7B5FF284600F01DFB0646304606B0AB
:101DA00070BD00000000108070B586B005460C467E
:101DB00001941020029040200390002004904FF4E2
:101DC0008060059001A92846FFF799FF41F288320B
:101DD0001021284600F0F6F90646304606B070BDE0
:101DE00070B586B005460C4601940620029040204E
:101DF0000390002004904FF48060059001A92846CC
:101E0000FFF77DFF41F288320621284600F0DAF91B
:101E10000646304606B070BD30B585B00446002099
:101E200000902620019040200290002003904FF463
:101E30008060049069462046FFF761FF4FF2186208
:101E40002621204600F0BEF90546284605B030BDE3
:101E500030B585B0044600200090019002900390B8
:101E60004FF48060049069462046FFF748FF204603
:101E700000F088F90546284605B030BD30B585B07C
:101E800004464FF4D5700090082001904020029045
:101E9000002003904FF48060049069462046FFF7CD
:101EA0002EFF204600F01EFB0546284605B030BD3B
:101EB00070B586B005460C46019412200290402071
:101EC0000390002004904FF48060059001A92846FB
:101ED000FFF715FF41F288321221284600F072F90F
:101EE0000646304606B070BD70B586B005460C4655
:101EF00001941120029040200390002004904FF4A0
:101F00008060059001A92846FFF7F9FE41F288326A
:101F10001121284600F056F90646304606B070BD3D
:101F200070B586B005460C460194212002904020F1
:101F30000390002004904FF48060059001A928468A
:101F4000FFF7DDFE41F288322121284600F03AF900
:101F50000646304606B070BD70B586B005460C46E4
:101F600001942020029040200390002004904FF420
:101F70008060059001A92846FFF7C1FE41F2883232
:101F80002021284600F01EF90646304606B070BDF6
:101F9000F0B585B0064614461D4600940720019012
:101FA00040200290002003904FF480600490694626
:101FB0003046FFF7A4FE41F288320721304600F098
:101FC00001F90746384605B0F0BD30B585B0044686
:101FD0000020009002200190C02002900020039079
:101FE0004FF48060049069462046FFF788FE204643
:101FF00000F0BEF90546284605B030BD70B586B084
:1020000005460C46019409200290C0200390002050
:1020100004904FF48060059001A92846FFF76FFEF9
:10202000284600F0A5F90646304606B070BD30B52A
:1020300085B004460020009033200190402002909B
:10204000002003904FF48060049069462046FFF71B
:1020500056FE41F288323321204600F0B3F805469F
:10206000284605B030BD70B586B005460C460194D3
:102070000D20029040200390002004904FF48060D7
:10208000059001A92846FFF73AFE41F288320D215A
:10209000284600F097F80646304606B070BD70B589
:1020A00086B005460C460020019003200290402097
:1020B0000390002004904FF48060059001A9284609
:1020C000FFF71DFE22460321284600F0AFF9064621
:1020D000304606B070BD000030B585B00446002023
:1020E00000900C20019040200290002003904FF4BB
:1020F0008060049069462046FFF701FE044A0C21E7
:10210000204600F05FF80546284605B030BD0000C7
:1021100000E1F50570B586B005460C46019419201E
:10212000029040200390002004904FF480600590BE
:1021300001A92846FFF7E3FD41F28832192128461C
:1021400000F040F80646304606B070BD70B586B067
:1021500005460C4601941820029040200390002070
:1021600004904FF48060059001A92846FFF7C7FD51
:1021700041F288321821284600F024F806463046FD
:1021800006B070BD01460E480068C0084FF47A736F
:10219000B0FBF3F041F2883300FB03F200BF101EE6
:1021A000A2F1010202D14FF000407047486B00F0ED
:1021B00080000028F3D0C52088630020F5E70000E8
:1021C000000000202DE9F04305460F469046664882
:1021D0000068C0084FF47A71B0FBF1F000FB08F919
:1021E00000BFB9F10000A9F1010903D14FF000408F
:1021F000BDE8F0836E6B06F045000028F1D006F4D0
:1022000000600028EDD1686B00F0040010B10420DC
:10221000A863EDE7686B00F0010010B10120A8632E
:10222000E6E7C520A8632846FFF733FDB84201D092
:102230000120DDE700212846FFF734FD04464B4826
:10224000204008B90020D3E704F00040B0F1004F6F
:1022500002D14FF00070CBE704F08040B0F1804F26
:1022600001D14020C4E704F00050B0F1005F01D17B
:102270008020BDE704F08050B0F1805F02D14FF4C0
:102280008070B5E704F00060B0F1006F02D14FF448
:102290000070ADE704F08060B0F1806F02D14FF4C0
:1022A0008060A5E704F08070B0F1807F02D14FF428
:1022B00000609DE704F40000B0F5000F02D14FF478
:1022C000805095E704F48000B0F5800F02D14FF400
:1022D00000508DE704F40010B0F5001F02D14FF458
:1022E000804085E704F48010B0F5801F02D14FF4E0
:1022F00000407DE704F48020B0F5802F02D14FF438
:10230000003075E704F40030B0F5003F02D14FF41F
:1023100080206DE704F48030B0F5803F02D14FF4A7
:10232000002065E704F40040B0F5004F02D14FF4FF
:1023300080105DE704F48040B0F5804F02D14FF487
:10234000001055E704F40050B0F5005F02D14FF4DF
:1023500080004DE704F00800082801D1000547E798
:102360004FF4803044E700000000002008E0FFFD4B
:1023700010B5014616480068C0084FF47A74B0FBE7
:10238000F4F041F2883400FB04F300BF181EA3F1FF
:10239000010302D14FF0004010BD4A6B02F045002E
:1023A0000028F3D002F400600028EFD1486B00F061
:1023B000040010B104208863EEE7486B00F00100D0
:1023C00010B101208863E7E7C52088630020E3E7B8
:1023D0000000002010B5014613480068C0084FF403
:1023E0007A74B0FBF4F041F2883400FB04F300BFD0
:1023F000181EA3F1010302D14FF0004010BD4A6B3B
:1024000002F045000028F3D002F400600028EFD16C
:10241000486B00F0040010B104208863EEE7C5208B
:1024200088630020EAE70000000000202DE9F04367
:1024300004460F4690462A480068C0084FF47A7157
:10244000B0FBF1F041F2883100FB01F900BFB9F1B6
:102450000000A9F1010903D14FF00040BDE8F0836D
:10246000666B06F045000028F1D006F400600028F5
:10247000EDD1606B00F0040010B10420A063EDE723
:10248000606B00F0010010B10120A063E6E7204678
:10249000FFF7FFFBB84201D00120DFE7C520A063B2
:1024A00000212046FFF7FEFB054605F4604020B9F9
:1024B000280CA8F800000020D0E705F48040B0F513
:1024C000804F02D14FF40050C8E705F40040B0F54A
:1024D000004F02D14FF48050C0E74FF48030BDE789
:1024E0000000002010B5014618480068C0084FF4ED
:1024F0007A74B0FBF4F041F2883400FB04F300BFBF
:10250000181EA3F1010302D14FF0004010BD4A6B29
:1025100002F045000028F3D002F400600028EFD15B
:10252000486B00F0040010B104208863EEE7486BAC
:1025300000F0010010B101208863E7E7486B00F06C
:10254000400008B1402088630020DFE70000002041
:102550002DE9F04389B004460F46FDF7F3FF8146AD
:102560004FF000080020019002903E4608212068AC
:10257000FFF71AFC05461DB1284609B0BDE8F083F7
:102580005022125B11042068FFF7D3FB05460DB102
:102590002846F2E74FF0FF300390082004903020E7
:1025A000059002200690002007900120089003A9C2
:1025B0002068FFF758FB2068FFF739FD05460DB18D
:1025C0002846DAE71CE02068406B00F4001040B1B8
:1025D0002068FFF790FB01A941F8280008F10108E5
:1025E00005E02068406B00F4005000B90EE0FDF7F4
:1025F000A9FFA0EB0900401C10B94FF00040BCE758
:102600002068406B00F02A000028DCD000BF206862
:10261000406B00F0080018B1082021688863ACE71F
:102620002068406B00F0020018B102202168886326
:10263000A3E72068406B00F0200018B1202021683B
:1026400088639AE740F23A5021688863029800064E
:10265000029901F47F4140EA0120029901F47F01CF
:1026600040EA1120029940EA11603060361D01985D
:102670000006019901F47F4140EA0120019901F42B
:102680007F0140EA1120019940EA1160306000208A
:1026900073E730B58FB00446012003902068FFF740
:1026A000FCFA18B94FF080600FB030BD606C0328A1
:1026B0001BD02068FFF789FC05460DB12846F3E7DB
:1026C00000212068FFF7EEFA606704212068FFF719
:1026D000E9FAA06708212068FFF7E4FAE0670C2117
:1026E0002068FFF7DFFA80210851606C032807D0CB
:1026F00003A92068FFF7D3FC05460DB12846D3E7B0
:10270000606C032820D0BDF80C1021655022125BAC
:1027100011042068FFF772FC05460DB12846C3E797
:1027200000212068FFF7BEFA606604212068FFF7E9
:10273000B9FAA06608212068FFF7B4FAE0660C2118
:102740002068FFF7AFFA206704212068FFF7AAFA94
:10275000010DE16404A92046FEF7B8FD10B14FF069
:102760008050A1E75020005B01040A460023206846
:10277000FFF70EFC05460DB1284695E7D4E9041293
:10278000A069CDE90012029094E80F00FFF790FADB
:10279000002089E7F8B504460020009000260027B5
:1027A0002068FFF755FB05460DB12846F8BD2068A7
:1027B000FFF764FB054645B10021A1642068FFF7DF
:1027C00047FB05461DB12846F0E70121A164A06C36
:1027D000012808D100212068FFF7ABFA054615B1A2
:1027E0004FF08050E2E71DE000212068FFF7A1FADA
:1027F00005460DB12846D9E718492068FFF7B6FA13
:10280000054615B14FF08050D0E700212068FFF752
:1028100049FA0646012080EAD67080F00107009848
:10282000401C00904FF6FF710098884201D2002FA3
:10283000DAD04FF6FF710098884202D34FF08070D3
:10284000B4E706F08040B0F1804F02D1012060640F
:1028500001E0002060640020A8E70000000010C133
:1028600070B504460D4615B94FF0006070BD50229A
:10287000125B11042068FFF7F6FB06460EB13046E6
:10288000F4E700212068FFF70DFA28600020EDE74B
:102890007CB5044600200090019000212068FFF7DD
:1028A00001FA00F00070B0F1007F02D14FF4006037
:1028B0007CBD69462046FFF74BFE05460DB1284614
:1028C000F6E7019800F4803098B15022125B1104B1
:1028D0002068FFF72EFA05460DB12846E8E70021EB
:1028E0002068FFF77DFA05460DB12846E0E7002095
:1028F000DEE74FF08060DBE77CB504460020009007
:10290000019000212068FFF7CDF900F00070B0F1D0
:10291000007F02D14FF400607CBD69462046FFF77E
:1029200017FE05460DB12846F6E7019800F4802011
:1029300098B15022125B11042068FFF7FAF905469E
:102940000DB12846E8E702212068FFF749FA05465D
:102950000DB12846E0E70020DEE74FF08060DBE7BE
:10296000704710B5FDF72CFF10BD000000B593B007
:10297000302107A8FDF76EFC142102A8FDF76AFCC0
:1029800000BF002001902648006840F08050244994
:1029900008600846006800F08050019000BF00BF4A
:1029A00000BF002001901F48006840F440401D49CE
:1029B00008600846006800F44040019000BF00BF76
:1029C000012007900004089002200D9041050E910F
:1029D0000F210F91D8211091022111910421129100
:1029E00007A8FEF739F908B1FDF789FCFDF7AEFF3E
:1029F00008B1FDF784FC0F20029002200390002014
:102A000004904FF4A05005904FF48050069005219B
:102A100002A8FDF7E1FF08B1FDF771FC13B000BD9E
:102A200040380240007000400348006840F47000E5
:102A3000014908607047000088ED00E02DE9F84F7B
:102A400004462068006920F44050E168084321688A
:102A500008612169A068084361690843E169084386
:102A600000902068C06849F20C61884300990843CF
:102A70002168C8602068406920F44070A16908435B
:102A80002168486176492068884203D075492068EA
:102A9000884203D1FEF778F8814602E0FEF764F839
:102AA0008146E069B0F5004F6CD102206168A0FB5F
:102AB000015003461920A9FB007001462A463846FA
:102AC000FDF790FB6421B0FBF1F04FEA001A022001
:102AD0006168A0FB01510B461920A9FB00712A4631
:102AE0003846FDF77FFB834602206168A0FB01505A
:102AF00003461920A9FB00712A463846FDF772FBF0
:102B00006421B0FBF1F000EBC00101EB0010ABEB76
:102B10008000322101EBC0006421B0FBF1F000F035
:102B2000F8000AEB400A02206168A0FB015003464E
:102B30001920A9FB007001462A463846FDF752FBD2
:102B4000834602206168A0FB015003461920A9FBBF
:102B500000712A463846FDF745FB6421B0FBF1F0D1
:102B600000EBC00101EB0010ABEB8000322101EB68
:102B7000C0006421B0FBF1F000F007005044216870
:102B800088606AE004206168A0FB015003461920B8
:102B9000A9FB007001462A463846FDF723FB824612
:102BA00004206168A0FB015003461920A9FB0070B6
:102BB00001462A463846FDF715FB6421B0FBF1F0CB
:102BC00000EBC00101EB0010AAEB8000322101EB09
:102BD00000106421B0FBF1F000F0F00A04206168FD
:102BE000A0FB017003461920A9FB00513A46284674
:102BF000FDF7F8FA6421B0FBF1F00AEB001A0420AB
:102C00006168A0FB01510B461920A9FB00712A46FF
:102C10003846FDF7E7FA834604206168A0FB0150BF
:102C200003461920A9FB007001462A463846FDF7E5
:102C3000D9FA6421B0FBF1F000EBC00101EB001008
:102C4000ABEB8000322101EB00106421B0FBF1F00E
:102C500000F00F00504421688860BDE8F88F000044
:102C600000100140001401402DE9F04104460D46DA
:102C700017469846069E34E0701C88B32EB1FDF7C7
:102C800061FCA0EB0800B0422BD900BF00BF216857
:102C90000C3151E8001F21F4D07021680C3141E85B
:102CA0000002002AF3D100BF00BF00BF2168143129
:102CB00051E8001F21F001002168143141E80002B1
:102CC000002AF3D100BF202084F83D0084F83E00A4
:102CD00000BF002084F83C0000BF0320BDE8F08165
:102CE000FFE7206800682840A84201D1012000E0E9
:102CF0000020B842C0D00020F0E700BFFEE700008F
:102D000000B587B000BF002001901048006840F077
:102D100040000E4908600846006800F0400001903D
:102D200000BF00BF481502900120039004900220CC
:102D3000059002A90648FDF7F9FA00224FF4007148
:102D40000348FDF7F9FB07B000BD00003038024032
:102D5000001802400FB4054B10B503A9044A0298AD
:102D600000F034F810BC5DF814FB0000212F0008BF
:102D70005000002002480068C0F3022070470000A5
:102D80000CED00E010B5002804DB0A07130E054A1D
:102D9000135406E00A07140E034A00F00F031B1F2A
:102DA000D45410BD00E400E018ED00E002E008C8D3
:102DB000121F08C1002AFAD170477047002001E0B5
:102DC00001C1121F002AFBD1704700002DE9FF4FFF
:102DD00089B09B460446002506E025280BD05A46BC
:102DE0000B999047641C6D1C20780028F5D10DB01C
:102DF0002846BDE8F08F0027B8460122474900E089
:102E0000074314F8013F203B02FA03F00842F7D1D0
:102E100020782E2819D114F8010F47F004072A282A
:102E20000ED06FF02F022078A0F1300109290CD8C4
:102E300008EB880102EB410100EB0108641CF2E79A
:102E40000A98641C50F8048B0A9020780028CED091
:102E5000642808D0692806D075281ED05A460B99D8
:102E600090476D1C58E00A994FF00A0901C90A9170
:102E7000002802DA40422D2102E0390504D52B2139
:102E80008DF82010012103E0F90704D02021F7E795
:102E90008A4608AE0DE00021FAE70A994FF00A09C8
:102EA00001C90A91F7E74946FDF7DFF9303106F825
:102EB000011D0028F7D1ADEB060000F120097807CD
:102EC00001D44FF00108C84502DDA8EB090000E07D
:102ED00000208046002706E008A85A46C05D0B99EE
:102EE00090476D1C7F1C5745F6DB04E030205A46A6
:102EF0000B9990476D1CB8F10001A8F10108F5DCB1
:102F000005E016F8010B5A460B9990476D1CB9F174
:102F10000001A9F10109F4DC641C65E7092801003E
:102F200038B504460D4600944FF47A730122694681
:102F30000248FEF7EFFD204638BD00005400002097
:102F400000B587B000BF002001901148006840F034
:102F500001000F4908600846006800F00100019078
:102F600000BF00BF142102A8FDF774F94FF4C06040
:102F70000290022003900020049003200590072077
:102F8000069002A90348FDF7D1F907B000BD000083
:102F9000303802400000024008B500BF0020009019
:102FA0001048006840F010000E49086008460068AC
:102FB00000F01000009000BF00BFFFF7C1FF0A48FB
:102FC0000A4908604FF4E1304860002107488160F9
:102FD000C16001610C21416100218161C161FEF785
:102FE0005FFD08BD4438024000100140540000203D
:102FF00000B587B0142102A8FDF72CF900BF00200E
:1030000001901948006840F002001749086008461E
:10301000006800F00200019000BF00BF00BF002068
:1030200001900846006840F0020008600846006809
:1030300000F00200019000BF00BF122003900020AA
:10304000049003200590042006904020029002A9DD
:103050000648FDF76BF98020029002A90348FDF7AE
:1030600065F907B000BD000030380240000402409E
:1030700008B500BF002000901648006840F400101A
:10308000144908600846006800F40010009000BF72
:1030900000BFFFF7ADFF10481049086010484860B6
:1030A00000210E4881604FF480410161002141619F
:1030B000C16101620A21C16000218161FDF796FAB8
:1030C00000210648FDF744FA00210448FDF766FA9E
:1030D00008BD000040380240005400409800002025
:1030E000A086010070B504460D462A4621460348D5
:1030F000FEF764F808B1FDF702F970BDEC0000209E
:1031000010B50448FEF7C6F9042801D0012010BD0F
:103110000020FCE7EC00002000B587B000BF0020D5
:1031200001904648006840F00400444908600846A1
:10313000006800F00400019000BF00BF00BF002045
:1031400001900846006840F00400086008460068E6
:1031500000F00400019000BF00BF00BF00200190FC
:103160000846006840F0040008600846006800F067
:103170000400019000BF00BF00BF0020019008467E
:10318000006840F0040008600846006800F0040091
:10319000019000BF00BF00BF0020019008460068FA
:1031A00040F0040008600846006800F00400019048
:1031B00000BF00BF00BF002001900846006840F03B
:1031C000080008600846006800F00800019000BF91
:1031D00000BFFFF795FD022003900020049002201D
:1031E00005900C2006904FF48070029002A91448BC
:1031F000FDF79CF84FF40070029002A91048FDF70B
:1032000095F84FF48060029002A90D48FDF78EF802
:103210004FF40060029002A90948FDF787F84FF4C7
:103220008050029002A90648FDF780F80420029021
:1032300002A90448FDF77AF807B000BD3038024013
:1032400000080240000C0240F8B504460D46164640
:103250004FF47A7033462A46214600900348FEF721
:10326000A1F908B1FDF74BF8F8BD0000EC00002013
:10327000F8B504460D4616464FF47A7033462A4692
:10328000214600900348FEF7D9FA08B1FDF737F858
:10329000F8BD0000EC00002008B500BF0020009041
:1032A0001548006840F4006013490860084600684B
:1032B00000F40060009000BF00BFFFF72DFFFFF794
:1032C0001FFD0E480E4908600020486000210C4890
:1032D0008160C160016141618161FEF7EDF808B173
:1032E000FDF70DF84FF400610548FDF703FF08B145
:1032F000FDF705F808BD000044380240002C0140ED
:10330000EC000020FDF768FAFFF730FBFEF76EFCDB
:10331000FFF742FEFFF7ACFEFFF7BEFF01210020E2
:10332000FFF7E0FE00BFFFF7EBFE0028FBD1012214
:1033300000211048FFF79CFF00BFFFF7E1FE0028C7
:10334000FBD1012200210C48FFF77EFF00BFFFF7F1
:10335000D7FE0028FBD10E2407E0601E064A52F873
:10336000201006A0FFF7F6FC641E002CF5DC00BF61
:10337000FEE7000018000020D02100207265616483
:10338000646174613A25640A0000000000000000D6
:103390000000000001020304060708090000000005
:1033A00001020304C43300080000002054000000A0
:1033B000AC2D00081834000854000020B427000089
:1033C000BC2D00080024F4000000000010000000E4
:1033D00001000000000000000000000001000000EB
:1033E00002000000030000000400000005000000CF
:1033F00006000000070000000800000009000000AF
:103400000B0000000C0000000D0000000E0000008A
:083410000F00000000000000A5
:04000005080001AD41
:00000001FF
