:020000040800F2
:1000000080050020C1010008C52700084D27000811
:10001000C12700088B090008732B000800000000AE
:10002000000000000000000000000000CB270008D6
:100030009B0A000800000000C9270008CD2700081F
:10004000DB010008DB010008DB010008DB01000820
:10005000DB010008DB010008DB010008DB01000810
:10006000DB010008DB010008DB010008DB01000800
:10007000DB010008DB010008DB010008DB010008F0
:10008000DB010008DB010008DB010008DB010008E0
:10009000DB010008DB010008DB010008DB010008D0
:1000A000DB010008DB010008DB010008DB010008C0
:1000B000DB010008DB010008DB010008DB010008B0
:1000C000DB010008DB010008DB010008DB010008A0
:1000D000DB010008DB010008DB010008DB01000890
:1000E000DB010008DB010008DB010008DB01000880
:1000F000DB010008DB010008DB010008DB01000870
:10010000DB010008DB010008DB010008DB0100085F
:10011000DB010008DB010008A5280008DB0100085E
:10012000DB010008DB010008DB010008DB0100083F
:10013000DB010008DB010008DB010008DB0100082F
:10014000DB010008DB010008DB010008DB0100081F
:10015000DB010008DB010008DB010008DB0100080F
:10016000DB010008DB010008DB010008DB010008FF
:10017000DB010008DB010008DB01000800000000D3
:10018000DB010008DB010008DB010008DB010008DF
:10019000DB010008DB010008DB010008DB010008CF
:1001A000DB010008DB010008DB010008DFF80CD0F0
:1001B00000F06EFA00480047593B00088005002017
:1001C0000648804706480047FEE7FEE7FEE7FEE7F1
:1001D000FEE7FEE7FEE7FEE7FEE7FEE79128000800
:1001E000AD0100082DE9F05F0546002092469B46D0
:1001F00088460646814640241BE02846414647463D
:10020000224600F07CF853465A46C01A914110D35A
:1002100011461846224600F063F82D1A67EB0108D4
:100220004F4622460120002100F05AF817EB000942
:100230004E41201EA4F10104DFDC484631462A4627
:100240004346BDE8F09F40EA01039B0703D009E065
:1002500008C9121F08C0042AFAD203E011F8013BB2
:1002600000F8013B521EF9D27047D2B201E000F80B
:10027000012B491EFBD270470022F6E710B513464A
:100280000A4604461946FFF7F0FF204610BD00F06D
:10029000004230F000400AD0C10D01F56071C0F39A
:1002A000160042EA0151C20840071143704700207E
:1002B0000146704730B50B4601460020202201243C
:1002C00009E021FA02F59D4205D303FA02F5491B24
:1002D00004FA02F52844151EA2F10102F1DC30BD3A
:1002E000202A04DB203A00FA02F1002070479140F6
:1002F000C2F1200320FA03F3194390407047202AEB
:1003000004DB203A21FA02F00021704721FA02F3BF
:10031000D040C2F1200291400843194670472DE9B0
:10032000FE4F804681EA0300C00F0C46009021F08A
:10033000004123F00045B8EB0200A94105D2404638
:10034000214690461C460B46024623F000401043CF
:1003500047D0270DC7F30A00C3F30A510290401A91
:10036000019040286BDAC3F3130040F4801B00981F
:10037000924620B10023D2EB030A63EB0B0B0198EA
:100380005946C0F140025046FFF7AAFF06460D4607
:1003900050465946019A00F08DF910EB0800614172
:1003A000002487EA115284EAE7731A4340D0009A86
:1003B00062B3019A012A4FEA075215DC001B61EB78
:1003C00002014FF0004202EA0752CDE90042001C50
:1003D00041F5801132462B4600F08DF903B0BDE89F
:1003E000F08F40462146F9E7001B61EB0201001C3B
:1003F00041F5801300185B412018A2F5001747EB68
:10040000030140EAD570B6196D4111E06D084FEA5D
:10041000360645EAC0754FEA0752001B61EB020140
:10042000001C41F5801149084FEA30000019514184
:1004300032462B4603B0BDE8F04F00F04DB90098AE
:10044000012240000023D0EB020263EBE07300982E
:1004500021464FEAE074B8EB000061EB0401E9E7E4
:1004600083F000435BE781F0004158E72DE9FE4F40
:1004700081EA030404F0004421F0004100944FF0AD
:10048000000B23F0004350EA01045ED052EA03045B
:100490005BD0C3F30A54C1F30A552C44A4F2F334DD
:1004A0000194A0FB0254C1F3130141F48011C3F382
:1004B000130343F4801301FB024400FB034E840A40
:1004C000970A44EA815447EA8357A4FB07680295D8
:1004D0008D0A05FB07854FEA932C04FB0C54270576
:1004E000029D4FEA065847EA1637B5EB08056EEB52
:1004F000070C870E920E47EA811742EA8312A7FB88
:100500000201B6EB0B0164EB00042B0D43EA0C3344
:100510005E1844EB1C50DA465146E7FB0201C5F376
:1005200013044FEA0B3343EA14534FEA0432019C9D
:1005300043EA0603A4F10C040294009CCDE900B444
:1005400000F0D9F803B0BDE8F08F00200146F9E7CC
:100550002DE9F04D81EA030404F0004B21F0004541
:1005600014464FF0000A23F0004150EA050220D063
:1005700054EA01021DD0C5F30A570246C5F313031E
:10058000C1F31300C1F30A5640F4801543F48013FD
:10059000A7EB0608101BD64608F2FD3873EB0500E2
:1005A00002D308F1010801E092185B41B8F1000F95
:1005B00003DA00200146BDE8F08D00204FF48011E1
:1005C000064684460EE0171B73EB050705D3121B86
:1005D00063EB050306434CEA010C49084FEA30007F
:1005E00092185B4150EA0107EDD152EA030012D0A4
:1005F00082EA040083EA0501084305D0101BAB41E1
:1006000006D20122002306E000224FF0004302E060
:100610006FF0010253101AEB06004CEB085110EB7F
:100620000A0041EB0B01BDE8F04D00F055B8C1F3F5
:100630000A52C1F3130140F2FF3341F480119A4290
:1006400002DA00200146704740F233439A42A2F298
:10065000334202DC5242FFF752BEFFF741BE0000B8
:1006600030B5041E71F1000404DB4FF00044404239
:1006700064EB0101141E73F1000405DB1C464FF00E
:100680000043524263EB0403994208BF904230BDDD
:10069000064C074D06E0E06840F0010394E80700CF
:1006A00098471034AC42F6D3FFF784FDB03B000806
:1006B000D03B0008202A06DBCB17203A41FA02F093
:1006C00043EAE07306E041FA02F3D040C2F12002AF
:1006D000914008431946704710B5141E73F1000489
:1006E00008DA401C41F1000192185B411A4301D124
:1006F00020F0010010BD2DE9F04D92469B4611B14E
:10070000B1FA81F202E0B0FA80F220329046FFF7AF
:10071000E7FD04460F4640EA0A0041EA0B01534652
:100720005A46084313D0114653EA010019D0C8F1C4
:1007300040025046FFF7E3FD05460E465046594637
:100740004246FFF7CDFD084305D0012004E02046D6
:100750003946BDE8F08D0020054346EAE0762C439B
:1007600037430A986305E40AA0EB08000022FD0A5B
:1007700044EA47540A3002D500200146E9E7010562
:1007800010196941DDE9084500196941BDE8F04DDE
:10079000A2E7000055494A6822F440324A604A689C
:1007A00043681A434A600268526822F48072036800
:1007B0005A6002685368026943EA022203685A6079
:1007C0000268526822F0407203685A6002685268F8
:1007D00083681A4303685A600268926822F40062D0
:1007E00003689A6002689268C3681A4303689A6053
:1007F0003F4B826A9A4218D00268926822F0706277
:1008000003689A6002689268836A1A4303689A6070
:100810000268926822F0405203689A600268926807
:10082000C36A1A4303689A600BE00268926822F078
:10083000706203689A600268926822F0405203680E
:100840009A600268926822F0020203689A60026865
:100850009368027E43EA420203689A602022125C97
:10086000A2B10268526842F4006203685A600268EA
:10087000526822F4604203685A6002685368426A10
:10088000521E43EA423203685A6005E00268526829
:1008900022F4006203685A600268D26A22F470028D
:1008A0000368DA620268D36A828B521E43EA0252FC
:1008B0000368DA620268926822F4007203689A6040
:1008C0000268936890F8302043EA422203689A60F5
:1008D0000268926822F4806203689A6002689368F2
:1008E000426943EA822203689A607047002301400C
:1008F0000100000F70B50546AC6B206C00F0500095
:1009000050BB206C40F4007020642068806800F0C8
:100910004050E8B9207ED8B92068C06A00F4700061
:1009200020B12068806800F4806088B92068406841
:1009300020F0200021684860206C20F48070206442
:10094000206C00F4805018B9206C40F00100206445
:10095000204600F0C1FB03E0A06BC16C284688472D
:1009600070BD70B50546AC6B40202064606C40F0F3
:1009700004006064204600F0B1FB70BD70B5044611
:10098000A56B284600F0A9FB70BD00BFFEE7000084
:100990000146087810381823B0FBF3F20848805C51
:1009A000C865032A05D908686FF30900001D88652A
:1009B00003E008686FF309008865886D70470000E0
:1009C000943B0008014600208A6A8B69CBB932B19A
:1009D000012A0DD0022A03D0032A10D10EE000BF55
:1009E000CB6A03F08073B3F1807F00D1012007E070
:1009F000CB6AB3F1C07F00D1012001E000E000BF6D
:100A000034E08B69B3F5005F1AD132B1012A07D007
:100A1000022A03D0032A11D10AE000BF01200EE010
:100A2000CB6A03F08073B3F1807F00D1012006E030
:100A3000CB6AB3F1C07F00D1012000E000BF15E018
:100A400032B1012A05D0022A04D0032A0CD103E0D6
:100A500000BF00BF012008E0CB6A03F08073B3F150
:100A6000807F00D1012000E000BF00BF704730B59B
:100A70000468246824F4802405682C60046863609A
:100A80008468402C04D10468A2600468E16003E03B
:100A90000468A1600468E26030BD704772B600BFB0
:100AA000FEE7000010B5002201B909E0012901D1DB
:100AB0000A0205E0022901D10A0201E04FF4407266
:100AC0000B2800D9001D0E4B1B6823F440730C4CFF
:100AD000236023461B681343236023461B6823F0CF
:100AE000F803236023461B68022444EAC00423431E
:100AF000034C236023461B6843F48033236010BDFE
:100B0000103C02401C48006800F40070B0B11A4864
:100B1000006820F400701849086000BF08460068AB
:100B200040F4006008600846006820F40060086037
:100B300000BF0846006840F4007008600E48006876
:100B400000F48060B0B10C48006820F480600A496D
:100B5000086000BF0846006840F4805008600846FE
:100B6000006820F48050086000BF0846006840F428
:100B70008060086070470000003C0240134A126821
:100B800022F44072114B1A60032906D11A461268EA
:100B9000DB131A430D4B1A600EE0012906D10B4AF4
:100BA000126842F00402094B1A6005E0074A126815
:100BB00042F40042054B1A60044A12684FF4803335
:100BC00043EA00231A43014B1A607047103C02406D
:100BD000074A126822F44072054B1A601A461268DE
:100BE0001A601A46126842F001021A6001707047DA
:100BF000103C024010B50D49096821F440710B4CBE
:100C000021602146096841F440712160214609684C
:100C100041F001012160026000BF00BF00BFBFF3CF
:100C20006F8F00BF00BF00BF436010BD103C02408B
:100C3000084A126822F44072064B1A601A4612687B
:100C400042F480721A601A46126842F001021A6079
:100C500001807047103C0240084A126822F440723A
:100C6000064B1A601A46126842F400721A601A465D
:100C7000126842F001021A6001607047103C0240A5
:100C80002A48006800F0100040B12948C06940F0CF
:100C900010002749C86110202449086023480068D3
:100CA00000F0200040B12248C06940F0080020490F
:100CB000C86120201D4908601C48006800F0400001
:100CC00040B11B48C06940F004001949C861402088
:100CD000164908601548006800F0800040B11448CB
:100CE000C06940F002001249C86180200F490860C5
:100CF0000E48006800F4807048B10D48C06940F0AB
:100D000001000B49C8614FF480700849086007482A
:100D1000006800F0020040B10548C06940F02000C2
:100D20000349C86102200149086070470C3C024039
:100D30005C01002070B50446002500201449C861FC
:100D400000F08EFD054609E0601C38B124B100F0CA
:100D500087FD401BA04201D9032070BD0D480068EB
:100D600000F480300028EFD10A48006800F001004C
:100D700010B10120074908600648006800F4F970C6
:100D800018B1FFF77DFF0120E7E70020E5E700004D
:100D90005C0100200C3C024010B502460B4600BF2F
:100DA00092F83C00012801D1022010BD012082F8F8
:100DB0003C0000BF0F49486820F01F0048604868A9
:100DC0001C6820434860486820F4404048604868F8
:100DD0005C6820434860486820F470604860486858
:100DE0009C682043486000BF002082F83C0000BFA0
:100DF00000BFDAE700230140F8B504460E46174667
:100E00000020009000BF94F83C00012801D102208E
:100E1000F8BD012084F83C0000BF2068806800F025
:100E20000100A0B92068806840F001002168886056
:100E30003A4800683A49B0FBF1F000EB40000090FE
:100E400002E00098401E009000980028F9D1206828
:100E5000806800F00100002856D0206C40F201614B
:100E6000884340F4807020642068406800F480600B
:100E700028B1206C20F4005040F480502064206C95
:100E800000F48050B0F5805F04D1606C20F0060063
:100E9000606401E00020606400BF002084F83C0032
:100EA00000BF2048A16BC8631F48A16B08641F489E
:100EB000A16BC8646FF00200216808602068406878
:100EC00040F0806021684860194D94F8300020B1EE
:100ED000686840F40050686003E0686820F40050DF
:100EE00068603B46324605F10801A06B00F07DFAD0
:100EF0002068806800F0405070B92068806840F039
:100F000080402168886007E0206C40F01000206479
:100F1000606C40F001006064002079E70000002070
:100F200040420F00F50800087D0900086309000829
:100F30000023014038B502460020009000BF92F81F
:100F40003C00012801D1022038BD012082F83C007C
:100F500000BF0868092816D91068C0680C780A3CD8
:100F600004EB44050724AC40A0431468E0600C780F
:100F70000A3C04EB44048868A0401468E4682043F9
:100F80001468E06013E0106800690C7804EB440515
:100F90000724AC40A043146820610C7804EB44049F
:100FA0008868A04014682469204314682061486858
:100FB000072817D21068406B0C79641E04EB840577
:100FC0001F24AC40A04314686063088880B20C7989
:100FD000641E04EB8404A0401468646B204314680E
:100FE000606331E048680D2817D21068006B0C79F7
:100FF000E41F04EB84051F24AC40A0431468206365
:10100000088880B20C79E41F04EB8404A0401468C3
:10101000246B20431468206316E01068C06A0C79C2
:101020000D3C04EB84051F24AC40A0431468E0622F
:10103000088880B20C790D3C04EB8404A04014684D
:10104000E46A20431468E0621E4B1F4C1068A04203
:101050000AD10868122807D1586820F400005860A7
:10106000586840F480005860174C1068A04222D1A4
:10107000164C0868A04202D0086811281BD1586895
:1010800020F480005860586840F4000058600F4C0D
:101090000868A0420FD10E4800680E4CB0FBF4F077
:1010A00000EB80004000009002E00098401E00909D
:1010B00000980028F9D100BF002082F83C0000BF52
:1010C00000BF41E700230140002001401200001052
:1010D0000000002040420F0070477047704700003A
:1010E00070B5044600250CB9012070BD1549A06AF1
:1010F000884200D000BF206C30B9204600F024F8B0
:101100000020606484F83C00206C00F0100088B976
:10111000206C20F4885040F0020020642046FFF745
:1011200039FB00206064206C20F0020040F00100D8
:10113000206400E0012500BF002084F83C0000BFCF
:101140002846D2E70100000F7047000008B50146AD
:101150000020009000BF91F83C00012801D102203E
:1011600008BD012081F83C0000BF0868806800F0DD
:101170000100A0B90868806840F001000B68986021
:101180003F4800683F4BB0FBF3F000EB400000909D
:1011900002E00098401E009000980028F9D10868ED
:1011A000806800F00100002860D0086C40F2016304
:1011B000984340F4807008640868406800F48060D8
:1011C00028B1086C20F4005040F480500864086C8A
:1011D00000F48050B0F5805F04D1486C20F0060028
:1011E000486401E00020486400BF002081F83C0012
:1011F00000BF254A6FF022000B681860506800F0AD
:101200001F0018BB214B0868984213D0204B086878
:10121000984204D1101D006800F01F0050B11D4B12
:10122000086898422AD11848001D006800F01F0085
:10123000102823D20868806800F04050F0B9086890
:10124000806840F080400B68986017E00F4B08689A
:10125000984213D10868806800F0405070B908685F
:10126000806840F080400B68986007E0086C40F0B0
:1012700010000864486C40F00100486400206FE7EB
:101280000000002040420F000023014000200140E8
:1012900000210140002201402DE9F04104460025D3
:1012A00000F0DEFA074614B90120BDE8F081606A5B
:1012B00000B100BF022084F8350000BF002084F890
:1012C000340000BF2068006820F001002168086039
:1012D0000AE000F0C5FAC01B052805D9202060658A
:1012E000032084F83500E0E72068006800F0010082
:1012F0000028EED12068056821480540D4E90101A5
:101300000843E16808432169084361690843A1690A
:101310000843E1690843216A08430543606A0428D9
:1013200003D1D4E90B010843054320680560206818
:10133000456925F00705606A0543606A04280DD1F8
:10134000A06A0543E06A48B12046FFF73BFB28B19D
:1013500040206065012084F83500A6E720684561DB
:101360002046FFF715FB064694F85C103F208840A6
:10137000B06000206065012084F83500002094E70B
:101380003F8010F02DE9F04104460D4616461F46F9
:101390004FF0000800BF94F83400012802D1022069
:1013A000BDE8F081012084F8340000BF94F83500D6
:1013B000012811D1022084F83500002060653B46E9
:1013C000324629462046FFF752FB2068006840F06D
:1013D00001002168086006E000BF002084F83400A6
:1013E00000BF4FF002084046DAE72DE9F047044617
:1013F0000D4616461F464FF00008D4F8589000BF1F
:1014000094F83400012802D10220BDE8F0870120C1
:1014100084F8340000BF94F83500012825D102205B
:1014200084F83500002060653B4632462946204658
:10143000FFF71DFB94F85C103F208840C9F80800B6
:101440002068006840F0160021680860206C28B110
:101450002068006840F00800216808602068006883
:1014600040F001002168086006E000BF002084F819
:10147000340000BF4FF002084046C6E770B504468E
:1014800000F0EEF906462546681C10B104480078C5
:10149000054400BF00F0E4F9801BA842FAD370BDF8
:1014A000140000202DE9F04104460E4601270025D6
:1014B00000BF2648007E012802D10220BDE8F0814D
:1014C00001202249087600BF4CF25030FFF732FC71
:1014D0000746002F32D1401E30602068012810D10D
:1014E000207C6168FFF74AFB4CF25030FFF722FC8A
:1014F00007461748006848F2040188431449086009
:101500001AE0A56812E0217C2846FFF7CBFA4CF2DE
:101510005030FFF70FFC07460D48006820F0FA0036
:101520000B4908600FB1356005E06D1CD4E902106D
:101530000844A842E7D800BFFFF7E4FA00BF002044
:101540000249087600BF3846B8E700005C01002079
:10155000103C02400348006840F000400149086028
:1015600000207047103C02402DE9F04106460F462E
:1015700014461D464FF0010800BF1F48007E012899
:1015800002D10220BDE8F08101201B49087600BF8E
:101590004CF25030FFF7CEFB8046B8F1000F23D15C
:1015A00026B9E1B23846FFF713FB12E0012E04D151
:1015B000A1B23846FFF73CFB0BE0022E04D12146D6
:1015C0003846FFF749FB04E022462B463846FFF732
:1015D00011FB4CF25030FFF7ADFB80460748006826
:1015E00020F001000549086000BF0020024908768C
:1015F00000BF4046C6E700005C010020103C0240EE
:1016000000200949096801F0004159B10749064A1B
:101610000C3A1160064911600349096801F0004164
:1016200001B1012070470000103C024023016745D2
:10163000AB89EFCDF8B502460B460025002400200B
:101640000021DFE0012606FA01F51E6806EA05041E
:10165000AC4274D11E7906F00306012E04D01E7927
:1016600006F00306022E13D190684F000326BE40F9
:10167000B0434F00DE68BE403043906050680126A2
:101680008E40B0431E79C6F300168E403043506042
:101690001E7906F00306032E09D0D0684F000326FA
:1016A000BE40B0434F009E68BE403043D0601E79BC
:1016B00006F00306022E13D1CF0802F1200656F8D9
:1016C00027004E07F70E0F26BE40B0434F07FF0E10
:1016D0001E69BE403043CF0802F1200646F82700BD
:1016E00010684F000326BE40B0431E7906F0030683
:1016F0004F00BE40304310605E6806F44036002E56
:101700007FD000BF00260096404E366846F48046E3
:101710003E4F3E603E46366806F48046009600BF67
:1017200000BF3B4E8F0856F827008E07370F0F2655
:10173000BE40B043374EB24202D100262EE060E0F8
:10174000354EB24201D1012628E0344EB24201D1D9
:10175000022623E0324EB24201D103261EE0314E72
:10176000B24201D1042619E02F4EB24201D1052622
:1017700014E02E4EB24201D106260FE02C4EB242AA
:1017800001D107260AE02B4EB24201D1082605E01E
:10179000294EB24201D1092600E00A268F073F0FE9
:1017A000BE4030431A4E8F0846F82700234E30685B
:1017B000A0435E6806F4803606B120431F4E3060B9
:1017C000361D3068A0435E6806F4003606B120433B
:1017D0001A4E361D3060361D3068A0435E6806F430
:1017E000801606B12043154E08363060361D30682D
:1017F000A0435E6806F4001606B120430F4E0C3677
:101800003060491C1029FFF41DAFF8BD4438024078
:101810000838014000000240000402400008024075
:10182000000C024000100240001402400018024068
:10183000001C02400020024000240240003C014005
:1018400010B5426921EA020302EA010443EA0443B3
:10185000836110BD0AB1816101E00B0483617047AF
:1018600001480068704700000C000020024692F812
:101870003D0020281ED1242082F83D001068006819
:1018800020F00100136818601068406A20F0100012
:10189000136858621068406A0843136858621068F9
:1018A000006840F0010013681860202082F83D00B5
:1018B000002070470220FCE710B502460B460021CD
:1018C00092F83D0020281DD1242082F83D001068A8
:1018D000006820F00100146820601068406A81B23E
:1018E00021F00F0141EA030081B2106841621068E3
:1018F000006840F0010014682060202082F83D005C
:10190000002010BD0220FCE770B504460CB9012090
:1019100070BD94F83D0028B9002084F83C002046B2
:1019200000F0DAF8242084F83D002068006820F0F8
:101930000100216808602068006840F400402168C8
:1019400008602068006820F400402168086000F00A
:1019500099FA05465C496068884206D85B4885422A
:1019600001D2012007E0002005E05948854201D25C
:10197000012000E00020012800D1C9E75548B5FB4F
:10198000F0F62068406820F03F003043216848604E
:101990004D496068884201D8701C07E04FF496708A
:1019A00070434FF47A71B0FBF1F0401C2168096A72
:1019B00021F03F010843216808624349606888427A
:1019C00014D8681E61684900B0FBF1F0401CC0F3F8
:1019D0000B00042801D204203DE0681E6168490024
:1019E000B0FBF1F0401CC0F30B0034E0A06838B944
:1019F000681E616801EB4101B0FBF1F0401C0AE098
:101A0000681E616801EBC10202EB0111B0FBF1F04D
:101A1000401C40F48040C0F30B0008B901201AE0DC
:101A2000A06848B9681E616801EB4101B0FBF1F0A4
:101A3000401CC0F30B000CE0681E616801EBC102A2
:101A400002EB0111B0FBF1F0401CC0F30B0040F4BD
:101A5000804040F400402168C9694CF6FF72914310
:101A600008432168C861D4E907010843216809686F
:101A700021F0C001084321680860D4E9031008433D
:101A80002168896848F2FF329143084321688860E1
:101A9000D4E9050108432168C96821F0FF01084322
:101AA0002168C8602068006840F001002168086073
:101AB00000202064202084F83D000020206384F86A
:101AC0003E0000BF24E70000A086010080841E00C5
:101AD00000093D0040420F007047000003480068C5
:101AE0000349097808440149086070470C00002048
:101AF0001400002010B50D48006840F400700B4938
:101B000008600846006840F4806008600846006885
:101B100040F480700860032000F092F80F2000F07D
:101B200007F800F02BF8002010BD0000003C024038
:101B300070B504460E4800784FF47A71B1FBF0F0AE
:101B40000C490968B1FBF0F5284600F061FC08B1CA
:101B5000012070BD102C07D200222146501E00F03B
:101B600031F80548046001E00120F2E70020F0E7C9
:101B700014000020000000201000002008B500BF65
:101B8000002000900E48006840F480400C49086036
:101B90000846006800F48040009000BF00BF00BF0E
:101BA00000200090081F006840F08050091F086066
:101BB0000846006800F08050009000BF00BF08BDDC
:101BC000443802402DE9F05F80460D461646002756
:101BD00000F0E2FF074639462A46334601F0070087
:101BE000C0F1070ABAF1040F02D94FF0040A01E06C
:101BF000C0F1070AD14600F1040ABAF1070F02D278
:101C00004FF0000A01E0A0F1030AD4464FF0010AA8
:101C10000AFA09FAAAF1010A0AEA020A0AFA0CFA0D
:101C20004FF0010B0BFA0CFBABF1010B0BEA030BB2
:101C30004AEA0B042146404600F0B6FFBDE8F09F9B
:101C400000BF00F00702064B19684FF6FF0319406A
:101C5000044B0B4343EA0221014B196000BF70475C
:101C60000CED00E00000FA0538B5002400BF0020AC
:101C700000901D48006840F080501B4908600846ED
:101C8000006800F08050009000BF00BF012017499D
:101C90000864FFF7E5FD044607E0FFF7E1FD001BE0
:101CA000B0F57A7F01D9032038BD1148406800F4AF
:101CB0008030B0F5803FF0D101200C494864FFF737
:101CC000CFFD044607E0FFF7CBFD001BB0F57A7FA0
:101CD00001D90320E8E70648406800F40030B0F579
:101CE000003FF0D10020DFE74038024000000E4204
:101CF0000070004070B504460D460CB9012070BD5F
:101D00005848006800F00F00A84209D255490D70EC
:101D10000846006800F00F00A84201D00120EEE75D
:101D2000207800F0020002281DD1207800F0040085
:101D3000042805D14C48006840F4E0504A49086046
:101D4000207800F00800082805D14748006840F4D2
:101D50006040454908604448006820F0F000A168F0
:101D6000084341490860207800F00100A8B360688A
:101D7000012807D13C4808380068C0F34040B8B992
:101D80000120BCE76068022802D06068032807D100
:101D9000354808380068C0F3406048B90120AEE714
:101DA000314808380068C0F3400008B90120A6E7B0
:101DB0002D48006820F00300616808432A49086044
:101DC000FFF74EFD064609E0FFF74AFD801B41F292
:101DD0008831884202D9032091E707E02248006851
:101DE00000F00C006168B0EB810FEDD11D48006878
:101DF00000F00F00A84209D91A490D700846006882
:101E000000F00F00A84201D0012078E7207800F010
:101E10000400042807D11448006820F4E050E16869
:101E2000084311490860207800F00800082808D10C
:101E30000D48006820F46040216940EAC1000A4969
:101E4000086000F03FF808490968C1F30311074A28
:101E5000515CC8400649086006480068FFF768FE04
:101E600000204CE7003C0240083802407C3B000860
:101E700000000020100000200148006870470000AA
:101E80000000002000B5FFF7F7FF04490968C1F31F
:101E90008221034A515CC84000BD0000083802405E
:101EA0008C3B000800B5FFF7E7FF04490968C1F360
:101EB0004231034A515CC84000BD0000083802406E
:101EC0008C3B00082DE9F047002400250026A146A0
:101ED0002548006800F00C0020B1042805D008282F
:101EE0003AD105E0DFF8849039E0DFF8849036E0FD
:101EF0001D48001F006800F03F041B48001F0068D9
:101F000000F4800078B11A481749091F0968C1F325
:101F10008811A0FB01700146224600233846FEF7D7
:101F200061F905460EE011480F49091F0968C1F320
:101F30008811A0FB01700146224600233846FEF7B7
:101F400051F905460848001F0068C0F30140401CD5
:101F50004600B5FBF6F902E0DFF8109000BF00BFC5
:101F60004846BDE8F0870000083802400024F4002D
:101F700040787D01F8B504460CB90120F8BD207801
:101F800000F00100002874D0F948006800F00C004F
:101F900004280DD0F648006800F00C00082813D182
:101FA000F348001F006800F48000B0F5800F0BD1EB
:101FB000EF4808380068C0F34040002859D06068F6
:101FC000002856D10120D9E700BF6068B0F5803FF6
:101FD00008D1E7480838006840F48030E4490839FF
:101FE00008601EE06068B0F5A02F0DD1E048083809
:101FF000006840F48020DE4908390860084600681F
:1020000040F4803008600CE0D9480838006820F4BB
:102010008030D749083908600846006820F48020DD
:10202000086000BF606890B1FFF71AFC054606E043
:10203000FFF716FC401B642801D903209EE7CC481B
:1020400008380068C0F340400028F1D011E0FFF7E5
:1020500007FC054606E0FFF703FC401B642801D996
:1020600003208BE7C24808380068C0F340400028CE
:10207000F1D1207800F0020002285FD1BC4800684E
:1020800000F00C0058B1BA48006800F00C000828B5
:102090001CD1B748001F006800F48000B0B9B448F4
:1020A00008380068C0F3400020B1E068012801D082
:1020B000012063E7AE480838006820F0F800216985
:1020C00040EAC100AA490839086037E0E06800B377
:1020D0000120A8490860FFF7C3FB054606E0FFF7AB
:1020E000BFFB401B022801D9032047E7A04808385E
:1020F0000068C0F340000028F1D09D48083800680F
:1021000020F0F800216940EAC100994908390860C7
:1021100014E0002097490860FFF7A2FB054606E09F
:10212000FFF79EFB401B022801D9032026E79048B9
:1021300008380068C0F340000028F1D1207800F092
:10214000080008282CD16069A8B101208A490860DC
:10215000FFF786FB054606E0FFF782FB401B0228DF
:1021600001D903200AE782486C300068C0F34000C0
:102170000028F1D014E000207F490860FFF770FBD1
:10218000054606E0FFF76CFB401B022801D903203F
:10219000F4E677486C300068C0F340000028F1D1C5
:1021A000207800F00400042870D1002770483830EF
:1021B000006800F0805090B900BF002000906C488B
:1021C0003830006840F0805069493831086008466E
:1021D000006800F08050009000BF00BF01276748F2
:1021E000006800F48070B0B96448006840F4807002
:1021F00062490860FFF734FB054606E0FFF730FB55
:10220000401B022801D90320B8E65C48006800F4AE
:1022100080700028F2D000BFA068012808D154487F
:102220006830006840F001005149683108601DE0E5
:10223000A06805280DD14E486830006840F00400C1
:102240004B49683108600846006840F001000860AA
:102250000CE047486830006820F0010044496831CC
:1022600008600846006820F00400086000BFA0680D
:10227000A8B1FFF7F5FA054609E0FFF7F1FA401BB0
:1022800041F28831884202D9032077E626E03848B7
:1022900068300068C0F340000028EED013E0FFF77C
:1022A000DFFA054608E0FFF7DBFA401B41F2883110
:1022B000884201D9032061E62D4868300068C0F3E8
:1022C00040000028EFD1012F07D12948383000689D
:1022D00020F0805026493831086000BFA0690028EE
:1022E00045D02348006800F00C0008285DD0A069A4
:1022F000022845D100201F490866FFF7B1FA0546BC
:1023000006E0FFF7ADFA401B022801D9032035E6AD
:10231000174808380068C0F340600028F1D1D4E9BC
:1023200007010843616A40EA81110122A06AC2EBF9
:10233000500041EA00412C20005D41EA00600C4958
:10234000091F086001200B490866FFF789FA054656
:1023500006E0FFF785FA401B022801D903200DE6AD
:10236000034808380068C0F340600028F1D049E015
:102370000838024000004742800E4742007000408B
:10238000002021490866FFF76BFA054606E0FFF7D3
:1023900067FA401B022801D90320EFE51B480068BB
:1023A000C0F340600028F2D12CE0A069012800D1E0
:1023B000E4E51648001D0668A069012820D006F44F
:1023C0008001E06981421BD106F03F01206A814211
:1023D00016D147F6C0703040616AB0EB811F0FD153
:1023E00006F440310122A06AC2EB5000B1EB004F6D
:1023F00006D106F070612C20005DB1EB006F01D0BA
:102400000120BBE50020B9E500004742003802404A
:1024100070B504462546681EB0F1807F01D30120C7
:102420000FE0681E4FF0E02148610F214FF0FF30B0
:1024300000F0BAFB00204FF0E0218861072008611E
:10244000002070BD70477047704710B50446206883
:102450000069C0F34000D8B12068C068C0F34000F4
:10246000B0B16FF002002168086101202077206878
:10247000806900F0030018B12046FFF7E5FF05E092
:10248000204600F0ADF8204600F0ABF800202077A1
:1024900020680069C0F38000D8B12068C068C0F32C
:1024A0008000B0B16FF0040021680861022020773D
:1024B0002068806900F4407018B12046FFF7C4FF1F
:1024C00005E0204600F08CF8204600F08AF8002055
:1024D000207720680069C0F3C000D8B12068C068C8
:1024E000C0F3C000B0B16FF008002168086104209B
:1024F00020772068C06900F0030018B12046FFF77C
:10250000A3FF05E0204600F06BF8204600F069F8D4
:102510000020207720680069C0F30010D8B120683F
:10252000C068C0F30010B0B16FF0100021680861FE
:10253000082020772068C06900F4407018B1204658
:10254000FFF782FF05E0204600F04AF8204600F041
:1025500048F8002020772068006900F0010058B199
:102560002068C06800F0010030B16FF00100216800
:102570000861204600F036F820680069C0F3C010FA
:1025800058B12068C068C0F3C01030B16FF080004F
:10259000216808612046FFF755FF20680069C0F3F5
:1025A000801058B12068C068C0F3801030B16FF05F
:1025B000400021680861204600F024F82068006986
:1025C000C0F3401058B12068C068C0F3401030B16B
:1025D0006FF02000216808612046FFF734FF10BD2E
:1025E0007047704710B504460448844204D14FF444
:1025F00080610348FFF724F910BD0000140100209A
:10260000001C0240704710B504460CB9012010BDF3
:10261000A06900B100E000BF94F83D0028B9002097
:1026200084F83C00204600F027F8242084F83D0080
:102630002068C06820F400502168C860204600F07F
:1026400039F92068006920F4904021680861206809
:10265000406920F02A00216848612068C06840F481
:1026600000502168C86000202064202084F83D00CC
:1026700084F83E000020CAE770472DE9F84F044671
:102680000E46174699464FF0000A94F83D00202860
:102690005AD106B117B90120BDE8F88F00BF94F8F0
:1026A0003C00012801D10220F6E7012084F83C001B
:1026B00000BF00202064212084F83D00FFF7D0F8FF
:1026C0008246A784E784A068B0F5805F04D12069C2
:1026D00010B90025B04602E035464FF0000800BFB3
:1026E000002084F83C0000BF1BE0534600228021FC
:1026F0002046CDF8009000F0F3F908B10320CBE7B5
:1027000045B9B8F80000C0F308002168486008F136
:10271000020803E02878216848606D1CE08C401EA8
:10272000E084E08C0028E0D153460022402120467E
:10273000CDF8009000F0D4F908B10320ACE72020D8
:1027400084F83D000020A7E70220A5E700BFFEE7D0
:1027500000B587B000BF002001901748006840F026
:102760008000154908600846006800F0800001906C
:1027700000BF00BF142102A8FDF77EFD4FF4E0501A
:1027800002900120039000200490059002A90B48BC
:10279000FEF750FF012291020848FFF75BF8012283
:1027A000D1020648FFF756F8012211030348FFF74C
:1027B00051F807B000BD000030380240001C024054
:1027C00000BFFEE700BFFEE77047704710B5FFF798
:1027D00085F910BD00B593B0302107A8FDF74CFD79
:1027E000142102A8FDF748FD00BF002001902648F3
:1027F000006840F08050244908600846006800F0F6
:102800008050019000BF00BF00BF002001901F4812
:10281000006840F440401D4908600846006800F424
:102820004040019000BF00BF0120079000040890C5
:1028300002200D9041050E910F210F91D82110918A
:10284000022111910421129107A8FFF793FB08B10F
:10285000FEF724F9FFF708FA08B1FEF71FF90F2079
:10286000029002200390002004904FF4A0500590A5
:102870004FF480500690052102A8FFF73BFA08B1FB
:10288000FEF70CF913B000BD403802400070004064
:102890000348006840F47000014908607047000078
:1028A00088ED00E010B50248FFF7CFFD10BD000035
:1028B000140100202DE9F84F04462068006920F437
:1028C0004050E1680843216808612169A068084315
:1028D00061690843E169084300902068C06849F2D3
:1028E0000C618843009908432168C86020684069EA
:1028F00020F44070A1690843216848617649206846
:10290000884203D075492068884203D1FFF7CAFA8C
:10291000814602E0FFF7B6FA8146E069B0F5004F64
:102920006CD102206168A0FB015003461920A9FB6D
:10293000007001462A463846FDF754FC6421B0FB7E
:10294000F1F04FEA001A02206168A0FB01510B462A
:102950001920A9FB00712A463846FDF743FC83463F
:1029600002206168A0FB015003461920A9FB0071F9
:102970002A463846FDF736FC6421B0FBF1F000EB47
:10298000C00101EB0010ABEB8000322101EBC00075
:102990006421B0FBF1F000F0F8000AEB400A0220DD
:1029A0006168A0FB015003461920A9FB0070014695
:1029B0002A463846FDF716FC834602206168A0FBD4
:1029C000015003461920A9FB00712A463846FDF73D
:1029D00009FC6421B0FBF1F000EBC00101EB001039
:1029E000ABEB8000322101EBC0006421B0FBF1F0C1
:1029F00000F007005044216888606AE004206168A4
:102A0000A0FB015003461920A9FB007001462A468D
:102A10003846FDF7E7FB824604206168A0FB0150C1
:102A200003461920A9FB007001462A463846FDF7E7
:102A3000D9FB6421B0FBF1F000EBC00101EB001009
:102A4000AAEB8000322101EB00106421B0FBF1F011
:102A500000F0F00A04206168A0FB01700346192011
:102A6000A9FB00513A462846FDF7BCFB6421B0FBA8
:102A7000F1F00AEB001A04206168A0FB01510B463B
:102A80001920A9FB00712A463846FDF7ABFB8346A7
:102A900004206168A0FB015003461920A9FB0070C7
:102AA00001462A463846FDF79DFB6421B0FBF1F054
:102AB00000EBC00101EB0010ABEB8000322101EB19
:102AC00000106421B0FBF1F000F00F0050442168C9
:102AD0008860BDE8F88F000000100140001401403C
:102AE0002DE9F04104460D4617469846069E34E00F
:102AF000701C88B32EB1FEF7B3FEA0EB0800B04205
:102B00002BD900BF00BF21680C3151E8001F21F410
:102B1000D07021680C3141E80002002AF3D100BFD7
:102B200000BF00BF2168143151E8001F21F00100EF
:102B30002168143141E80002002AF3D100BF2020AF
:102B400084F83D0084F83E0000BF002084F83C007B
:102B500000BF0320BDE8F081FFE72068006828403F
:102B6000A84201D1012000E00020B842C0D00020DE
:102B7000F0E700BFFEE700000FB4054B10B503A956
:102B8000044A029800F0F6F810BC5DF814FB00004F
:102B9000093500081800002002480068C0F3022030
:102BA000704700000CED00E010B5002804DB0A07B8
:102BB000130E054A135406E00A07140E034A00F0E8
:102BC0000F031B1FD45410BD00E400E018ED00E01B
:102BD00002E008C8121F08C1002AFAD170477047E6
:102BE000002001E001C1121F002AFBD17047000044
:102BF0002DE9FF5F82B00021DDE90430020DDDF830
:102C000040B0034318D044F61050A2F2FF324243C2
:102C10001514119801281FD0A5EB0B00401C5FEA8A
:102C2000000A4FF000064E4FDFF83891B04650468C
:102C300015D5CAF1000413E0119801244AA3012814
:102C400001D16FEA0B010298119AC0E90031C0E985
:102C5000024206B0BDE8F09FCBF10000DFE704467A
:102C60000021404A491842EB0450CDE9001012E01F
:102C7000E00707D032463B4640464946FDF7F6FBA3
:102C80008046894632463B4610461946FDF7EEFB24
:102C900006460F466410002CEAD1DDE90401DDE9A7
:102CA0000023BAF1000F06DAFDF7E0FB42464B467F
:102CB000FDF7DCFB05E0FDF74BFC42464B46FDF71C
:102CC00047FC04460E460022284BFDF7C9FC03D8FA
:102CD0004FF0FF30014607E00022254B20463146E9
:102CE000FDF71DFBFDF7A3FC102409E0002C0ADB17
:102CF0000A220023FDF776FA039B30321A55641E30
:102D000050EA0102F2D1641C039AC4F11103144485
:102D1000119A012A03D0012208430DD10AE0084389
:102D200004D000204FF0110B119072E7A3EB0B05BC
:102D30006D1E0DE05B4504DD4FF0000205F101055D
:102D400004E003DA4FF00002A5F10105002AECD0FF
:102D500002981199C0E90231C0E9004579E7000005
:102D6000000014400000F03F300000000000F0437D
:102D70000000E03F2DE9FF4F95B09B46894606468F
:102D800000250FE2252877D100242746F84A0121A3
:102D9000059400E0044316F8013F203B01FA03F0DC
:102DA0001042F7D130782A2811D06FF02F033078F5
:102DB000A0F13002092A16D8059A44F0020402EB69
:102DC000820203EB42021044761C0590EFE759F8AB
:102DD000042B0592002A03DA504244F40054059073
:102DE00044F00204761C30782E2816D116F8010F14
:102DF00044F004042A280DD06FF02F023078A0F19F
:102E00003003092B09D807EB870302EB4303C718EC
:102E1000761CF3E759F8047B761C30786C280FD0C9
:102E200006DC4C2817D068280DD06A2814D104E09D
:102E3000742810D07A280FD10DE044F400140AE071
:102E400044F4801401E044F440147278824202D1C8
:102E500004F58014761C761C307866280BD013DCC1
:102E6000582877D009DC002875D04528F6D04628A8
:102E7000F4D047281AD19DE118E0632835D06428A2
:102E800079D0652812D195E1702873D008DC6728C5
:102E9000F1D069286FD06E280DD06F2806D1B5E02B
:102EA00073282CD0752875D0782874D05A46179975
:102EB00090476D1C75E1C4F30250022809D0032825
:102EC0000DD0D9F8001004280DD00D6009F10409C7
:102ED00067E1D9F80010EA17C1E90052F6E7D9F81E
:102EE00000100D80F2E70D70F0E719F8041B8DF863
:102EF000001000208DF80100EA46012003E059F897
:102F000004AB4FF0FF3061074FF0000102D40DE039
:102F100008F101018846B9420FDA8045F8DB1AF85A
:102F200008100029F4D108E008F101018846814227
:102F3000FADB1AF808100029F6D105985B46A0EBD9
:102F4000080721463846179A00F094FA284400EB07
:102F5000080507E04DE029E10DE01AF8010B5A469B
:102F600017999047B8F10108F7D25B4621463846D9
:102F7000179A13E142E00A220092C4F302524FF082
:102F8000000A022A08D059F804CB032A4FEAEC7150
:102F90000AD00DE029E02AE009F1070121F007023B
:102FA000F2E802C1914609E00FFA8CFC4FEAEC719D
:102FB000042A03D14FFA8CFC4FEAEC71002907DA9E
:102FC0000A460021DCF1000C61EB02012D2202E037
:102FD000220504D52B228DF80420012203E0E2070C
:102FE00001D02022F7E7904659E00A2102E01022A2
:102FF0000DE010214FF0000A00910BE010224FF07D
:10300000000A44F004040827009203E008224FF06D
:10301000000A0092C4F30252022A05D059F804CBE8
:103020000021032A08D009E009F1070121F0070275
:10303000F2E802C1914605E01FFA8CFC042A01D196
:103040000CF0FF0C4FF00008220728D5702806D09E
:10305000009B83F0100353EA0A0305D00EE04022E0
:103060008DF80420012208E05CEA010206D030223B
:103070008DF804208DF8050002229046009B83F015
:10308000080353EA0A030AD15CEA010201D162078C
:1030900005D530228DF804204FF001087F1E5828F6
:1030A00004D034A003900EA802900DE036A0F9E7FA
:1030B00053466046009AFDF795F884460398825C73
:1030C0000298401E029002705CEA0100F0D1029862
:1030D00006A9081A00F1200A600702D524F48034FA
:1030E00000E00127574502DDA7EB0A0000E00020C1
:1030F00000EB0A01009005984144401A0590E00356
:1031000006D45B462146179A059800F0B3F90544AA
:10311000002706E001A85A46C05D179990476D1C2C
:103120007F1C4745F6DBE0030CD55B462146179A2A
:10313000059800F09FF9054404E030205A4617999D
:1031400090476D1C0099481E00900029F5DC08E0AE
:10315000029802995A460078491C029117999047A3
:103160006D1CBAF10001AAF1010AF1DC65E1000071
:10317000092801003031323334353637383961624D
:103180006364656600000000303132333435363711
:1031900038394142434445460000000000F058F9E8
:1031A0000544761C307800287FF4ECAD19B0284631
:1031B000BDE8F08F620700D4062709F1070222F06C
:1031C000070CFCE80223E14603F000485FEA080C24
:1031D00002D00FF2702C0DE05FEA045C02D50FF212
:1031E000682C07E05FEAC47C02D00FF2602C01E09B
:1031F000AFF2700C4FF0FF3823F00043CDF850C011
:1032000065280CD006DC452809D046281DD0472863
:103210003DD13DE0662818D067287ED138E00021F6
:10322000112F01DB112000E0781CCDE9000106A977
:103230000EA8FFF7DDFCDDE90F010E9A03910021D6
:10324000009207F1010A04914DE04FF00040009711
:10325000CDE9011006A90EA8FFF7CAFCDDE90F02AF
:1032600003920E9B11990022DDF80CA000930492AA
:1032700011B9791C00EB010AB7EB0A0004D4C0F1C4
:10328000FF3007F1010A0490AAEB0700019044E027
:10329000012F00DA01270021112F01DD112000E0AC
:1032A0003846CDE9000106A90EA8FFF7A1FCDDE92B
:1032B0000F010E9A0391002104910092BA46210752
:1032C0000CD40399514500DA8A46BAF1010F05DDA5
:1032D000009AAAF10101515C302908D0B84202DA03
:1032E00010F1040F06DA0121CDE9011015E0AAF171
:1032F0000101E9E7002805DC049901440491AAEBE7
:10330000000102E0411C514500DD8A460499401A43
:10331000401C01904FF000400290200704D4019817
:10332000504501DBCDF8048000208DF84F00029855
:103330000DF14F07B0F1004F25D02B200E900298D1
:103340004FF0020800280CDA404202902D200E9027
:1033500007E00A210298FCF7ADFF3031029007F830
:10336000011DB8F10001A8F10108F2DC0298002863
:10337000EFD1791E0E980870307800F0200040F0F0
:10338000450007F8020D12A8C01B00F107081498A9
:10339000007800B1012000EB0A01019801EBE07117
:1033A00005984144401A401E0590E00306D45B4650
:1033B0002146179A059800F05DF8054414980078A6
:1033C00018B15A46179990476D1CE00324D55B4607
:1033D0002146179A059800F04DF805441CE0049822
:1033E000002807DBDDE90301884203DD0098405C2B
:1033F000179901E0179930205A469047049805F133
:103400000105401C04900198401E019004D12E201B
:103410005A46179990476D1CBAF10001AAF1010AAA
:10342000DDDC05E017F8010B5A46179990476D1C33
:10343000B8F10001A8F10108F4DC5B462146179AB7
:103440000598ABE62D0000002B00000020000000D6
:103450002DE9F041044600251E461746880404D491
:1034600005E039462020B0476D1C641EF9D528467A
:10347000BDE8F0812DE9F041044600251E46904646
:10348000C80301D5302700E02027880404D505E0D3
:1034900041463846B0476D1C641EF9D52846BDE844
:1034A000F081000010B52DED028B1048008800EE71
:1034B000100AB8EE400A9FED0E1AC0EE010A9FED09
:1034C0000D0A20EE800A10EE104A2046FCF7DFFEBF
:1034D00041EC180B53EC182B07A0FFF74DFB4FF4F2
:1034E0007A70FDF7CBFFBDEC028B10BD040000200D
:1034F00000008045333353406164635F76616C2024
:103500003D2025660A20000038B504460D4600948B
:103510004FF47A73012269460248FFF7AEF820465D
:1035200038BD00001C00002000B599B000BF00208D
:1035300000901948006840F4800017490860084668
:10354000006800F48000009000BF00BF13480190A5
:1035500000210391002002904FF480710891C9006E
:1035600007914910059149000691002104910A91A3
:1035700001210B9100210D910C914FF40031099123
:1035800001A8FDF789FE0323054A064901A8FDF7B6
:10359000F9FE19B000BD000030380240106402404E
:1035A000040000200823014000B587B000BF0020C0
:1035B00001900C48006840F004000A490860084681
:1035C000006800F00400019000BF00BF08200290D6
:1035D000032003900020049002A90348FEF72AF874
:1035E00007B000BD303802400008024000B5BFB04F
:1035F000FFF7DAFFFFF798FF00BF00200190624855
:10360000006840F48070604908600846006800F473
:103610008070019000BF00BF00BF002001900846ED
:10362000006840F4007008600846006800F400700C
:10363000019000BF00BF00BF002001900846006855
:1036400040F4806008600846006800F480600190E3
:1036500000BF00BF4D482D904FF480302E900021C8
:103660002DA8C1608160016101210176C161002145
:103670008DF8D4108162C1624161416201218DF8EF
:10368000E410FDF72DFD0D2005900120069003208C
:1036900007900020089005A92DA8FDF74BFC3C4899
:1036A0001B904FF480301C9000211E911D911F91A2
:1036B00001211BA80176C16100218DF88C10816267
:1036C000C1624161416201218DF89C10FDF708FD46
:1036D0000D200590012006900320079000200890FF
:1036E00005A91BA8FDF726FC2A4809904FF4803055
:1036F0000A9000210C910B910D91012109A80176EE
:10370000109100218DF84410139114910E91129193
:1037100001218DF85410FDF7E3FC0D2005900120E8
:103720000690032007900020089005A909A8FDF73E
:1037300001FC172002904FF40040039000200490F9
:1037400002A92DA8FDF728FB1BA8FDF7FFFC09A87F
:10375000FDF7FCFC00BF10483B902DA80E49886384
:1037600000BF00BF084629901BA8886300BF00BFA8
:103770000846179009A8886300BF032207492DA8AF
:10378000FDF73AFB3FB000BD443802400020014045
:103790000021014000220140B4000020040000206C
:1037A00000B587B000BF002001901148006840F0CC
:1037B00001000F4908600846006800F00100019010
:1037C00000BF00BF142102A8FCF756FD4FF4C060F3
:1037D000029002200390002004900320059007200F
:1037E000069002A90348FDF725FF07B000BD0000C1
:1037F000303802400000024008B500BF00200090B1
:103800001048006840F010000E4908600846006843
:1038100000F01000009000BF00BFFFF7C1FF0A4892
:103820000A4908604FF4E130486000210748816090
:10383000C16001610C21416100218161C161FEF71C
:10384000E2FE08BD44380240001001401C00002088
:1038500001461C48814201D2002070471A4881422B
:1038600001D20120F9E71948814201D20220F4E790
:103870001748814201D20320EFE71648814201D266
:103880000420EAE71448814201D20520E5E7134805
:10389000814201D20620E0E71148814201D207208F
:1038A000DBE71048814201D20820D6E70E4881426A
:1038B00001D20920D1E70D48814201D20A20CCE78C
:1038C0000B20CAE7004000080080000800C0000884
:1038D00000000108000002080000040800000608BB
:1038E0000000080800000A0800000C0800000E088C
:1038F00000B587B0142102A8FCF7BEFC00BF002071
:1039000001901948006840F0020017490860084615
:10391000006800F00200019000BF00BF00BF00205F
:1039200001900846006840F0020008600846006800
:1039300000F00200019000BF00BF122003900020A1
:10394000049003200590042006904020029002A9D4
:103950000648FDF76FFE8020029002A90348FDF79C
:1039600069FE07B000BD000030380240000402408C
:1039700008B500BF002000901648006840F4001011
:10398000144908600846006800F40010009000BF69
:1039900000BFFFF7ADFF10481049086010484860AD
:1039A00000210E4881604FF4804101610021416196
:1039B000C16101620A21C16000218161FDF7A4FF9C
:1039C00000210648FDF752FF00210448FDF774FF6F
:1039D00008BD000040380240005400406000002054
:1039E000A086010070B586B006460C460025002072
:1039F0000590FDF705FE002000900220049030465F
:103A0000FFF726FF02902046FFF722FF02463046CE
:103A1000FFF71EFF101A401C039005A96846FDF72A
:103A200041FD054615B108A0FFF7A6F841F2883020
:103A3000FDF780F9054615B108A0FFF79DF8FDF7E1
:103A400089FD06B070BD0000666C61736820657208
:103A5000617365206572726F720A0000666C617333
:103A6000682077616974666F72657261736520653D
:103A700072726F720A0000002DE9F04704460D468D
:103A800016464FF00008274607EB4609B4F1006FD1
:103A900002D304F0030008B1BDE8F087FDF7B0FDE4
:103AA00010E0B5F800C06246002321460120FDF772
:103AB0005BFD8046B8F1000F02D005A0FFF75CF86F
:103AC000A41CAD1C4C45ECD3FDF744FD00BFE3E75F
:103AD000666C6173682070726F6772616D206572C9
:103AE000726F720A0000000030B58BB014221249C8
:103AF00006A8FCF7A8FB114D11492846FFF772FFF5
:103B00000A2206A92846FFF7B7FF00240CE0288800
:103B100001A921F81400AD1C01A830F81420214699
:103B200008A0FFF729F8641C0A2CF0DB09A0FFF7B6
:103B300023F80BB030BD00009C3B000800000408D7
:103B40000000060852627566665B25645D3D2025AF
:103B5000640000000A000000FDF7CCFFFEF73AFE0B
:103B6000FEF7F6FDFFF748FEFFF702FFFFF73EFD09
:103B7000FFF7BAFF01E0FFF795FCFCE7000000004B
:103B8000000000000102030406070809000000000D
:103B90000102030400061016000610163702A602E2
:103BA00015035704AE08050D5C11B3150A1A611E02
:103BB000D03B0008000000201C000000D02B0008B3
:103BC000EC3B00081C00002064050000E02B00080E
:103BD0000024F400000000000000000000000000CD
:0C3BE000100000000100000000000000C8
:04000005080001AD41
:00000001FF
